:020000040800F2
:1000000000500020C5010008C9010008CB0100080C
:10001000E1010008E3010008F90100080000000008
:100020000000000000000000000000000F020008B7
:100030001102000800000000130200082106000859
:1000400029020008290200082902000829020008E4
:1000500029020008290200083104000849040008A8
:1000600061040008790400089104000829020008CE
:1000700029020008290200082902000829020008B4
:1000800029020008290200082902000829020008A4
:100090002902000829020008290200082902000894
:1000A0002902000829020008290200082902000884
:1000B0002902000829020008290200082902000874
:1000C0002902000829020008290200082902000864
:1000D0002902000829020008290200082902000854
:1000E0002902000829020008290200080000000077
:1000F0000000000000000000000000000000000000
:1001000000000000000000005FF808F107B500F0F3
:10011000ADF8214A214B22498B4226D30021214BA5
:10012000214A934226D300F0ADF801A9684600F0B9
:1001300095F800251D4E1E4CA41BA410AC421CDCDF
:1001400000251C4E1C4CA41BA410AC421ADCDDE99B
:10015000000100F085FA0646184D194C641BA410E6
:10016000002C14DC304600F075F852F8040F43F808
:10017000040BD1E743F8041BD3E756F82530984722
:100180000135DBE756F8253098470135DDE7013CBE
:1001900055F824309847E3E78C060008000000205B
:1001A00020000020200000206C00002054020008E5
:1001B00054020008540200085402000854020008C7
:1001C0005402000814480047FEE71EF0040F0CBF5D
:1001D000EFF30880EFF309807146104A1047FEE7FD
:1001E000FEE71EF0040F0CBFEFF30880EFF3098069
:1001F00071460B4A1047FEE71EF0040F0CBFEFF3E9
:100200000880EFF309807146064A1047FEE7FEE7D3
:10021000FEE7FEE7704700000D010008DF0100085F
:0A022000F70100080D020008FEE7D8
:10022C009006000800000020200000209006000826
:10023C000000000000000000200000206C000020E6
:08024C000000000000000000AA
:1002540008B500F017F8000001230360014B0B60A0
:10026400704700BF0000002008B500F01DF8024AE6
:10027400024B9A6008BD00BF0000000800ED00E0DA
:1002840000F08AB8BFF34F8F0549064BCA6802F4E1
:10029400E0621343CB60BFF34F8F00BFFDE700BFA5
:1002A40000ED00E00400FA05374B82B01A6842F012
:1002B40001021A605968354A0A405A601A6822F0E5
:1002C400847222F480321A601A6822F480221A603E
:1002D4005A6822F4FE025A604FF41F029A60002208
:1002E400009201921A6842F480321A601A6802F489
:1002F40000320192009A01320092019A1AB9009ACE
:10030400B2F5A06FF2D11A6812F4003218BF0122BC
:100314000192019A012A30D11D4A116841F010015D
:100324001160116821F003011160116841F00201AC
:1003340011605A685A605A685A605A6842F4806276
:100344005A605A6822F47C125A605A6842F4E812DD
:100354005A601A6842F080721A601A689201FCD5D9
:100364005A6822F003025A605A6842F002025A6044
:100374005A6802F00C02082AFAD14FF00062054BC9
:100384009A6002B0704700BF001002400000FFF8FE
:100394000020024000ED00E0104B11495A6802F0C1
:1003A4000C02082A0AD00F4A0A605B680E4AC3F39B
:1003B4000313D25C0B68D3400B6070475A685868CB
:1003C400C2F38342C00302F1020202D4074842434B
:1003D400EAE758688003F9D40248F8E700100240BD
:1003E4001800002000127A000800002000093D00D7
:1003F40040F201220021024BDA6099601A607047D2
:10040400000401400123034A03FA00F05169084340
:10041400506170470004014020B1034B43F82100B0
:1004240000207047012070472400002008B5044BC9
:100434001B689847BDE808400020FFF7E3BF00BFF2
:100444002400002008B5044B5B689847BDE80840C9
:100454000120FFF7D7BF00BF2400002008B5044BDC
:100464009B689847BDE808400220FFF7CBBF00BF58
:100474002400002008B5044BDB689847BDE8084019
:100484000320FFF7BFBF00BF2400002008B5044BC2
:100494001B699847BDE808400420FFF7B3BF00BFBD
:1004A40024000020022803464FF001000ED80F2933
:1004B4000CD8824200FA01F10DD1834207D0022BFD
:1004C40007D00C4B186801430020196070470A4B91
:1004D400F8E70A4BF6E7012B6FEA010105D0022B7E
:1004E40005D0044B18680140EEE7034BFAE7034BD1
:1004F400F8E700BF0C0801400C0C01400C1001404F
:10050400094B0A4A0A491A6000230A4A13605360D5
:10051400C2F88030C2F88430C2F80031C2F8043125
:10052400803A1160536070470CED00E00005FA0555
:100534004000800080E100E008230C4A40F20121E1
:100544001360C2F80034C2F800388122084B1A60E4
:100554000023084A1360C2F80034A2F57E721160C9
:10056400C2F80034C2F80038704700BF00080140E8
:1005740004080140040C0140022803464FF0010026
:100584000CD81F290AD8834200FA01F107D0022BA4
:1005940007D0054B18680843186000207047034BC8
:1005A400F8E7034BF6E700BF141002401C100240AA
:1005B40018100240174B1A6822F003021A601A68D6
:1005C4001A60154A116841F001011160116821F4A3
:1005D400002111601A6822F070621A601A681A60A9
:1005E4001A6822F0F0021A601A6842F080021A6057
:1005F4001A6822F4E0621A601A6842F480621A608F
:100604001A6822F460521A601A6842F400521A609E
:10061400704700BF041002400010024010B5084BA0
:100624001B78012B04D1BDE81040064B1B6818470A
:10063400054B1B6898470022044B5A609A6010BD12
:100644001C000020640000206800002010E000E08E
:10065400012208210020FFF725BF000008B5FFF79D
:10066400A9FF02210846FFF787FF00210220FFF7B8
:1006740083FFFFF761FF00210348FFF7CDFEFFF77B
:0C068400B7FEFFF73DFFFEE7550600083B
:10069000200000200000000000000000000000001A
:1006A000010203040607080900A24A0402FFFFFF33
:040000050800010DE1
:00000001FF
