:100000000C942A000C9437110C9447000C94470070
:100010000C94180F0C94EB0E0C94BE0E0C94910ED5
:100020000C94640E0C94370E0C940A0E0C94DD0D97
:100030000C9447000C94DB0A0C94080B0C94350BC1
:100040000C9493160C9447000C9447000C944700B2
:100050000C94470011241FBECFE5D8E0DEBFCDBF12
:1000600011E0A0E6B0E0EEE9FEE302C005900D92DB
:10007000AA38B107D9F711E0AAE8B1E001C01D9292
:10008000AC3AB107E1F70E94D41E0C944D1F0C94BA
:100090000000EF92FF920F931F937B018C0120E0F1
:1000A00030E040E05FE40E94F50388238CF0C80153
:1000B000B70120E030E040E05FE40E94C1010E940F
:1000C00055049B01AC01205030404040504806C0D0
:1000D000C801B7010E9455049B01AC01B901CA01D6
:1000E0001F910F91FF90EF900895A0E0B0E0EBE733
:1000F000F0E00C940D1FDC012B01FA019C91923071
:1001000008F439C1EB018881823008F433C194309E
:1001100069F4843009F02FC111969C91119789815F
:10012000981709F428C1A0E6B0E025C1843009F48D
:1001300021C18230A9F4923009F01DC19A01AD01AC
:1001400088E0EA010990AE01E90109929E0181501F
:10015000C1F7E201898111969C918923818308C1AD
:10016000923009F407C112962D903C901397EB0141
:100170008A819B811496AD90BD90CD90DC901797AD
:10018000EC80FD800E811F819101281B390BB90184
:1001900037FF04C066277727621B730B6032710537
:1001A0000CF061C0121613066CF537014801062EDB
:1001B00004C096948794779467940A94D2F721E0C8
:1001C00030E040E050E004C0220F331F441F551FB1
:1001D0006A95D2F721503040404050402E213F21B7
:1001E00040235123211531054105510521F021E01E
:1001F00030E040E050E079018A01E628F72808293C
:1002000019293CC0232BD1F1260E371E350146019A
:10021000062E04C096948794779467940A94D2F734
:1002200021E030E040E050E004C0220F331F441FC3
:10023000551F6A95D2F721503040404050402A2146
:100240003B214C215D21211531054105510521F04E
:1002500021E030E040E050E059016A01A628B728CB
:10026000C828D9280BC0821593052CF01C01AA249C
:10027000BB24650103C0EE24FF24870111969C91E5
:10028000D20111968C91981709F445C0992339F041
:10029000A80197012A193B094C095D0906C0A6016E
:1002A00095012E193F09400B510B57FD08C01182D3
:1002B0003382228224833583468357831DC081E0A5
:1002C00081833382228288279927DC01821B930B4A
:1002D000A40BB50B84839583A683B7830DC0220F2F
:1002E000331F441F551F24833583468357838281E0
:1002F000938101979383828324813581468157813D
:10030000DA01C9010197A109B1098F5F9F4FAF4F72
:10031000BF4328F30BC0918333822282EA0CFB1C7B
:100320000C1D1D1DE482F5820683178383E0808304
:10033000248135814681578157FF1AC0C901AA27F8
:1003400097FDA095BA2F81709070A070B0705695EF
:10035000479537952795822B932BA42BB52B848318
:100360009583A683B7838281938101969383828349
:10037000DF0101C0D201CD01CDB7DEB7E2E10C94BF
:10038000291FA0E2B0E0E7ECF1E00C94191F6983AB
:100390007A838B839C832D833E834F835887E9E048
:1003A000EE2EF12CEC0EFD1ECE010196B7010E943F
:1003B00046068E010F5E1F4FCE010596B8010E94C2
:1003C00046068A8991E089278A8BC701B801AE0168
:1003D000475E5F4F0E9475000E947105A096E6E09F
:1003E0000C94351FA0E2B0E0E8EFF1E00C94191F87
:1003F00069837A838B839C832D833E834F835887C5
:10040000F9E0EF2EF12CEC0EFD1ECE010196B701A6
:100410000E9446068E010F5E1F4FCE010596B80161
:100420000E944606C701B801AE01475E5F4F0E94B9
:1004300075000E947105A096E6E00C94351FA0E2BD
:10044000B0E0E5E2F2E00C940D1F69837A838B83C0
:100450009C832D833E834F835887CE010196BE0136
:10046000675F7F4F0E944606CE010596BE016F5E14
:100470007F4F0E9446069985923088F089898230A4
:10048000C8F0943019F4823051F404C0843029F457
:10049000923081F480E690E0C6C0923049F420E0CA
:1004A0009A858A89981321E02A87CE010996BBC0D4
:1004B000823049F420E09A858A89981321E02A8BBA
:1004C000CE014196B0C02D843E844F8458886D88FB
:1004D0007E888F88988CEE24FF248701AA24BB2471
:1004E000650140E050E060E070E0E0E0F0E0C10174
:1004F00081709070892BE9F0E60CF71C081D191D1E
:100500009A01AB012A0D3B1D4C1D5D1D80E090E062
:10051000A0E0B0E0E614F7040805190520F481E036
:1005200090E0A0E0B0E0BA01A901480F591F6A1F8E
:100530007B1FAA0CBB1CCC1CDD1C97FE08C081E0F5
:1005400090E0A0E0B0E0A82AB92ACA2ADB2A3196B6
:10055000E032F10549F0660C771C881C991C569412
:10056000479437942794C3CFFA85EA892B893C892D
:100570008B859C85280F391F2E5F3F4F17C0CA01FE
:1005800081709070892B61F016950795F794E79428
:1005900080E090E0A0E0B0E8E82AF92A0A2B1B2BC3
:1005A00076956795579547952F5F3F4F77FDE7CF36
:1005B0000CC0440F551F661F771F17FD4160EE0CDE
:1005C000FF1C001F111F21503040403090E05907A0
:1005D00090E0690790E4790760F32B8F3C8FDB0193
:1005E000CA018F779070A070B07080349105A1051A
:1005F000B10561F447FD0AC0E114F10401051105DC
:1006000029F0405C5F4F6F4F7F4F40781A8EFE1786
:1006100011F081E08A8F4D8F5E8F6F8F78A383E01A
:10062000898FCE0149960E947105A096E2E10C9453
:10063000291FA8E1B0E0EFE1F3E00C94151F6983F6
:100640007A838B839C832D833E834F835887B9E0C5
:10065000EB2EF12CEC0EFD1ECE010196B7010E948F
:1006600046068E010F5E1F4FCE010596B8010E940F
:1006700046062985223008F47EC03989323010F4CC
:10068000B8017CC08A859A8989278A87243011F02D
:10069000223031F4231709F06EC060E670E06EC0BE
:1006A000343039F41D861E861F86188A1C861B86E8
:1006B00004C0323021F484E08987B7015FC02B8504
:1006C0003C858B899C89281B390B3C872B87ED84C3
:1006D000FE840F851889AD88BE88CF88D88CEA142F
:1006E000FB040C051D0540F4EE0CFF1C001F111F40
:1006F000215030403C872B8720E030E040E050E044
:1007000080E090E0A0E0B0E460E070E0EA14FB0478
:100710000C051D0540F0282B392B4A2B5B2BEA18C2
:10072000FB080C091D09B695A79597958795EE0CC2
:10073000FF1C001F111F6F5F7F4F6F31710531F775
:10074000DA01C9018F779070A070B0708034910584
:10075000A105B10561F427FD0AC0E114F10401050A
:10076000110529F0205C3F4F4F4F5F4F20782D87B8
:100770003E874F87588BBE01675F7F4FCB010E943A
:1007800071056896EAE00C94311FA8E1B0E0EBEC4B
:10079000F3E00C94191F69837A838B839C832D83E8
:1007A0003E834F83588789E0E82EF12CEC0EFD1E26
:1007B000CE010196B7010E9446068E010F5E1F4FC3
:1007C000CE010596B8010E9446068985823040F028
:1007D0008989823028F0C701B8010E94BE0601C095
:1007E0008FEF6896E6E00C94351FA8E1B0E0EBEFE0
:1007F000F3E00C94191F69837A838B839C832D8388
:100800003E834F83588789E0E82EF12CEC0EFD1EC5
:10081000CE010196B7010E9446068E010F5E1F4F62
:10082000CE010596B8010E9446068985823040F0C7
:100830008989823028F0C701B8010E94BE0601C034
:100840008FEF6896E6E00C94351FA8E1B0E0EBE28C
:10085000F4E00C94191F69837A838B839C832D8326
:100860003E834F83588789E0E82EF12CEC0EFD1E65
:10087000CE010196B7010E9446068E010F5E1F4F02
:10088000CE010596B8010E9446068985823040F067
:100890008989823028F0C701B8010E94BE0601C0D4
:1008A00081E06896E6E00C94351FACE0B0E0EBE543
:1008B000F4E00C941D1F69837A838B839C83CE01A3
:1008C0000196BE016B5F7F4F0E9446068D8182308C
:1008D00061F1823050F1843021F48E81882351F10E
:1008E0002EC02F81388537FD20C06E812F31310514
:1008F0001CF06623F9F023C08EE190E0821B930B7D
:1009000029853A854B855C8504C056954795379572
:1009100027958A95D2F76623B1F05095409530958A
:1009200021953F4F4F4F5F4F0EC020E030E040E039
:1009300050E009C02FEF3FEF4FEF5FE704C020E02A
:1009400030E040E050E8B901CA012C96E2E00C9496
:10095000391FA8E0B0E0EFEAF4E00C94151F7B012A
:100960008C01611571058105910519F482E0898377
:1009700060C083E089838EE1C82ED12CDC82CB82DB
:10098000ED82FE820F831887C801B7010E942205FD
:10099000FC013197F7FF3BC0222733272E1B3F0B6B
:1009A00057016801022E04C0D694C794B794A79447
:1009B0000A94D2F740E050E060E070E081E090E01F
:1009C000A0E0B0E004C0880F991FAA1FBB1F2A95A2
:1009D000D2F70197A109B1098E219F21A023B1234C
:1009E0000097A105B10521F041E050E060E070E022
:1009F0004A295B296C297D294D835E836F83788723
:100A00008EE190E08E1B9F0B9C838B8312C03097EE
:100A100081F00E2E04C0EE0CFF1C001F111F0A9463
:100A2000D2F7ED82FE820F831887CE1ADF0ADC82AE
:100A3000CB821A82CE0101960E9471052896EAE0C7
:100A40000C94311FEF92FF920F931F937B018C0147
:100A500080E0E81680E0F80681E0080780E01807EB
:100A600088F48FEFE816F1040105110531F028F044
:100A700088E090E0A0E0B0E017C080E090E0A0E067
:100A8000B0E012C080E0E81680E0F80680E00807D9
:100A900081E0180728F088E190E0A0E0B0E004C011
:100AA00080E190E0A0E0B0E020E230E040E050E003
:100AB000281B390B4A0B5B0B04C016950795F7945E
:100AC000E7948A95D2F7F701E859FF4F8081281BF8
:100AD000310941095109C9011F910F91FF90EF9010
:100AE0000895DF92EF92FF920F931F93FC01E48031
:100AF000F58006811781D1808081823048F480E0C2
:100B000090E0A0E1B0E0E82AF92A0A2B1B2BA5C04F
:100B1000843009F49FC0823021F4EE24FF24870141
:100B200005C0E114F1040105110519F4E0E0F0E05D
:100B300096C0628173819FEF623879070CF05BC0C9
:100B400022E83FEF261B370B2A3131052CF020E03D
:100B500030E040E050E02AC0B801A701022E04C0F6
:100B600076956795579547950A94D2F781E090E07E
:100B7000A0E0B0E004C0880F991FAA1FBB1F2A95F0
:100B8000D2F70197A109B1098E219F21A023B1239A
:100B90000097A105B10521F081E090E0A0E0B0E070
:100BA0009A01AB01282B392B4A2B5B2BDA01C901A7
:100BB0008F779070A070B07080349105A105B10559
:100BC00039F427FF09C0205C3F4F4F4F5F4F04C0EF
:100BD000215C3F4F4F4F5F4FE0E0F0E02030A0E05E
:100BE0003A07A0E04A07A0E45A0710F0E1E0F0E07D
:100BF00079018A0127C06038710564F5FB01E1586D
:100C0000FF4FD801C7018F779070A070B07080340B
:100C10009105A105B10539F4E7FE0DC080E490E02F
:100C2000A0E0B0E004C08FE390E0A0E0B0E0E80E08
:100C3000F91E0A1F1B1F17FF05C016950795F7948D
:100C4000E794319687E016950795F794E7948A958F
:100C5000D1F705C0EE24FF248701EFEFF0E06E2FFF
:100C6000679566276795902F9F77D794DD24D79453
:100C70008E2F8695492F462B582F5D29B701CA0123
:100C80001F910F91FF90EF90DF900895FC01DB0121
:100C9000408151812281622F6F7770E0221F2227CD
:100CA000221F9381892F880F822B282F30E0991FD4
:100CB0009927991F11969C93119721153105A9F534
:100CC000411551056105710511F482E037C082E8D4
:100CD0009FEF13969C938E9312979A01AB0167E056
:100CE000220F331F441F551F6A95D1F783E08C9361
:100CF0000DC0220F331F441F551F12968D919C91DA
:100D00001397019713969C938E931297203080E04F
:100D1000380780E0480780E4580758F314962D936D
:100D20003D934D935C93179708952F3F310579F4C8
:100D3000411551056105710519F484E08C930895FE
:100D400064FF03C081E08C9312C01C9210C02F5727
:100D5000304013963C932E93129783E08C9387E058
:100D6000440F551F661F771F8A95D1F7706414963C
:100D70004D935D936D937C93179708951F93DC01BA
:100D8000FB019C91923008F447C08081823008F4C6
:100D900043C0943051F411961C91843099F58181AF
:100DA000682F70E0611B71093FC0843021F09230E0
:100DB00031F48230B9F18181882389F12DC01196F7
:100DC0001C9111978230F1F081811817D9F4129695
:100DD0002D913C911397828193818217930794F010
:100DE00028173907BCF014968D919D910D90BC91F8
:100DF000A02D2481358146815781281739074A075C
:100E00005B0718F4112341F00AC082179307A40767
:100E1000B50740F4112319F061E070E005C06FEFF1
:100E20007FEF02C060E070E0CB011F910895DF9377
:100E3000CF930F92CDB7DEB71982ABE2B0E0EBE211
:100E4000F0E080818D7F8C93ABE2B0E0EBE2F0E0EC
:100E500080818E7F8C93AAE2B0E0EAE2F0E08081AC
:100E60008F778C93AAE2B0E0EAE2F0E080818F7B9A
:100E70008C93AAE2B0E0EAE2F0E080818F7D8C936F
:100E8000A0E4B0E0E0E4F0E080818F7C8C93A0E40B
:100E9000B0E0E0E4F0E0808180688C93A0E4B0E012
:100EA000E0E4F0E08081897F8C93A0E4B0E0E0E4AE
:100EB000F0E0808186688C9389818F7B8983A0E4B0
:100EC000B0E0E0E4F0E090818981892B8C93898106
:100ED000877F8983A0E4B0E0E0E4F0E0908189813D
:100EE000892B8C9389818E7F8983A0E4B0E0E0E434
:100EF000F0E090818981892B8C93E9E2F0E083E333
:100F00008083E0E4F0E01082AAE2B0E0EAE2F0E000
:100F1000808188618C930F90CF91DF910895DF934A
:100F2000CF930F92CDB7DEB71982EBE2F0E080816C
:100F300082958F70882F90E081709070882311F0D7
:100F400081E0898389810F90CF91DF910895DF93AC
:100F5000CF930F92CDB7DEB71982EBE2F0E080813C
:100F6000869586958695882F90E08170907088236D
:100F700011F081E0898389810F90CF91DF910895ED
:100F8000DF93CF930F92CDB7DEB71982EBE2F0E09B
:100F9000808186958695882F90E081709070882357
:100FA00011F081E0898389810F90CF91DF910895BD
:100FB000DF93CF9300D000D0CDB7DEB78B836C83A7
:100FC0008C81482F50E08B81882F90E09C012295E6
:100FD0003295307F3227207F3227CA01B9010E9423
:100FE000FA1ECB0101979A838983A0E4B0E0E0E484
:100FF000F0E080818F778C93E9E2F0E08981808353
:10100000E0E4F0E089819A81892F99278F778083A6
:101010000F900F900F900F90CF91DF910895DF9375
:10102000CF9300D0CDB7DEB79A838983ECE2F0E0AE
:1010300089818083EBE2F0E08081829586958770DC
:10104000882F90E0817090700097A1F30F900F901F
:10105000CF91DF910895DF93CF9300D0CDB7DEB766
:10106000EBE2F0E080818823DCF7ECE2F0E08081C5
:10107000882F90E09A83898389819A810F900F90BD
:10108000CF91DF910895DF93CF9300D000D000D0AF
:10109000CDB7DEB76B837C838D839E836B817C8130
:1010A0008D819E810E944900DC01CB01CC01A0E032
:1010B000B0E0BC01CD010E94A9049B01AC016B8191
:1010C0007C818D819E810E94C101DC01CB01BC012C
:1010D000CD0120E030E543EC57E40E941F02DC0123
:1010E000CB01BC01CD010E944900DC01CB019A83F8
:1010F00089836B817C818D819E810E944900DC0106
:10110000CB010E9494088EE290E00E940F08898132
:101110009A810E94940826960FB6F894DEBF0FBEFF
:10112000CDBFCF91DF910895DF93CF93CDB7DEB7D9
:1011300068970FB6F894DEBF0FBECDBF988F8F8B28
:101140008F89988D9E838D831C820DC08C818F5FCB
:101150008C838D819E812AE030E0B9010E94E61ED9
:10116000CB019E838D838D819E81009779F78F8936
:10117000988D9E838D831B821EC08B81E82FF0E0AB
:101180008D819E812AE030E0B9010E94E61E282F61
:10119000205DCE010796E80FF91F20838D819E8187
:1011A0002AE030E0B9010E94E61ECB019E838D83C8
:1011B0008B818F5F8B839B818C819817F0F28C8160
:1011C000882F90E001979A83898311C029813A8101
:1011D000CE010796FC01E20FF31F8081882F90E07B
:1011E0000E940F0889819A8101979A838983898156
:1011F0009A8199235CF768960FB6F894DEBF0FBE0C
:10120000CDBFCF91DF9108950F931F93DF93CF93BD
:1012100000D000D00F92CDB7DEB79D838C831B82A8
:101220001A82198212C029813A818C819D81FC0128
:10123000E20FF31F8081853219F48B818F5F8B83DE
:1012400089819A8101969A83898309811A818C8187
:101250009D810E94441F0817190728F38B810F9066
:101260000F900F900F900F90CF91DF911F910F91E2
:1012700008950F931F93DF93CF93CDB7DEB7669793
:101280000FB6F894DEBF0FBECDBF8D8D9E8D0E9430
:101290000409888BCE014F969A8B898B4EC1ED8DB8
:1012A000FE8D8081853299F58D8D9E8DFC01319664
:1012B0008081843661F529893A89C90102969A8B21
:1012C000898BF901808191819F878E878E859F858B
:1012D000992324F48DE290E00E940F088E859F856B
:1012E0009E8B8D8B8D899E8999233CF48D899E8957
:1012F000909581959F4F9E8B8D8B8D899E890E94A5
:1013000094088D8D9E8D01969E8F8D8F08C1ED8DD9
:10131000FE8D8081853209F060C08D8D9E8DFC012F
:1013200031968081863609F058C029893A89C901E9
:1013300004969A8B898BF90180819181A281B38176
:101340008A879B87AC87BD876A857B858C859D85D1
:101350000E945504DC01CB0199878887888599858F
:101360000097D1F06A857B858C859D8520E030E0F3
:1013700040E050E00E942504882324F48DE290E0B0
:101380000E940F088A859B85AC85BD85BF77BC010F
:10139000CD010E9443081BC088859985992324F4B8
:1013A0008DE290E00E940F08888599859C8B8B8B3D
:1013B0008B899C8999233CF48B899C899095819594
:1013C0009F4F9C8B8B8B8B899C890E9494088D8D61
:1013D0009E8D01969E8F8D8FA2C0ED8DFE8D80819A
:1013E0008532E1F48D8D9E8DFC01319680818336AE
:1013F000A9F429893A89C90102969A8B898BF90146
:10140000808191819F838E838E819F810E940F08AE
:101410008D8D9E8D01969E8F8D8F81C0ED8DFE8D61
:1014200080818532A1F58D8D9E8DFC013196808164
:10143000833769F529893A89C90102969A8B898B84
:10144000F901808191819D838C831B8210C08B81E7
:10145000282F30E08C819D81FC01E20FF31F8081F9
:10146000882F90E00E940F088B818F5F8B838B8188
:10147000082F10E08C819D810E94441F08171907D6
:1014800030F38D8D9E8D01969E8F8D8F48C0ED8D92
:10149000FE8D80818C3519F58D8D9E8DFC013196E8
:1014A00080818E36E1F41A8207C080E290E00E94CB
:1014B0000F088A818F5F8A838A81482F50E02091AC
:1014C00090013091910186E490E0821B930B4817C4
:1014D000590758F3109291011092900120C0ED8DA0
:1014E000FE8D80818C35A1F48D8D9E8DFC01319611
:1014F0008081843769F4198207C080E290E00E94FD
:101500000F0889818F5F898389818730B0F307C095
:10151000ED8DFE8D8081882F90E00E940F088D8DCB
:101520009E8D01969E8F8D8F80919001909191015B
:1015300001969093910180939001ED8DFE8D8081B5
:10154000882309F0ACCE66960FB6F894DEBF0FBEC6
:10155000CDBFCF91DF911F910F910895DF93CF936E
:1015600000D000D0CDB7DEB79B838A836C8319820D
:101570008C81882F90E0880F991FFC01E657FE4F61
:1015800080819181009769F08C81882F90E0880F8D
:10159000991FFC01E657FE4F8A819B8191838083CE
:1015A00002C082E0898389810F900F900F900F9085
:1015B000CF91DF9108951F920F920FB60F921124D1
:1015C0002F933F934F935F936F937F938F939F934B
:1015D000AF93BF93EF93FF93DF93CF93CDB7DEB776
:1015E000E0918A01F0918B010995CF91DF91FF91F4
:1015F000EF91BF91AF919F918F917F916F915F918B
:101600004F913F912F910F900FBE0F901F90189503
:101610001F920F920FB60F9211242F933F934F9367
:101620005F936F937F938F939F93AF93BF93EF934A
:10163000FF93DF93CF93CDB7DEB7E0918C01F091AC
:101640008D010995CF91DF91FF91EF91BF91AF91FE
:101650009F918F917F916F915F914F913F912F91CA
:101660000F900FBE0F901F9018951F920F920FB6FC
:101670000F9211242F933F934F935F936F937F9318
:101680008F939F93AF93BF93EF93FF93DF93CF938A
:10169000CDB7DEB7E0918E01F0918F010995CF9122
:1016A000DF91FF91EF91BF91AF919F918F917F91CA
:1016B0006F915F914F913F912F910F900FBE0F90BF
:1016C0001F901895DF93CF93CDB7DEB7A3E5B0E0B9
:1016D000E3E5F0E08081877B8C93A3E5B0E0E3E570
:1016E000F0E0808188608C93A3E5B0E0E3E5F0E072
:1016F00080818F7C8C93A3E5B0E0E3E5F0E080810E
:101700008C93A3E5B0E0E3E5F0E08081887F8C93E3
:10171000A3E5B0E0E3E5F0E0808185608C93A9E586
:10172000B0E0E9E5F0E0808182608C93CF91DF91B9
:101730000895DF93CF930F92CDB7DEB78983A3E5EA
:10174000B0E0E3E5F0E08081887F8C93A3E5B0E032
:10175000E3E5F0E090818981892B8C930F90CF9104
:10176000DF910895DF93CF93CDB7DEB7A3E5B0E067
:10177000E3E5F0E08081887F8C93E2E5F0E0108281
:10178000CF91DF910895DF93CF93CDB7DEB7A3E577
:10179000B0E0E3E5F0E08081887F8C93CF91DF912A
:1017A0000895DF93CF930F92CDB7DEB78983ECE531
:1017B000F0E0898180830F90CF91DF910895DF93CE
:1017C000CF930F92CDB7DEB78983ECE5F0E0898146
:1017D00080830F90CF91DF910895DF93CF93CDB7A2
:1017E000DEB7A9E5B0E0E9E5F0E0808181608C93A7
:1017F000CF91DF910895DF93CF93CDB7DEB7A9E501
:10180000B0E0E9E5F0E080818E7F8C93CF91DF91AD
:101810000895DF93CF93CDB7DEB7A9E5B0E0E9E552
:10182000F0E0808182608C93CF91DF910895DF9307
:10183000CF93CDB7DEB7A9E5B0E0E9E5F0E0808170
:101840008D7F8C93CF91DF910895DF93CF93CDB7A8
:10185000DEB7E2E5F0E01082CF91DF910895DF93EB
:10186000CF93CDB7DEB7AFE4B0E0EFE4F0E0808136
:101870008C7F8C93AEE4B0E0EEE4F0E08081877E74
:101880008C93AFE4B0E0EFE4F0E0808182608C9371
:10189000AEE4B0E0EEE4F0E0808188618C93AFE4E8
:1018A000B0E0EFE4F0E080818F738C93AFE4B0E0C0
:1018B000EFE4F0E0808180688C93AFE4B0E0EFE487
:1018C000F0E080818F7C8C93AFE4B0E0EFE4F0E057
:1018D000808180628C93AEE4B0E0EEE4F0E0808141
:1018E000887F8C93AEE4B0E0EEE4F0E0808182602B
:1018F0008C93AEE4B0E0EEE4F0E080818F7B8C93DB
:10190000A9E5B0E0E9E5F0E080818B7F8C93A9E563
:10191000B0E0E9E5F0E080818F7E8C93A9E5B0E04E
:10192000E9E5F0E08081877F8C93A9E5B0E0E9E507
:10193000F0E080818F7D8C93CF91DF910895DF93CC
:10194000CF930F92CDB7DEB789838981882341F485
:10195000AEE4B0E0EEE4F0E080818F7B8C930AC0CF
:101960008981813039F4AEE4B0E0EEE4F0E08081CA
:1019700080648C930F90CF91DF910895DF93CF9384
:10198000CDB7DEB7E6E4F0E080819181CF91DF91C1
:101990000895DF93CF930F92CDB7DEB78983AEE47E
:1019A000B0E0EEE4F0E08081887F8C93AEE4B0E0BC
:1019B000EEE4F0E090818981892B8C930F90CF9198
:1019C000DF910895DF93CF93CDB7DEB7ECE4F0E07D
:1019D00011821082CF91DF910895DF93CF9300D0D1
:1019E000CDB7DEB79A838983EAE4F0E089819A81F2
:1019F000918380830F900F90CF91DF910895DF93B3
:101A0000CF9300D0CDB7DEB79A838983E8E4F0E0C6
:101A100089819A81918380830F900F90CF91DF917C
:101A20000895DF93CF9300D0CDB7DEB79A83898333
:101A3000E6E4F0E089819A81918380830F900F9092
:101A4000CF91DF910895DF93CF93CDB7DEB7A9E5AE
:101A5000B0E0E9E5F0E0808184608C93CF91DF9184
:101A60000895DF93CF93CDB7DEB7A9E5B0E0E9E500
:101A7000F0E080818B7F8C93CF91DF910895DF938D
:101A8000CF93CDB7DEB7A9E5B0E0E9E5F0E080811E
:101A900080618C93CF91DF910895DF93CF93CDB781
:101AA000DEB7A9E5B0E0E9E5F0E080818F7E8C93B8
:101AB000CF91DF910895DF93CF93CDB7DEB7A9E53E
:101AC000B0E0E9E5F0E0808188608C93CF91DF9110
:101AD0000895DF93CF93CDB7DEB7A9E5B0E0E9E590
:101AE000F0E08081877F8C93CF91DF910895DF9321
:101AF000CF93CDB7DEB7A9E5B0E0E9E5F0E08081AE
:101B000080628C93CF91DF910895DF93CF93CDB70F
:101B1000DEB7A9E5B0E0E9E5F0E080818F7D8C9348
:101B2000CF91DF910895DF93CF9300D0CDB7DEB78B
:101B30009A838983ECE4F0E089819A8191838083A0
:101B40000F900F90CF91DF910895DF93CF93CDB792
:101B5000DEB7ECE4F0E080819181CF91DF910895D0
:101B6000DF93CF9300D000D0CDB7DEB79B838A83BD
:101B70006C8319828C81882F90E0880F991FFC015B
:101B8000EE56FE4F80819181009769F08C81882FFD
:101B900090E0880F991FFC01EE56FE4F8A819B81D1
:101BA0009183808302C082E0898389810F900F90A6
:101BB0000F900F90CF91DF9108951F920F920FB663
:101BC0000F9211242F933F934F935F936F937F93C3
:101BD0008F939F93AF93BF93EF93FF93DF93CF9335
:101BE000CDB7DEB7E0919201F09193010995CF91C5
:101BF000DF91FF91EF91BF91AF919F918F917F9175
:101C00006F915F914F913F912F910F900FBE0F9069
:101C10001F9018951F920F920FB60F9211242F93B9
:101C20003F934F935F936F937F938F939F93AF9364
:101C3000BF93EF93FF93DF93CF93CDB7DEB7E091E0
:101C40009401F09195010995CF91DF91FF91EF916A
:101C5000BF91AF919F918F917F916F915F914F91C4
:101C60003F912F910F900FBE0F901F9018951F92CC
:101C70000F920FB60F9211242F933F934F935F93C0
:101C80006F937F938F939F93AF93BF93EF93FF9344
:101C9000DF93CF93CDB7DEB7E0919601F091970136
:101CA0000995CF91DF91FF91EF91BF91AF919F91F6
:101CB0008F917F916F915F914F913F912F910F90F5
:101CC0000FBE0F901F9018951F920F920FB60F9294
:101CD00011242F933F934F935F936F937F938F9331
:101CE0009F93AF93BF93EF93FF93DF93CF93CDB7C2
:101CF000DEB7E0919A01F0919B010995CF91DF91B8
:101D0000FF91EF91BF91AF919F918F917F916F91D3
:101D10005F914F913F912F910F900FBE0F901F90A9
:101D200018951F920F920FB60F9211242F933F9385
:101D30004F935F936F937F938F939F93AF93BF93D3
:101D4000EF93FF93DF93CF93CDB7DEB7E091980188
:101D5000F09199010995CF91DF91FF91EF91BF919A
:101D6000AF919F918F917F916F915F914F913F9133
:101D70002F910F900FBE0F901F9018951F920F92EA
:101D80000FB60F9211242F933F934F935F936F934E
:101D90007F938F939F93AF93BF93EF93FF93DF93C3
:101DA000CF93CDB7DEB7E0919C01F0919D010995ED
:101DB000CF91DF91FF91EF91BF91AF919F918F9163
:101DC0007F916F915F914F913F912F910F900FBE37
:101DD0000F901F9018951F920F920FB60F9211241B
:101DE0002F933F934F935F936F937F938F939F9323
:101DF000AF93BF93EF93FF93DF93CF93CDB7DEB74E
:101E0000E0919E01F0919F010995CF91DF91FF91A3
:101E1000EF91BF91AF919F918F917F916F915F9162
:101E20004F913F912F910F900FBE0F901F901895DB
:101E30001F920F920FB60F9211242F933F934F933F
:101E40005F936F937F938F939F93AF93BF93EF9322
:101E5000FF93DF93CF93CDB7DEB7E091A001F09170
:101E6000A1010995CF91DF91FF91EF91BF91AF91C2
:101E70009F918F917F916F915F914F913F912F91A2
:101E80000F900FBE0F901F901895DF93CF93CDB793
:101E9000DEB7EAE3F0E081EF8083E7E3F0E08FEF85
:101EA0008083E4E3F0E08FEF8083E1E3F0E08EEF06
:101EB0008083EBE3F0E01082E8E3F0E01082E5E3FA
:101EC000F0E01082E2E3F0E08CE08083CF91DF91DC
:101ED0000895DF93CF930F92CDB7DEB789838981C1
:101EE000813041F4AFE5B0E0EFE5F0E0808180685B
:101EF0008C930AC08981882339F4AFE5B0E0EFE51F
:101F0000F0E080818F778C930F90CF91DF910895CF
:101F1000DF93CF93CDB7DEB727970FB6F894DEBF28
:101F20000FBECDBF8A836B8319828B818130A9F567
:101F3000AFE5B0E0EFE5F0E0808180688C938A81C6
:101F4000282F30E03F832E838E819F818130910541
:101F500089F02E813F8122303105A1F08E819F8151
:101F60000097C1F4ABE5B0E0EBE5F0E08081806480
:101F70008C9346C0ABE5B0E0EBE5F0E08081806893
:101F80008C933EC0ABE5B0E0EBE5F0E08081806291
:101F90008C9336C081E0898333C08B81882371F5AF
:101FA0008A81282F30E03D832C838C819D81813074
:101FB000910589F02C813D8122303105A1F08C8181
:101FC0009D810097C1F4ABE5B0E0EBE5F0E08081E6
:101FD0008F7B8C9315C0ABE5B0E0EBE5F0E0808142
:101FE0008F778C930DC0ABE5B0E0EBE5F0E080813E
:101FF0008F7D8C9305C081E0898302C081E0898355
:10200000898127960FB6F894DEBF0FBECDBFCF9162
:10201000DF910895DF93CF93CDB7DEB7ABE5B0E0A6
:10202000EBE5F0E080818F7B8C93ABE5B0E0EBE5F6
:10203000F0E080818F778C93ABE5B0E0EBE5F0E0EA
:1020400080818F7D8C93CF91DF910895DF93CF9323
:10205000CDB7DEB72D970FB6F894DEBF0FBECDBF5C
:102060008A836B8319828B81282F30E03D872C87F0
:102070008C859D8581309105B9F12C853D85223077
:1020800031052CF48C859D85009771F0ABC02C85B3
:102090003D852230310509F449C08C859D8583300A
:1020A000910509F471C09EC08A81282F30E03B87DA
:1020B0002A878A859B85009731F02A853B852130C8
:1020C000310541F00EC0E5E5F0E0A5E5B0E08C910A
:1020D00080838AC0E5E5F0E0A5E5B0E08C918083DF
:1020E00083C081E0898380C08A81282F30E03987CE
:1020F000288788859985009731F028853985213092
:10210000310549F010C0A5E5B0E0E5E5F0E08081DB
:1021100081608C9369C0A5E5B0E0E5E5F0E08081E1
:1021200084608C9361C081E089835EC08A81282F9E
:1021300030E03F832E838E819F818130910589F02D
:102140002E813F8122303105A1F08E819F81009741
:10215000C1F4A5E5B0E0E5E5F0E0808182608C9314
:1021600043C0A5E5B0E0E5E5F0E0808188608C93B0
:102170003BC0A4E5B0E0E4E5F0E080818F7B8C9388
:1021800033C081E0898330C08A81282F30E03D83CD
:102190002C838C819D818130910589F02C813D813A
:1021A00022303105A1F08C819D810097C1F4A5E515
:1021B000B0E0E5E5F0E0808183608C9315C0A5E593
:1021C000B0E0E5E5F0E080818C608C930DC0A4E583
:1021D000B0E0E4E5F0E0808180648C9305C081E0AC
:1021E000898302C081E0898389812D960FB6F89496
:1021F000DEBF0FBECDBFCF91DF910895DF93CF93A8
:10220000CDB7DEB7A5E5B0E0E5E5F0E080818C93E1
:10221000A5E5B0E0E5E5F0E080818C93A4E5B0E0D1
:10222000E4E5F0E080818F7B8C93CF91DF9108957E
:10223000DF93CF9300D00F92CDB7DEB79B838A8315
:1022400019828091A2019091A301009739F08A81AF
:102250009B819093A3018093A20102C082E08983B5
:1022600089810F900F900F90CF91DF9108951F9269
:102270000F920FB60F9211242F933F934F935F93BA
:102280006F937F938F939F93AF93BF93EF93FF933E
:10229000DF93CF93CDB7DEB7E091A201F091A30118
:1022A0000995CF91DF91FF91EF91BF91AF919F91F0
:1022B0008F917F916F915F914F913F912F910F90EF
:1022C0000FBE0F901F901895DF93CF9300D000D0D2
:1022D0000F92CDB7DEB78A836B8319828A818430EF
:1022E00018F081E0898332C08A81282F30E03D8355
:1022F0002C838C819D8181309105D1F02C813D8191
:10230000223031052CF48C819D81009761F01EC034
:102310002C813D812230310581F08C819D8183307B
:10232000910581F013C0EAE3F0E08B8180830EC059
:10233000E7E3F0E08B81808309C0E4E3F0E08B8188
:10234000808304C0E1E3F0E08B81808389810F907A
:102350000F900F900F900F90CF91DF910895DF9322
:10236000CF9300D000D00F92CDB7DEB78A836B83B6
:1023700019828A81843018F081E0898332C08A8191
:10238000282F30E03D832C838C819D818130910505
:10239000D1F02C813D81223031052CF48C819D813E
:1023A000009761F01EC02C813D812230310581F003
:1023B0008C819D818330910581F013C0EBE3F0E0C7
:1023C0008B8180830EC0E8E3F0E08B81808309C0BD
:1023D000E5E3F0E08B81808304C0E2E3F0E08B81F1
:1023E000808389810F900F900F900F900F90CF9165
:1023F000DF910895DF93CF9300D000D000D0CDB708
:10240000DEB78A837C836B8319828A81843018F0DB
:1024100081E089833AC08A81282F30E03E832D8372
:102420008D819E8181309105E1F02D813E812230A8
:1024300031052CF48D819E81009761F026C02D819D
:102440003E8122303105A1F08D819E81833091053E
:10245000B1F01BC0E9E3F0E08081EB81FC81808377
:1024600014C0E6E3F0E08081EB81FC8180830DC045
:10247000E3E3F0E08081EB81FC81808306C0E0E350
:10248000F0E08081EB81FC818083898126960FB604
:10249000F894DEBF0FBECDBFCF91DF910895DF93DB
:1024A000CF93CDB7DEB728970FB6F894DEBF0FBE37
:1024B000CDBF8A836B834C8319828C81813009F074
:1024C0006FC08A81282F30E038872F838F819885CD
:1024D0008130910549F12F813885223031052CF466
:1024E0008F819885009761F0D5C02F813885223083
:1024F000310571F18F81988583309105E9F1CAC06A
:10250000AAE3B0E0EAE3F0E08081482F8B81282F36
:1025100030E081E090E0022E02C0880F991F0A94FB
:10252000E2F7842B8C93B6C0A7E3B0E0E7E3F0E0DA
:102530008081482F8B81282F30E081E090E0022EAF
:1025400002C0880F991F0A94E2F7842B8C93A2C0D3
:10255000A4E3B0E0E4E3F0E08081482F8B81282FF2
:1025600030E081E090E0022E02C0880F991F0A94AB
:10257000E2F7842B8C938EC0A1E3B0E0E1E3F0E0BE
:102580008081482F8B81282F30E081E090E0022E5F
:1025900002C0880F991F0A94E2F7842B8C937AC0AB
:1025A0008C81882309F074C08A81282F30E03E8313
:1025B0002D838D819E818130910559F12D813E8140
:1025C000223031052CF48D819E81009769F062C024
:1025D0002D813E812230310589F18D819E818330AC
:1025E000910509F440C056C0AAE3B0E0EAE3F0E088
:1025F0008081482F8B81282F30E081E090E0022EEF
:1026000002C0880F991F0A94E2F7809584238C9367
:1026100041C0A7E3B0E0E7E3F0E08081482F8B8181
:10262000282F30E081E090E0022E02C0880F991F31
:102630000A94E2F7809584238C932CC0A4E3B0E045
:10264000E4E3F0E08081482F8B81282F30E081E0A7
:1026500090E0022E02C0880F991F0A94E2F780953D
:1026600084238C9317C0A1E3B0E0E1E3F0E0808124
:10267000482F8B81282F30E081E090E0022E02C0AD
:10268000880F991F0A94E2F7809584238C9302C0E7
:1026900081E08983898128960FB6F894DEBF0FBE4A
:1026A000CDBFCF91DF910895DF93CF93CDB7DEB744
:1026B00028970FB6F894DEBF0FBECDBF8A836B8319
:1026C0004C8319828C81813009F06FC08A81282F58
:1026D00030E038872F838F8198858130910549F1CB
:1026E0002F813885223031052CF48F819885009711
:1026F00061F0D5C02F8138852230310571F18F818D
:10270000988583309105E9F1CAC0ABE3B0E0EBE313
:10271000F0E08081482F8B81282F30E081E090E02D
:10272000022E02C0880F991F0A94E2F7842B8C9323
:10273000B6C0A8E3B0E0E8E3F0E08081482F8B81E9
:10274000282F30E081E090E0022E02C0880F991F10
:102750000A94E2F7842B8C93A2C0A5E3B0E0E5E3F2
:10276000F0E08081482F8B81282F30E081E090E0DD
:10277000022E02C0880F991F0A94E2F7842B8C93D3
:102780008EC0A2E3B0E0E2E3F0E08081482F8B81CD
:10279000282F30E081E090E0022E02C0880F991FC0
:1027A0000A94E2F7842B8C937AC08C81882309F0F9
:1027B00074C08A81282F30E03E832D838D819E81D5
:1027C0008130910559F12D813E81223031052CF463
:1027D0008D819E81009769F062C02D813E812230FB
:1027E000310589F18D819E818330910509F440C0C6
:1027F00056C0ABE3B0E0EBE3F0E08081482F8B8183
:10280000282F30E081E090E0022E02C0880F991F4F
:102810000A94E2F7809584238C9341C0A8E3B0E04A
:10282000E8E3F0E08081482F8B81282F30E081E0C1
:1028300090E0022E02C0880F991F0A94E2F780955B
:1028400084238C932CC0A5E3B0E0E5E3F0E0808125
:10285000482F8B81282F30E081E090E0022E02C0CB
:10286000880F991F0A94E2F7809584238C9317C0F0
:10287000A2E3B0E0E2E3F0E08081482F8B81282FD3
:1028800030E081E090E0022E02C0880F991F0A9488
:10289000E2F7809584238C9302C081E0898389814B
:1028A00028960FB6F894DEBF0FBECDBFCF91DF9153
:1028B0000895DF93CF93CDB7DEB727970FB6F8947F
:1028C000DEBF0FBECDBF8A836B835D834C831982CD
:1028D0008A81282F30E03F832E834E815F814130F3
:1028E000510559F18E819F818230910534F42E81FA
:1028F0003F812115310569F05BC04E815F81423017
:10290000510579F18E819F818330910509F43DC095
:102910004FC0E9E3F0E08081282F30E08B81882FE1
:1029200090E0A90102C0559547958A95E2F7CA0142
:102930008170EC81FD8180833BC0E6E3F0E0808123
:10294000282F30E08B81882F90E0A90102C0559597
:1029500047958A95E2F7CA018170EC81FD818083F9
:1029600027C0E3E3F0E08081282F30E08B81882FBF
:1029700090E0A90102C0559547958A95E2F7CA01F2
:102980008170EC81FD81808313C0E0E3F0E0808101
:10299000282F30E08B81882F90E0A90102C0559547
:1029A00047958A95E2F7CA018170EC81FD818083A9
:1029B000898127960FB6F894DEBF0FBECDBFCF91A9
:1029C000DF910895DF93CF93CDB7DEB7E7E2F0E074
:1029D00080E48083E6E2F0E086E88083CF91DF91B7
:1029E0000895DF93CF9300D0CDB7DEB78A831982E5
:1029F0008A81813041F4A7E2B0E0E7E2F0E0808133
:102A000080628C930DC08A81882341F4A7E2B0E0F4
:102A1000E7E2F0E080818F7D8C9302C081E08983C2
:102A200089810F900F90CF91DF910895DF93CF931D
:102A300000D0CDB7DEB78A83E7E2F0E080818983FA
:102A400089818F73898399818A81892B8983E7E2C0
:102A5000F0E0898180830F900F90CF91DF910895EE
:102A6000DF93CF9300D0CDB7DEB78A83E6E2F0E004
:102A7000808189838981887F898399818A81892B53
:102A80008983E6E2F0E0898180830F900F90CF91F7
:102A9000DF910895DF93CF9300D0CDB7DEB78A835F
:102AA00019828A81813041F4A6E2B0E0E6E2F0E0EA
:102AB000808180688C930DC08A81882341F4A6E2CE
:102AC000B0E0E6E2F0E080818F778C9302C081E095
:102AD000898389810F900F90CF91DF910895DF93C3
:102AE000CF9300D000D0CDB7DEB78B836C831A8232
:102AF0008B818130B9F4A6E2B0E0E6E2F0E08081BB
:102B000080628C93E6E2F0E08081898389818F7115
:102B1000898399818C81892B8983E6E2F0E0898120
:102B200080830DC08B81882341F4A6E2B0E0E6E209
:102B3000F0E080818F7D8C9302C081E08A838A815E
:102B40000F900F900F900F90CF91DF910895DF932A
:102B5000CF93CDB7DEB727970FB6F894DEBF0FBE81
:102B6000CDBF8D837F836E831C828091680181300D
:102B700009F074C0109268011B821A82E7E2F0E04B
:102B8000808189838981807E898399818D81892B48
:102B90008983E7E2F0E089818083A6E2B0E0E6E2A3
:102BA000F0E0808180648C93E6E2F0E0808186959D
:102BB00086958695882F90E081709070009709F037
:102BC0004FC0E6E2F0E0808182958F70882F90E020
:102BD00081709070009731F48A819B8101969B836C
:102BE0008A83EFCFA6E2B0E0E6E2F0E08081806188
:102BF0008C938E819F81009771F1E7E2F0E08081F4
:102C0000829586958770882F90E0817090708823D8
:102C100051F0E5E2F0E08081882F90E0EE81FF81C5
:102C20009183808314C0E7E2F0E0808182958695ED
:102C30008770882F90E081709070009741F4E4E2F3
:102C4000F0E080819181EE81FF819183808381E03A
:102C50008093680105C082E08C8302C083E08C838E
:102C60008C8127960FB6F894DEBF0FBECDBFCF91F3
:102C7000DF910895DF93CF93CDB7DEB728970FB6D6
:102C8000F894DEBF0FBECDBF8B837D836C835F83E3
:102C90004E831A82809168018130C9F5E7E2F0E045
:102CA000808189838C819D81009721F48E819F8111
:102CB000009741F1109268018981807E8983998112
:102CC0008B81892B8983E7E2F0E0898180838E8183
:102CD0009F819093A5018093A4018C819D81909305
:102CE000A7018093A601A6E2B0E0E6E2F0E08081D1
:102CF00080648C93A6E2B0E0E6E2F0E08081886038
:102D00008C9302C082E08A838A81888702C083E034
:102D10008887888528960FB6F894DEBF0FBECDBF92
:102D2000CF91DF9108951F920F920FB60F92112449
:102D30002F933F934F935F936F937F938F939F93C3
:102D4000AF93BF93EF93FF93DF93CF93CDB7DEB7EE
:102D5000E7E2F0E08081829586958770882F90E089
:102D600081709070882369F0A091A601B091A701AD
:102D7000E5E2F0E08081882F90E011969C938E939D
:102D800016C0E7E2F0E08081829586958770882FF3
:102D900090E081709070009751F4E091A601F0915D
:102DA000A701A4E2B0E08D919C919183808381E0A2
:102DB00080936801E091A401F091A5010995A6E234
:102DC000B0E0E6E2F0E08081877F8C93CF91DF91E5
:102DD000FF91EF91BF91AF919F918F917F916F91F3
:102DE0005F914F913F912F910F900FBE0F901F90C9
:102DF0001895DF93CF93CDB7DEB70E942F0CCF91FC
:102E0000DF910895DF93CF93CDB7DEB76F970FB6FD
:102E1000F894DEBF0FBECDBF9E8F8D8F6F8F8F8DCD
:102E2000813009F079C0E8E4F0E08D8D9E8D9183CA
:102E3000808380E090E0A0E2B2E4898F9A8FAB8F2C
:102E4000BC8F698D7A8D8B8D9C8D20E030E04AEFB0
:102E500054E40E941F02DC01CB018D8B9E8BAF8B53
:102E6000B88F6D897E898F89988D20E030E040E8A9
:102E70005FE30E94250488232CF481E090E09C8B82
:102E80008B8B3FC06D897E898F89988D20E03FEFC5
:102E90004FE757E40E94C50318164CF5698D7A8DEB
:102EA0008B8D9C8D20E030E040E251E40E941F02B7
:102EB000DC01CB01BC01CD010E944900DC01CB014A
:102EC0009C8B8B8B0FC088EC90E09A8B898B8989C7
:102ED0009A890197F1F79A8B898B8B899C89019745
:102EE0009C8B8B8B8B899C89009769F791C06D892E
:102EF0007E898F89988D0E944900DC01CB019C8BD3
:102F00008B8B8B899C89988B8F878F85988901976C
:102F1000F1F7988B8F877CC08F8D882309F078C05C
:102F2000EAE4F0E08D8D9E8D9183808380E090E0D7
:102F3000A0E2B2E48B879C87AD87BE876B857C85DA
:102F40008D859E8520E030E04AEF54E40E941F0208
:102F5000DC01CB018F839887A987BA876F81788539
:102F600089859A8520E030E040E85FE30E942504EF
:102F700088232CF481E090E09E838D833FC06F8195
:102F8000788589859A8520E03FEF4FE757E40E94D6
:102F9000C50318164CF56B857C858D859E8520E0D4
:102FA00030E040E251E40E941F02DC01CB01BC0191
:102FB000CD010E944900DC01CB019E838D830FC0AF
:102FC00088EC90E09C838B838B819C810197F1F747
:102FD0009C838B838D819E8101979E838D838D81C0
:102FE0009E81009769F714C06F81788589859A85DD
:102FF0000E944900DC01CB019E838D838D819E81DF
:103000009A83898389819A810197F1F79A838983C9
:103010006F960FB6F894DEBF0FBECDBFCF91DF9194
:103020000895DF93CF93CDB7DEB70E94E214CF911E
:10303000DF910895DF93CF93CDB7DEB72D970FB60D
:10304000F894DEBF0FBECDBF98878F8369878F81CD
:103050009885CC01A0E0B0E0BC01CD010E94A9049C
:10306000DC01CB01209185013091860140918701DF
:1030700050918801BC01CD010E941F02DC01CB01EF
:10308000BC01CD0120E030E040E251E40E94190390
:10309000DC01CB018B839C83AD83BE831A821982B2
:1030A0008985282F30E03D872C878C859D85813050
:1030B0009105A9F02C853D852230310529F18C85BB
:1030C0009D85009709F03FC06B817C818D819E8139
:1030D0000E944900DC01CB019B878A873CC06B8141
:1030E0007C818D819E8123E333E948E853E40E948B
:1030F000F201DC01CB01BC01CD010E944900DC01E1
:10310000CB019B878A8727C06B817C818D819E81C3
:1031100026E636E646EE5FE30E941F02DC01CB01A5
:10312000BC01CD0120E030E040E052E40E94F20119
:10313000DC01CB01BC01CD010E944900DC01CB01C7
:103140009B878A8708C081E090E09A8389832981E0
:103150003A813B872A878A859B852D960FB6F894FE
:10316000DEBF0FBECDBFCF91DF910895DF93CF9328
:10317000CDB7DEB728970FB6F894DEBF0FBECDBF30
:103180008A836B834C8319828B81883018F48A81FF
:10319000843018F081E0898335C18C81813009F059
:1031A000BAC08A81282F30E038872F838F81988595
:1031B0008130910509F43DC02F81388522303105D9
:1031C0002CF48F819885009771F01CC12F81388570
:1031D0002230310509F453C08F81988583309105E1
:1031E00009F473C00FC1AAE3B0E0EAE3F0E0808124
:1031F000482F8B81282F30E081E090E002C0880FBB
:10320000991F2A95E2F7842B8C93ABE3B0E0EBE3B4
:10321000F0E08081482F8B81282F30E081E090E022
:10322000022E02C0880F991F0A94E2F7842B8C9318
:10323000E9C0A7E3B0E0E7E3F0E08081482F8B81AD
:10324000282F30E081E090E002C0880F991F2A9576
:10325000E2F7842B8C93A8E3B0E0E8E3F0E0808110
:10326000482F8B81282F30E081E090E0022E02C0B1
:10327000880F991F0A94E2F7842B8C93C3C0A4E3B0
:10328000B0E0E4E3F0E08081482F8B81282F30E02C
:1032900081E090E002C0880F991F2A95E2F7842B05
:1032A0008C93A5E3B0E0E5E3F0E08081482F8B81CB
:1032B000282F30E081E090E0022E02C0880F991F95
:1032C0000A94E2F7842B8C939DC0A1E3B0E0E1E384
:1032D000F0E08081482F8B81282F30E081E090E062
:1032E00002C0880F991F2A95E2F7842B8C93A2E3E2
:1032F000B0E0E2E3F0E08081482F8B81282F30E0BE
:1033000081E090E0022E02C0880F991F0A94E2F734
:10331000842B8C9377C08C81882309F073C08A81B9
:10332000282F30E03E832D838D819E818130910551
:1033300059F12D813E81223031052CF48D819E8101
:10334000009769F05FC02D813E812230310589F1FF
:103350008D819E818330910509F440C053C0ABE359
:10336000B0E0EBE3F0E08081482F8B81282F30E044
:1033700081E090E0022E02C0880F991F0A94E2F7C4
:10338000809584238C933EC0A8E3B0E0E8E3F0E0AE
:103390008081482F8B81282F30E081E090E0022E41
:1033A00002C0880F991F0A94E2F7809584238C93BA
:1033B00029C0A5E3B0E0E5E3F0E08081482F8B81F0
:1033C000282F30E081E090E0022E02C0880F991F84
:1033D0000A94E2F7809584238C9314C0A2E3B0E0B2
:1033E000E2E3F0E08081482F8B81282F30E081E0FC
:1033F00090E0022E02C0880F991F0A94E2F7809590
:1034000084238C93898128960FB6F894DEBF0FBE73
:10341000CDBFCF91DF910895DF93CF93CDB7DEB7C6
:103420002F970FB6F894DEBF0FBECDBF8F8783E016
:1034300066E040E00E94541383E065E040E00E94B3
:10344000541382E06F850E94AF1183E064E041E095
:103450000E94541380E090E0A0E0B0E48B879C874A
:10346000AD87BE876B857C858D859E8520E030E0AD
:103470004AEF54E40E941F02DC01CB018F8398873E
:10348000A987BA876F81788589859A8520E030E0A1
:1034900040E85FE30E94250488232CF481E090E05B
:1034A0009E838D833FC06F81788589859A8520E0D2
:1034B0003FEF4FE757E40E94C50318164CF56B85A4
:1034C0007C858D859E8520E030E040E251E40E94BD
:1034D0001F02DC01CB01BC01CD010E944900DC01CF
:1034E000CB019E838D830FC088EC90E09C838B83FF
:1034F0008B819C810197F1F79C838B838D819E81C9
:1035000001979E838D838D819E81009769F714C0FA
:103510006F81788589859A850E944900DC01CB01FD
:103520009E838D838D819E819A83898389819A81EF
:103530000197F1F79A83898383E064E040E00E9479
:1035400054132F960FB6F894DEBF0FBECDBFCF91A8
:10355000DF910895DF93CF93CDB7DEB72F970FB6E6
:10356000F894DEBF0FBECDBF8F8783E066E041E0F9
:103570000E94541383E065E040E00E94541382E00F
:103580006F850E94AF1183E064E041E00E94541314
:1035900080E090E0A0E0B0E48B879C87AD87BE8799
:1035A0006B857C858D859E8520E030E04AEF54E474
:1035B0000E941F02DC01CB018F839887A987BA87FD
:1035C0006F81788589859A8520E030E040E85FE367
:1035D0000E94250488232CF481E090E09E838D8353
:1035E0003FC06F81788589859A8520E03FEF4FE75E
:1035F00057E40E94C50318164CF56B857C858D85B4
:103600009E8520E030E040E251E40E941F02DC0190
:10361000CB01BC01CD010E944900DC01CB019E839E
:103620008D830FC088EC90E09C838B838B819C8181
:103630000197F1F79C838B838D819E8101979E83F7
:103640008D838D819E81009769F714C06F81788585
:1036500089859A850E944900DC01CB019E838D8378
:103660008D819E819A83898389819A810197F1F75F
:103670009A83898383E064E040E00E9454132F968C
:103680000FB6F894DEBF0FBECDBFCF91DF91089586
:10369000DF93CF93CDB7DEB7A6970FB6F894DEBF12
:1036A0000FBECDBF80E090E0A0E2B2E48BA39CA36C
:1036B000ADA3BEA36BA17CA18DA19EA120E030E0B3
:1036C0004AEF54E40E941F02DC01CB018F8F98A3C4
:1036D000A9A3BAA36F8D78A189A19AA120E030E0B7
:1036E00040E85FE30E94250488232CF481E090E009
:1036F0009E8F8D8F3FC06F8D78A189A19AA120E008
:103700003FEF4FE757E40E94C50318164CF56BA135
:103710007CA18DA19EA120E030E040E251E40E9416
:103720001F02DC01CB01BC01CD010E944900DC017C
:10373000CB019E8F8D8F0FC088EC90E09C8F8B8F7C
:103740008B8D9C8D0197F1F79C8F8B8F8D8D9E8D2E
:1037500001979E8F8D8F8D8D9E8D009769F714C078
:103760006F8D78A189A19AA10E944900DC01CB014B
:103770009E8F8D8F8D8D9E8D9A8F898F898D9A8D3D
:103780000197F1F79A8F898F88E30E940C1A80E0E5
:1037900090E0A8E4B2E48D8B9E8BAF8BB88F6D89DF
:1037A0007E898F89988D2BEA3AEA4AE250E40E949A
:1037B0001F02DC01CB01898B9A8BAB8BBC8B698997
:1037C0007A898B899C8920E030E040E85FE30E94A1
:1037D000250488231CF481E0888B91C069897A894B
:1037E0008B899C8920E030E04FE753E40E94C503B9
:1037F00018160CF07BC06D897E898F89988D20E02A
:1038000030E04AE754E40E941903DC01CB018C87C5
:103810009D87AE87BF876C857D858E859F8520E0DF
:1038200030E04AEF54E40E941F02DC01CB0188879C
:103830009987AA87BB87688579858A859B8520E0DB
:1038400030E040E85FE30E94250488232CF481E007
:1038500090E09F838E833FC0688579858A859B85AC
:1038600020E03FEF4FE757E40E94C50318164CF5E0
:103870006C857D858E859F8520E030E040E251E4B7
:103880000E941F02DC01CB01BC01CD010E94490056
:10389000DC01CB019F838E830FC088EC90E09D8379
:1038A0008C838C819D810197F1F79D838C838E8120
:1038B0009F8101979F838E838E819F81009769F7F7
:1038C00024C0688579858A859B850E944900DC0132
:1038D000CB019F838E838E819F819B838A838A8184
:1038E0009B810197F1F79B838A830FC069897A894D
:1038F0008B899C890E944900DC01CB01888B8889D7
:10390000898389818A95F1F789838CE00E940C1A5A
:1039100081E00E940C1AA6960FB6F894DEBF0FBE87
:10392000CDBFCF91DF910895DF93CF9300D00F9259
:10393000CDB7DEB78A836B8381E08093AB018A8148
:103940008093A9018B818093AA018A81882319F42D
:103950008B81898306C08A81813019F48B81805CD8
:103960008983898180680E940C1A0F900F900F90B4
:10397000CF91DF910895DF93CF93CDB7DEB781E08C
:103980008093A80181E00E940C1ACF91DF910895E5
:10399000DF93CF93CDB7DEB78EE00E940C1ACF91A4
:1039A000DF910895DF93CF93CDB7DEB78CE00E940F
:1039B0000C1ACF91DF910895DF93CF93CDB7DEB787
:1039C0008FE00E940C1ACF91DF910895DF93CF937F
:1039D000CDB7DEB78CE00E940C1ACF91DF9108952D
:1039E000DF93CF93CDB7DEB788E00E940C1ACF915A
:1039F000DF910895DF93CF9300D000D0CDB7DEB72D
:103A00008A836B834C8319828C8189830BC0998153
:103A10008B81692F0E94941C80E20E94AA1A8981DE
:103A2000815089838981482F552747FD50958C8186
:103A3000282F30E08A81882F90E0B901681B790B2C
:103A4000CB01841795071CF30F900F900F900F90E8
:103A5000CF91DF910895DF93CF9300D000D0CDB701
:103A6000DEB78A836B834C8319828C8189830AC079
:103A70008B8169810E94941C80E20E94AA1A89812C
:103A80008F5F89838981482F50E08C81282F30E017
:103A90008A81882F90E0820F931F4817590744F3BB
:103AA0000F900F900F900F90CF91DF910895DF93BB
:103AB000CF93CDB7DEB768970FB6F894DEBF0FBED1
:103AC000CDBF988F8F8B8F89988D9E838D831C821D
:103AD0000DC08C818F5F8C838D819E812AE030E0C8
:103AE000B9010E94E61ECB019E838D838D819E814C
:103AF000009779F78F89988D9E838D831B821EC0D6
:103B00008B81E82FF0E08D819E812AE030E0B901C1
:103B10000E94E61E282F205DCE010796E80FF91FB0
:103B200020838D819E812AE030E0B9010E94E61E4B
:103B3000CB019E838D838B818F5F8B839B818C8157
:103B40009817F0F28C81882F90E001979A838983EF
:103B50000FC029813A81CE010796FC01E20FF31FC5
:103B600080810E94AA1A89819A8101979A83898308
:103B700089819A8199236CF768960FB6F894DEBF15
:103B80000FBECDBFCF91DF910895DF93CF9300D0CB
:103B90000F92CDB7DEB79B838A8319820EC08981CD
:103BA000282F30E08A819B81FC01E20FF31F808186
:103BB0000E94AA1A89818F5F89838981282F30E02A
:103BC0008A819B81FC01E20FF31F8081882339F7F2
:103BD0000F900F900F90CF91DF910895DF93CF93C7
:103BE000CDB7DEB727970FB6F894DEBF0FBECDBFB7
:103BF0009C838B836D834E832F838D81882F90E0F0
:103C0000880F991F880F991F880F991F8A8319821F
:103C10008A8180640E940C1A19820EC08981282F23
:103C200030E08B819C81FC01E20FF31F80810E94B8
:103C3000AA1A89818F5F89838981883078F38E8180
:103C40006F810E94941C8D810E94AA1A27960FB63C
:103C5000F894DEBF0FBECDBFCF91DF910895DF9303
:103C6000CF9300D000D0CDB7DEB78FEF8B831A8211
:103C700019821A825AC08A81882F90E0FC01E35988
:103C8000FE4F908183E0692F40E00E945413198217
:103C90003AC08981882F90E0FC01E759FE4F90815E
:103CA0009E012C5F3F4F83E0692FA9010E945914A8
:103CB0008C81882311F58981482F50E08A81282F33
:103CC00030E0CA01880F991F880F991F820F931F38
:103CD000FC01EF58FE4F80818B830FC08981882FB4
:103CE00090E0FC01E759FE4F90819E012C5F3F4F11
:103CF00083E0692FA9010E9459148C81882371F3F4
:103D000089818F5F89838981843018F28A81882F25
:103D100090E0FC01E359FE4F908183E0692F41E080
:103D20000E9454138A818F5F8A838A81843008F4C9
:103D3000A2CF8B810F900F900F900F90CF91DF91BA
:103D40000895DF93CF93CDB7DEB780E067E040E022
:103D50000E94541380E064E041E00E945413CF912C
:103D6000DF910895DF93CF93CDB7DEB780E064E0B5
:103D700040E00E94541380E067E041E00E94541349
:103D8000CF91DF910895DF93CF93CDB7DEB780E079
:103D900064E040E00E94541380E067E040E00E944D
:103DA0005413CF91DF910895DF93CF930F92CDB746
:103DB000DEB70E94450F0E94481B0E9417070E9411
:103DC0002B08898389810E94AA1AF9CFAA1BBB1BE1
:103DD00051E107C0AA1FBB1FA617B70710F0A61B0B
:103DE000B70B881F991F5A95A9F780959095BC012C
:103DF000CD01089597FB092E07260AD077FD04D040
:103E0000E5DF06D000201AF4709561957F4F089584
:103E1000F6F7909581959F4F08952F923F924F927C
:103E20005F926F927F928F929F92AF92BF92CF924A
:103E3000DF92EF92FF920F931F93CF93DF93CDB753
:103E4000DEB7CA1BDB0B0FB6F894DEBF0FBECDBFCB
:103E500009942A88398848885F846E847D848C849C
:103E60009B84AA84B984C884DF80EE80FD800C81A5
:103E70001B81AA81B981CE0FD11D0FB6F894DEBF88
:103E80000FBECDBFED010895FC0101900020E9F7C0
:0E3E9000809590958E0F9F1F0895F894FFCF98
:103E9E000000000000000000000102020303030303
:103EAE0004040404040404040505050505050505BC
:103EBE00050505050505050506060606060606069C
:103ECE000606060606060606060606060606060684
:103EDE00060606060606060607070707070707076C
:103EEE000707070707070707070707070707070754
:103EFE000707070707070707070707070707070744
:103F0E000707070707070707070707070707070733
:103F1E00070707070707070708080808080808081B
:103F2E000808080808080808080808080808080803
:103F3E0008080808080808080808080808080808F3
:103F4E0008080808080808080808080808080808E3
:103F5E0008080808080808080808080808080808D3
:103F6E0008080808080808080808080808080808C3
:103F7E0008080808080808080808080808080808B3
:103F8E0008080808080808080808080808080808A3
:103F9E0008080808080808080104050607000102B9
:103FAE000331323334353637383969643072303054
:0A3FBE003000409C4000409C400091
:00000001FF
