:100000000C942A000C943F000C943F000C943F0089
:100010000C943F000C943F000C943F000C943F0064
:100020000C943F000C943F000C943F000C943F0054
:100030000C943F000C943F000C943F000C943F0044
:100040000C943F000C943F000C943F000C943F0034
:100050000C943F0011241FBECFE5D8E0DEBFCDBF1A
:1000600010E0A0E6B0E0E6EBF6E002C005900D92ED
:10007000AA36B107D9F70E9494010C9459030C9445
:100080000000843010F081E00895813049F0813023
:1000900028F0823039F0833031F407C06ABB03C0E6
:1000A00067BB01C064BB80E0089561BB80E0089538
:1000B000843010F081E00895813049F0813028F0DB
:1000C000823039F0833031F407C06BBB03C068BBAA
:1000D00001C065BB80E0089562BB80E00895FB012C
:1000E000843010F081E00895813049F0813028F0AB
:1000F000823039F0833039F408C089B303C086B345
:1001000001C083B3808380E0089580B3808380E062
:1001100008954130B1F5813099F0813030F082306E
:10012000D1F0833009F06BC021C02AB381E090E0A8
:1001300002C0880F991F6A95E2F7282B2ABB5DC081
:1001400027B381E090E002C0880F991F6A95E2F71B
:10015000282B27BB52C024B381E090E002C0880F57
:10016000991F6A95E2F7282B24BB47C021B381E091
:1001700090E002C0880F991F6A95E2F7282B21BBF7
:100180003CC0442311F081E00895813099F0813022
:1001900028F08230D9F0833091F524C02AB381E071
:1001A00090E002C0880F991F6A95E2F7809582233C
:1001B0008ABB23C027B381E090E002C0880F991F5B
:1001C0006A95E2F78095822387BB17C024B381E04C
:1001D00090E002C0880F991F6A95E2F7809582230C
:1001E00084BB0BC021B381E090E002C0880F991F4F
:1001F0006A95E2F78095822381BB80E0089580E0D4
:1002000008954130B1F5813099F0813030F082307D
:10021000D1F0833009F06BC021C02BB381E090E0B6
:1002200002C0880F991F6A95E2F7282B2BBB5DC08F
:1002300028B381E090E002C0880F991F6A95E2F729
:10024000282B28BB52C025B381E090E002C0880F64
:10025000991F6A95E2F7282B25BB47C022B381E09E
:1002600090E002C0880F991F6A95E2F7282B22BB05
:100270003CC0442311F081E00895813099F0813031
:1002800028F08230D9F0833091F524C02BB381E07F
:1002900090E002C0880F991F6A95E2F7809582234B
:1002A0008BBB23C028B381E090E002C0880F991F68
:1002B0006A95E2F78095822388BB17C025B381E059
:1002C00090E002C0880F991F6A95E2F7809582231B
:1002D00085BB0BC022B381E090E002C0880F991F5C
:1002E0006A95E2F78095822382BB80E0089580E0E2
:1002F0000895FA01813049F0813028F0823039F0D8
:10030000833081F406C089B305C086B303C083B3CC
:1003100001C080B390E002C0959587956A95E2F799
:100320008170808380E008952F923F924F925F9278
:100330006F927F929F92AF92BF92CF92DF92EF9295
:10034000FF920F931F93DF93CF93CDB7DEB72C9718
:100350000FB6F894DEBF0FBECDBF0E944F03909A38
:10036000919ADE011196E0E6F0E08AE001900D92AC
:100370008150E1F7AA245AE0B52E40E2442E4EE423
:10038000542E38EC632E712C21E0222E312CCE011C
:100390000B969C878B8729C0A394BA9410E0C20166
:1003A0000197F1F79098919AFE01EA0DF11D82E014
:1003B00060810E9458009AE0A91609F4AA24C2019B
:1003C0000197F1F79198909AE1E0F0E0EC0FFD1FB2
:1003D000EB0DF11D82E060810E945800BB2011F4FA
:1003E0009AE0B92E1F5F1E31D1F6C89B0CC089B3AD
:1003F000869580FF08C089B382958695877080FFB7
:1004000002C0CA9BC9CFC89B1BC0CA9919C0CD9B4B
:1004100017C0C99915C0A3949098919AFE01EA0D4E
:10042000F11D82E060810E94580088E893E1F301A9
:100430003197F1F70197D9F7EAE0AE1609F4AA244B
:10044000C99B1FC0CA991DC0CD9B1BC0C89919C0AC
:10045000C09ABA949198909AE1E0F0E0EC0FFD1FF9
:10046000EB0DF11D82E060810E94580088E893E165
:10047000F3013197F1F70197D9F7BB2011F48AE026
:10048000B82ECA990EC089B38695869580FF02C0A2
:10049000C89907C089B38695869580FF3BC0C99BE4
:1004A00039C0CD9B37C06E010894C11CD11C2CC033
:1004B0009198909A82E0692D0E945800C20101979C
:1004C000F1F79098919A82E0F80160810E945800BB
:1004D000C2010197F1F70894E11CF11CFEE1EF164F
:1004E000F10431F70F5F1F4F8B859C8580179107B3
:1004F00019F0EE24FF24DCCF0894C11CD11CEB853D
:10050000FC85EC15FD0531F0F60190808E010F5F42
:100510001F4FEFCFCB9B47C0CC9945C0CD9914C09E
:1005200042C01F5FB101012E02C0660F771F0A94FF
:10053000E2F781E00E94580080ED97E0F3013197E7
:10054000F1F70197D9F703C01FEFEE24FF2419300C
:1005500041F780ED97E0F3013197F1F70197D9F773
:100560001150B101012E02C0660F771F0A94E2F705
:1005700081E00E94580080ED97E0F3013197F1F798
:100580000197D9F7112361F70894E11CF11CF2E0FF
:10059000EF16F10409F0C5CF88EE93E0F30131972F
:1005A000F1F70197D9F7CC9908C089B3869586955C
:1005B000869580FF1ACFCC9B18CFCD9929C015CF37
:1005C000F394C1010F2C02C0880F991F0A94E2F71F
:1005D000982E80E890E00F2C02C0959587950A949C
:1005E000E2F7E82E00E010E081E0692D0E9458005B
:1005F000C2010197F1F781E06E2D0E945800C201FF
:100600000197F1F70F5F1F4F0E31110569F704C015
:10061000FF24FA94CC24DD2484E0F81689F688EED1
:1006200093E0F3013197F1F70197D9F7FA94C101FB
:100630000F2C02C0880F991F0A94E2F7982E80E8C9
:1006400090E00F2C02C0959587950A94E2F7E82E6A
:1006500000E010E081E0692D0E945800C20101977E
:10066000F1F781E06E2D0E945800C2010197F1F769
:100670000F5F1F4F0E31110569F7FF20B9F608947F
:10068000C11CD11C92E0C916D10409F099CF88EEA3
:1006900093E0F3013197F1F70197D9F7A6CE1ABA93
:1006A0008FEF87BB84BB81BB1BBA18BA15BA12BACD
:0606B0000895F894FFCF4D
:0A06B6003F065B4F666D7D07FF6F86
:00000001FF
