:100000000C942A000C9447000C9447000C94470071
:100010000C9447000C9447000C9447000C94E20C9D
:100020000C9447000C9447000C9447000C94470034
:100030000C9447000C9447000C9447000C94470024
:100040000C9447000C9447000C9447000C94470014
:100050000C94470011241FBECFE5D8E0DEBFCDBF12
:1000600011E0A0E6B0E0EAEEF9E202C005900D92E0
:10007000A438B107D9F714E0A4E8B1E001C01D929B
:10008000AF37B107E1F70E94CF0B0C94F3140C9437
:100090000000EF92FF920F931F937B018C0120E0F1
:1000A00030E040E05FE40E94190388238CF0C8012F
:1000B000B70120E030E040E05FE40E94C1010E940F
:1000C00049039B01AC01205030404040504806C0DD
:1000D000C801B7010E9449039B01AC01B901CA01E3
:1000E0001F910F91FF90EF900895A0E0B0E0EBE733
:1000F000F0E00C949D14DC012B01FA019C919230EC
:1001000008F439C1EB018881823008F433C194309E
:1001100069F4843009F02FC111969C91119789815F
:10012000981709F428C1A9E7B0E025C1843009F483
:1001300021C18230A9F4923009F01DC19A01AD01AC
:1001400088E0EA010990AE01E90109929E0181501F
:10015000C1F7E201898111969C918923818308C1AD
:10016000923009F407C112962D903C901397EB0141
:100170008A819B811496AD90BD90CD90DC901797AD
:10018000EC80FD800E811F819101281B390BB90184
:1001900037FF04C066277727621B730B6032710537
:1001A0000CF061C0121613066CF537014801062EDB
:1001B00004C096948794779467940A94D2F721E0C8
:1001C00030E040E050E004C0220F331F441F551FB1
:1001D0006A95D2F721503040404050402E213F21B7
:1001E00040235123211531054105510521F021E01E
:1001F00030E040E050E079018A01E628F72808293C
:1002000019293CC0232BD1F1260E371E350146019A
:10021000062E04C096948794779467940A94D2F734
:1002200021E030E040E050E004C0220F331F441FC3
:10023000551F6A95D2F721503040404050402A2146
:100240003B214C215D21211531054105510521F04E
:1002500021E030E040E050E059016A01A628B728CB
:10026000C828D9280BC0821593052CF01C01AA249C
:10027000BB24650103C0EE24FF24870111969C91E5
:10028000D20111968C91981709F445C0992339F041
:10029000A80197012A193B094C095D0906C0A6016E
:1002A00095012E193F09400B510B57FD08C01182D3
:1002B0003382228224833583468357831DC081E0A5
:1002C00081833382228288279927DC01821B930B4A
:1002D000A40BB50B84839583A683B7830DC0220F2F
:1002E000331F441F551F24833583468357838281E0
:1002F000938101979383828324813581468157813D
:10030000DA01C9010197A109B1098F5F9F4FAF4F72
:10031000BF4328F30BC0918333822282EA0CFB1C7B
:100320000C1D1D1DE482F5820683178383E0808304
:10033000248135814681578157FF1AC0C901AA27F8
:1003400097FDA095BA2F81709070A070B0705695EF
:10035000479537952795822B932BA42BB52B848318
:100360009583A683B7838281938101969383828349
:10037000DF0101C0D201CD01CDB7DEB7E2E10C94BF
:10038000B914A0E2B0E0E7ECF1E00C94A9146983A1
:100390007A838B839C832D833E834F835887E9E048
:1003A000EE2EF12CEC0EFD1ECE010196B7010E943F
:1003B0003A058E010F5E1F4FCE010596B8010E94CF
:1003C0003A058A8991E089278A8BC701B801AE0175
:1003D000475E5F4F0E9475000E946504A096E6E0AC
:1003E0000C94C514A0E2B0E0E8EFF1E00C94A9147D
:1003F00069837A838B839C832D833E834F835887C5
:10040000F9E0EF2EF12CEC0EFD1ECE010196B701A6
:100410000E943A058E010F5E1F4FCE010596B8016E
:100420000E943A05C701B801AE01475E5F4F0E94C6
:1004300075000E946504A096E6E00C94C514A0E245
:10044000B0E0E5E2F2E00C949D1469837A838B833B
:100450009C832D833E834F835887CE010196BE0136
:10046000675F7F4F0E943A05CE010596BE016F5E21
:100470007F4F0E943A059985923088F089898230B1
:10048000C8F0943019F4823051F404C0843029F457
:10049000923081F489E790E0C6C0923049F420E0C0
:1004A0009A858A89981321E02A87CE010996BBC0D4
:1004B000823049F420E09A858A89981321E02A8BBA
:1004C000CE014196B0C02D843E844F8458886D88FB
:1004D0007E888F88988CEE24FF248701AA24BB2471
:1004E000650140E050E060E070E0E0E0F0E0C10174
:1004F00081709070892BE9F0E60CF71C081D191D1E
:100500009A01AB012A0D3B1D4C1D5D1D80E090E062
:10051000A0E0B0E0E614F7040805190520F481E036
:1005200090E0A0E0B0E0BA01A901480F591F6A1F8E
:100530007B1FAA0CBB1CCC1CDD1C97FE08C081E0F5
:1005400090E0A0E0B0E0A82AB92ACA2ADB2A3196B6
:10055000E032F10549F0660C771C881C991C569412
:10056000479437942794C3CFFA85EA892B893C892D
:100570008B859C85280F391F2E5F3F4F17C0CA01FE
:1005800081709070892B61F016950795F794E79428
:1005900080E090E0A0E0B0E8E82AF92A0A2B1B2BC3
:1005A00076956795579547952F5F3F4F77FDE7CF36
:1005B0000CC0440F551F661F771F17FD4160EE0CDE
:1005C000FF1C001F111F21503040403090E05907A0
:1005D00090E0690790E4790760F32B8F3C8FDB0193
:1005E000CA018F779070A070B07080349105A1051A
:1005F000B10561F447FD0AC0E114F10401051105DC
:1006000029F0405C5F4F6F4F7F4F40781A8EFE1786
:1006100011F081E08A8F4D8F5E8F6F8F78A383E01A
:10062000898FCE0149960E946504A096E2E10C9460
:10063000B914A8E1B0E0EFE1F3E00C94A9146983E8
:100640007A838B839C832D833E834F83588789E0F5
:10065000E82EF12CEC0EFD1ECE010196B7010E9492
:100660003A058E010F5E1F4FCE010596B8010E941C
:100670003A058985823040F08989823028F0C701A7
:10068000B8010E94B20501C08FEF6896E6E00C94B5
:10069000C514ACE0B0E0EFE4F3E00C94AD14698372
:1006A0007A838B839C83CE010196BE016B5F7F4F63
:1006B0000E943A058D81823061F1823050F18430A0
:1006C00021F48E81882351F12EC02F81388537FD8A
:1006D00020C06E812F3131051CF06623F9F023C054
:1006E0008EE190E0821B930B29853A854B855C85D2
:1006F00004C056954795379527958A95D2F7662376
:10070000B1F050954095309521953F4F4F4F5F4F39
:100710000EC020E030E040E050E009C02FEF3FEF96
:100720004FEF5FE704C020E030E040E050E8B9015F
:10073000CA012C96E2E00C94C914A8E0B0E0E3EA08
:10074000F3E00C94A5147B018C0161157105810502
:10075000910519F482E0898360C083E089838EE18A
:10076000C82ED12CDC82CB82ED82FE820F831887CB
:10077000C801B7010E941604FC013197F7FF3BC086
:10078000222733272E1B3F0B57016801022E04C07E
:10079000D694C794B794A7940A94D2F740E050E057
:1007A00060E070E081E090E0A0E0B0E004C0880F7D
:1007B000991FAA1FBB1F2A95D2F70197A109B1095A
:1007C0008E219F21A023B1230097A105B10521F01F
:1007D00041E050E060E070E04A295B296C297D2906
:1007E0004D835E836F8378878EE190E08E1B9F0B35
:1007F0009C838B8312C0309781F00E2E04C0EE0CC8
:10080000FF1C001F111F0A94D2F7ED82FE820F8396
:100810001887CE1ADF0ADC82CB821A82CE010196BB
:100820000E9465042896EAE00C94C114EF92FF92AE
:100830000F931F937B018C0180E0E81680E0F8069F
:1008400081E0080780E0180788F48FEFE816F104CC
:100850000105110531F028F088E090E0A0E0B0E05B
:1008600017C080E090E0A0E0B0E012C080E0E816A1
:1008700080E0F80680E0080781E0180728F088E1AA
:1008800090E0A0E0B0E004C080E190E0A0E0B0E043
:1008900020E230E040E050E0281B390B4A0B5B0BB4
:1008A00004C016950795F794E7948A95D2F7F70157
:1008B000EF57FF4F8081281B310941095109C901B8
:1008C0001F910F91FF90EF900895DF92EF92FF92AA
:1008D0000F931F93FC01E480F58006811781D1807E
:1008E0008081823048F480E090E0A0E1B0E0E82A26
:1008F000F92A0A2B1B2BA5C0843009F49FC0823033
:1009000021F4EE24FF24870105C0E114F104010560
:10091000110519F4E0E0F0E096C0628173819FEF69
:10092000623879070CF05BC022E83FEF261B370BDB
:100930002A3131052CF020E030E040E050E02AC0C0
:10094000B801A701022E04C0769567955795479583
:100950000A94D2F781E090E0A0E0B0E004C0880FF4
:10096000991FAA1FBB1F2A95D2F70197A109B109A8
:100970008E219F21A023B1230097A105B10521F06D
:1009800081E090E0A0E0B0E09A01AB01282B392B88
:100990004A2B5B2BDA01C9018F779070A070B07081
:1009A00080349105A105B10539F427FF09C0205C09
:1009B0003F4F4F4F5F4F04C0215C3F4F4F4F5F4F42
:1009C000E0E0F0E02030A0E03A07A0E04A07A0E431
:1009D0005A0710F0E1E0F0E079018A0127C06038A1
:1009E000710564F5FB01E158FF4FD801C7018F770E
:1009F0009070A070B07080349105A105B10539F4F4
:100A0000E7FE0DC080E490E0A0E0B0E004C08FE31A
:100A100090E0A0E0B0E0E80EF91E0A1F1B1F17FFD0
:100A200005C016950795F794E794319687E01695DB
:100A30000795F794E7948A95D1F705C0EE24FF2433
:100A40008701EFEFF0E06E2F679566276795902F8F
:100A50009F77D794DD24D7948E2F8695492F462BE8
:100A6000582F5D29B701CA011F910F91FF90EF9098
:100A7000DF900895FC01DB01408151812281622FCA
:100A80006F7770E0221F2227221F9381892F880F02
:100A9000822B282F30E0991F9927991F11969C933C
:100AA000119721153105A9F541155105610571050C
:100AB00011F482E037C082E89FEF13969C938E93E7
:100AC00012979A01AB0167E0220F331F441F551F95
:100AD0006A95D1F783E08C930DC0220F331F441F1A
:100AE000551F12968D919C911397019713969C9385
:100AF0008E931297203080E0380780E0480780E42A
:100B0000580758F314962D933D934D935C93179784
:100B100008952F3F310579F441155105610571059F
:100B200019F484E08C93089564FF03C081E08C93F2
:100B300012C01C9210C02F57304013963C932E9336
:100B4000129783E08C9387E0440F551F661F771F31
:100B50008A95D1F7706414964D935D936D937C9351
:100B6000179708951F93DC01FB019C91923008F4C4
:100B700047C08081823008F443C0943051F411960C
:100B80001C91843099F58181682F70E0611B710997
:100B90003FC0843021F0923031F48230B9F181814C
:100BA000882389F12DC011961C9111978230F1F0A4
:100BB00081811817D9F412962D913C911397828157
:100BC00093818217930794F028173907BCF0149685
:100BD0008D919D910D90BC91A02D248135814681F0
:100BE0005781281739074A075B0718F4112341F08A
:100BF0000AC082179307A407B50740F4112319F020
:100C000061E070E005C06FEF7FEF02C060E070E070
:100C1000CB011F91089580EF8ABB17BA8FEF84BB79
:100C200081BB8BBB18BA15BA12BA0895843010F084
:100C300081E00895813049F0813028F0823039F028
:100C4000833031F407C06ABB03C067BB01C064BB1B
:100C500080E0089561BB80E00895843010F081E069
:100C60000895813049F0813028F0823039F08330A6
:100C700031F407C06BBB03C068BB01C065BB80E03B
:100C8000089562BB80E00895FB01843010F081E09C
:100C90000895813049F0813028F0823039F0833076
:100CA00039F408C089B303C086B301C083B380831D
:100CB00080E0089580B3808380E008954130B1F5ED
:100CC000813099F0813030F08230D1F0833009F0FA
:100CD0006BC021C02AB381E090E002C0880F991F49
:100CE0006A95E2F7282B2ABB5DC027B381E090E02C
:100CF00002C0880F991F6A95E2F7282B27BB52C0C4
:100D000024B381E090E002C0880F991F6A95E2F752
:100D1000282B24BB47C021B381E090E002C0880F9C
:100D2000991F6A95E2F7282B21BB3CC0442311F0A0
:100D300081E00895813099F0813028F08230D9F037
:100D4000833091F524C02AB381E090E002C0880F7F
:100D5000991F6A95E2F7809582238ABB23C027B347
:100D600081E090E002C0880F991F6A95E2F78095B4
:100D7000822387BB17C024B381E090E002C0880FB4
:100D8000991F6A95E2F78095822384BB0BC021B33B
:100D900081E090E002C0880F991F6A95E2F7809584
:100DA000822381BB80E0089580E008954130B1F551
:100DB000813099F0813030F08230D1F0833009F009
:100DC0006BC021C02BB381E090E002C0880F991F57
:100DD0006A95E2F7282B2BBB5DC028B381E090E039
:100DE00002C0880F991F6A95E2F7282B28BB52C0D2
:100DF00025B381E090E002C0880F991F6A95E2F761
:100E0000282B25BB47C022B381E090E002C0880FA9
:100E1000991F6A95E2F7282B22BB3CC0442311F0AE
:100E200081E00895813099F0813028F08230D9F046
:100E3000833091F524C02BB381E090E002C0880F8D
:100E4000991F6A95E2F7809582238BBB23C028B354
:100E500081E090E002C0880F991F6A95E2F78095C3
:100E6000822388BB17C025B381E090E002C0880FC1
:100E7000991F6A95E2F78095822385BB0BC022B348
:100E800081E090E002C0880F991F6A95E2F7809593
:100E9000822382BB80E0089580E00895FA018130CA
:100EA00049F0813028F0823039F0833081F406C077
:100EB00089B305C086B303C083B301C080B390E09B
:100EC00002C0959587956A95E2F78170808380E0EE
:100ED00008951F93182F83E060E040E00E94D6063B
:100EE00083E061E040E00E94D60682E0612F0E942C
:100EF0002D0683E062E041E00E94D60680EA9FE092
:100F00000197F1F783E062E040E00E94D6061F916E
:100F1000089588E00E94690708958CE00E9469079F
:100F200008958FE00E94690708958CE00E94690788
:100F300008958EE00E946907089581E080938401FE
:100F40000E9469070895882319F0813009F4605CD4
:100F5000862F80680E946907089580E991E028EC57
:100F600030E0F9013197F1F70197D9F788E30E9452
:100F7000690785E88A95F1F78CE00E94690781E0AE
:100F80000E94690708951F93182F809185018F5F34
:100F90008093850180918401813021F41092850134
:100FA0001092840180918501803121F481E060E01C
:100FB0000E94A30783E060E041E00E94D60683E040
:100FC00061E040E00E94D60682E0612F0E942D067B
:100FD00083E062E041E00E94D60680EA9FE001974C
:100FE000F1F783E062E040E00E94D6061F91089589
:100FF000DF92EF92FF920F931F93CF93DF938C01B9
:10100000F62EE42ED22E862F880F880F880F80644C
:101010000E946907C0E0D0E0F801EC0FFD1F80815D
:101020000E94C3072196C830D105B1F78E2D6D2DD2
:101030000E94A3078F2D0E94C307DF91CF911F91BC
:101040000F91FF90EF90DF9008951F93CF93DF9360
:10105000EC0110E003C00E94C3071F5FFE01E10F17
:10106000F11D80818823B9F7DF91CF911F910895F9
:101070000F931F93DF93CF93CDB7DEB760970FB673
:10108000F894DEBF0FBECDBFFC019C0140E007C05D
:101090004F5FC9016AE070E00E9489149B0121152D
:1010A0003105B1F78E010F5F1F4F3E2F2F2FF80133
:1010B00010C0832F922F6AE070E00E948914805D37
:1010C0008193832F922F6AE070E00E948914362F5B
:1010D000272F8E2F801B841760F38E010F5F1F4F09
:1010E000040F111D04C0F80180810E94C307015044
:1010F00010400C171D07B9F760960FB6F894DEBFC5
:101100000FBECDBFCF91DF911F910F910895AF9288
:10111000BF92CF92DF92EF92FF920F931F935B01EA
:101120006C010E944900DC01CB017C010E9438085F
:101130008EE20E94C30700E010E0C801B7010E94E0
:101140009D039B01AC01C601B5010E94C10120E0D5
:1011500030E543EC57E40E941F020E944900DC0185
:10116000CB010E9438081F910F91FF90EF90DF9004
:10117000CF90BF90AF9008950F931F93CF93DF93BD
:10118000062F142FC82FD0E0C40FD11D08C0802F08
:10119000612F0E94A30780E20E94C3071F5F812F77
:1011A00090E08C179D079CF3DF91CF911F910F91D9
:1011B0000895CF92DF92EF92FF920F931F93CF93F8
:1011C000DF93E62EF42EC0E0D0E0C42EDD24C7FC71
:1011D000D094042F10E0081B110909C06F2D6C1B5F
:1011E0008E2D0E94A30780E20E94C3072196C601AC
:1011F0008C1B9D0B081719078CF3DF91CF911F9162
:101200000F91FF90EF90DF90CF900895EF92FF92B3
:101210000F931F93FC010580F681E02DE680F78097
:101220008701045F1F4FC8010E946D0B87EB91E09F
:10123000B8010E940F0B20E0E0918601F091870138
:10124000D70156969C918689981708F021E0822F45
:101250001F910F91FF90EF900895FF920F931F93AE
:10126000CF93DF9399E0F92E21C0F894E091BC016F
:10127000F091BD0106811781C8010C960E946D0B8B
:101280007894E8012296CE010E946D0BF8019689B0
:1012900080918801891710F4909388019F9DC00167
:1012A000112481579E4FBE010E940F0B8091B70100
:1012B0008823D9F60E9425102091890130918A0156
:1012C000821B930B90938C0180938B0189E0F82E05
:1012D00053C0019690938E0180938D012150304030
:1012E00030938C0120938B01892B09F03EC0209113
:1012F000B3013091B4018091B5019091B601909302
:10130000B4018093B3013093B6012093B5012DC091
:101310000580F681E02DC681D78120918D01309125
:101320008E018A819B812817390730F1F8948E014C
:101330000E5F1F4FC8010E946D0B8C899D89892B00
:1013400021F0CE010C960E946D0B78949E898091BD
:101350008801891710F4909388019F9DC001112482
:1013600081579E4FB8010E940F0BE091B301F0919D
:10137000B4018081882361F620918B0130918C012A
:1013800080918D0190918E012115310509F0A1CF39
:1013900090938A01809389019091880129E006C089
:1013A000992319F41092880132C09150929FD00174
:1013B0001124A157BE4F8C91882391F390938801FB
:1013C0001196ED91FC9112970280F381E02D129617
:1013D000FC93EE931197CD010396E817F90731F4CA
:1013E0008281938112969C938E9311971196ED9121
:1013F000FC9112970680F781E02DF0938701E0932E
:10140000860120813181CF016789F9010995DF913A
:10141000CF911F910F91FF9008950F931F93CF933A
:10142000DF93EB0100918D0110918E01080F191FC0
:10143000809186019091870102960E946D0BE09148
:101440008601F09187011383028380918D01909131
:101450008E01BF016E5F7F4F0817190728F4809136
:10146000B5019091B60104C08091B3019091B4018F
:101470000E94380B209749F0609186017091870196
:10148000645F7F4FCE010E94380BDF91CF911F9197
:101490000F910895AF92BF92CF92DF92EF92FF9299
:1014A0000F931F93CF93DF936C01B62EA42E8AE186
:1014B00090E00E94D40AEC01009711F48FEF59C01C
:1014C0008091860190918701892B21F5D093870126
:1014D000C09386018FE891E00E94FB0A88E991E0C1
:1014E0000E94FB0A21EAE22E21E0F22EC7010E94AF
:1014F000FB0A0AEA11E0C8010E94FB0A87EB91E0AF
:101500000E94FB0AF092B401E092B3011093B6017D
:101510000093B501EB2CBB2011F0EE24E394198E5F
:10152000188EEE8AAF8AFE01C192D1928F01CF014F
:101530000E940B0BCE010C960E940B0BD987C8871B
:10154000DB8BCA8B85E090E08E1991099D878C8793
:101550009E8980918801891710F49093880189E011
:10156000989FC001112481579E4FB8010E940F0B14
:1015700081E0DF91CF911F910F91FF90EF90DF906D
:10158000CF90BF90AF90089508951092C10110922E
:10159000C001089528E532E08091C0019091C10119
:1015A000281B390BC90108950F931F93CF93DF9325
:1015B0008C010E941F108091C0019091C10198017F
:1015C000280F391F42E02835340758F48217930753
:1015D00040F4EC01CE53DE4F3093C1012093C001A3
:1015E00002C0C0E0D0E00E94FB11CE01DF91CF919C
:1015F0001F910F910895FC019C012D5F3F4F328395
:1016000021838FEF9FEF94838383368325833087F5
:10161000278310820895FC01118610860895CF93C8
:10162000DF93AC01DB01EC0129813A81F901828170
:10163000938113969C938E93129789819A81159624
:101640009C938E9314970280F381E02D75836483BD
:10165000E9017B836A83FA017283618319965C9343
:101660004E93189780818F5F8083DF91CF9108958B
:10167000CF93DF939C01EB01488159818FEF4F3F5E
:10168000580721F4F901A781B08510C0D90113963C
:1016900004C012960D90BC91A02D1296ED91FC9174
:1016A0001397808191814817590798F71296ED9109
:1016B000FC911397FB83EA83D583C483BD83AC83FA
:1016C0001396DC93CE93129739872887F90180818E
:1016D0008F5F8083DF91CF910895CF93DF93DC01FB
:1016E0001296ED91FC91139714968D919C911597FC
:1016F000958384831496CD91DC911597FB83EA83BF
:101700001896ED91FC911997818192818A179B0718
:1017100011F4D283C18319961C921E92189780816E
:1017200081508083DF91CF91089580917D049091C5
:101730007E0460E070E044E650E020E00E94500E3D
:10174000813079F480E690E00E94250880917D0444
:1017500090917E0460E070E040E050E020E00E9464
:101760001C0FFFCF80917D0490917E0460E070E0BB
:1017700044E650E020E00E94500E813079F485E686
:1017800090E00E94250880917D0490917E0460E0A5
:1017900070E040E050E020E00E941C0FFFCFAF92CD
:1017A000BF92CF92DF92EF92FF920F930E940B06AF
:1017B0000E94AD0781E060E00E94C00F90937E041C
:1017C00080937D04009739F060E070E040E050E0E5
:1017D00020E00E941C0F82EB9BE06AE670E046E985
:1017E00050E020E030E001E0EE24FF24CC24DD24B2
:1017F000AA24BB240E945F1385E99BE06EE670E09B
:1018000046E950E020E030E00E945F130E945E1441
:10181000FFCFFC0191E1908322E2229383E3829344
:1018200062937293129280E88293129282E0829382
:1018300083E0829384E0829385E0829386E08293C2
:1018400087E0829388E0829389E0829380E18293AB
:10185000929382E1829383E1829384E1829385E192
:10186000829386E1829387E1829388E1829389E182
:10187000829380E2829381E28293229383E2829335
:101880004293529386E2829387E2829388E2829324
:1018900089E2829380E3829381E382933197CF013F
:1018A00008951BBC8BE98ABD8BE08EBD89B7806132
:1018B00089BFA0911A04B0911B04CD91CDBFDD91D9
:1018C000DEBFFF91EF91DF91CF91BF91AF919F91DB
:1018D0008F917F916F915F914F913F912F911F91C8
:1018E0000F91FF90EF90DF90CF90BF90AF909F90BF
:1018F0008F907F906F905F904F903F902F901F90B0
:101900000F900FBE0F90089581E0089508950F92F3
:101910000FB6F8940F921F9211242F923F924F927C
:101920005F926F927F928F929F92AF92BF92CF926F
:10193000DF92EF92FF920F931F932F933F934F935A
:101940005F936F937F938F939F93AF93BF93CF9347
:10195000DF93EF93FF93A0911A04B0911B040DB68F
:101960000D920EB60D920E9403110E943910A091A3
:101970001A04B0911B04CD91CDBFDD91DEBFFF9164
:10198000EF91DF91CF91BF91AF919F918F917F9117
:101990006F915F914F913F912F911F910F91FF9008
:1019A000EF90DF90CF90BF90AF909F908F907F90FF
:1019B0006F905F904F903F902F901F900F900FBEB1
:1019C0000F9008950E94870C18950F920FB6F89407
:1019D0000F921F9211242F923F924F925F926F921B
:1019E0007F928F929F92AF92BF92CF92DF92EF92AF
:1019F000FF920F931F932F933F934F935F936F9398
:101A00007F938F939F93AF93BF93CF93DF93EF9386
:101A1000FF93A0911A04B0911B040DB60D920EB65F
:101A20000D920E943910A0911A04B0911B04CD911F
:101A3000CDBFDD91DEBFFF91EF91DF91CF91BF91DF
:101A4000AF919F918F917F916F915F914F913F9156
:101A50002F911F910F91FF90EF90DF90CF90BF904B
:101A6000AF909F908F907F906F905F904F903F903E
:101A70002F901F900F900FBE0F900895FC010FB68E
:101A8000F8940F92828D0F900FBE0895FC01828D05
:101A90000895FC01828D90E0882309F491E0892F5C
:101AA0000895FC01928D20E0838D981709F421E0C0
:101AB000822F08950F931F938C01FC0180819181E7
:101AC0000E94C40AC8010E94C40A1F910F91089580
:101AD0000F931F93CF93DF93EC01FB018A018A8D53
:101AE000882381F14881598141155105A9F08C8DD8
:101AF0002E813F81280F311D3F832E838A819B8158
:101B00002817390710F05F834E834C8D6E817F81DB
:101B1000CF0150E00E94D4148A8D81508A8F8D8D20
:101B20008F3F69F48885882361F0CE0108960E9472
:101B3000C410882331F081E0F801808303C08F5FF7
:101B40008D8F81E0DF91CF911F910F910895CF93F9
:101B5000DF93EC01842F4C8D4423A1F18823B1F451
:101B60008C819D8150E00E94D4148C8D2C813D810C
:101B7000280F311D3D832C838A819B8128173907CB
:101B800008F1888199819D838C831CC08E819F81FF
:101B900050E00E94D4148C8D90E044275527481BB8
:101BA000590B8E819F81840F951F9F838E8328817F
:101BB00039818217930730F48A819B81840F951FA6
:101BC0009F838E838A8D8F5F8A8FDF91CF91089557
:101BD0000F931F93CF93DF93EC018A019A8D8B8D26
:101BE000981710F080E017C0CE01422F0E94A70D79
:101BF0008E8D8F3F69F48989882361F0CE014196EB
:101C00000E94C410882331F081E0F801808303C072
:101C10008F5F8E8F81E0DF91CF911F910F9108959B
:101C20000F931F93CF93DF93EC010FB6F8940F92AD
:101C30008C010F5E1F4F0DC08989882369F0C80190
:101C40000E94C410882311F00E94C0108E8D815014
:101C50008E8F8E8D181684F38FEF8E8F0F900FBEA0
:101C60000FB6F8940F928E01085F1F4F0DC0888544
:101C7000882369F0C8010E94C410882311F00E94D3
:101C8000C0108D8D81508D8F8D8D181684F38FEF40
:101C90008D8F0F900FBEDF91CF911F910F910895FF
:101CA0007F928F929F92AF92BF92CF92DF92EF92EC
:101CB000FF920F931F93DF93CF9300D000D00F922A
:101CC000CDB7DEB78C01962E872E5D834C83722EA6
:101CD00091E1C92ED12CC00ED11E20E07E010894C6
:101CE000E11CF11C84E0A82EB12CAC0EBD1E01C07D
:101CF00021E00FB6F8940F92F801828D882309F441
:101D00003EC0E680F7804081518141155105B1F018
:101D1000848D9701280F311D37832683828193811B
:101D20002817390710F057834683F801448D6681E0
:101D30007781892D982D50E00E94D414772071F47A
:101D4000F801828D8150828F80858823A1F0C8019F
:101D500008960E94C410813071F40BC0F801F7821C
:101D6000E6828189882339F0C6010E94C410882345
:101D700011F00E94E50C0F900FBE81E04AC08C81EB
:101D80009D81892B19F40F900FBE42C0222319F4B4
:101D9000C7010E947B100F900FBE0E941F100FB64C
:101DA000F8940F92F801858D8F3F09F4158EF80194
:101DB000868D8F3F09F4168E0F900FBEC701B501B7
:101DC0000E9486108823F9F40FB6F8940F92F80158
:101DD000828D0F900FBE882381F46C817D81C601B6
:101DE0000E94DE11C8010E94100E0E94FB11882380
:101DF00009F07ECF0E94E50C7BCFC8010E94100E37
:101E00000E94FB1175CFC8010E94100E0E94FB11A9
:101E100080E00F900F900F900F900F90CF91DF9177
:101E20001F910F91FF90EF90DF90CF90BF90AF90F8
:101E30009F908F907F9008957F928F929F92AF9204
:101E4000BF92CF92DF92EF92FF920F931F93DF9397
:101E5000CF9300D000D00F92CDB7DEB78C016B01CD
:101E60005D834C83722E48E0E42EF12CE80EF91EBF
:101E700020E05E010894A11CB11C34E0832E912C5B
:101E80008C0E9D1E01C021E00FB6F8940F92F80150
:101E9000928D838D9817A8F4C801B601472D0E9432
:101EA000A70DF8018189882341F0C80141960E945D
:101EB000C410813011F40E94E50C0F900FBE81E038
:101EC0004CC08C819D81892B19F40F900FBE44C0AA
:101ED000222319F4C5010E947B100F900FBE0E94AF
:101EE0001F100FB6F8940F92F801858D8F3F09F4FB
:101EF000158EF801868D8F3F09F4168E0F900FBE58
:101F0000C501B4010E948610882309F50FB6F89424
:101F10000F92F801928D0F900FBEF801838D9817E4
:101F200081F46C817D81C7010E94DE11C8010E948D
:101F3000100E0E94FB11882309F0A5CF0E94E50C2A
:101F4000A2CFC8010E94100E0E94FB119CCFC801B5
:101F50000E94100E0E94FB1180E00F900F900F90D6
:101F60000F900F90CF91DF911F910F91FF90EF9005
:101F7000DF90CF90BF90AF909F908F907F9008950B
:101F8000AF92BF92CF92DF92EF92FF920F931F9387
:101F9000CF93DF93B82EA62E882309F442C08FE199
:101FA00090E00E94D40AEC010097D9F1EB2CFF24B9
:101FB000CA2CDD24CE9C8001CF9C100DDE9C100D20
:101FC0001124C80101960E94D40A9C019983888338
:101FD000009721F1080F191F1B830A831A8E9D8316
:101FE0008C830894E108F108EC9CC001ED9C900DF5
:101FF000FC9C900D1124280F391F3F832E83BB8E2C
:10200000AC8E8FEF8D8F8E8FCE0108960E94FB0ACB
:10201000CE0141960E94FB0A9E0105C0CE010E949E
:10202000C40A20E030E0C901DF91CF911F910F91E8
:10203000FF90EF90DF90CF90BF90AF900895809188
:1020400020048F5F8093200408950FB6F8940F92B8
:1020500020911E0430911F040F900FBEC9010895F6
:1020600020911E0430911F04C9010895809123041A
:10207000089580912004882351F081E080931C040E
:1020800008958091210481508093210401C099E03A
:10209000E0912104E99FF0011124E85DFB4F80816C
:1020A000882379F39091210489E0989FD00111242D
:1020B000A85DBB4F1196ED91FC9112970280F381C0
:1020C000E02D1296FC93EE931197CD010396E8173D
:1020D000F90731F48281938112969C938E93119724
:1020E0001196ED91FC9112978681978190931B0434
:1020F00080931A040895FC0180911D0480838091CF
:102100001E0490911F04928381830895FC01DB01DA
:102110000FB6F8940F9290911D048081981749F0A2
:1021200020911E0430911F04818192812817390764
:1021300018F580911E0490911F04218132814D91E8
:102140005C911197821B930B84179507A8F48091DB
:102150001E0490911F04281B390B240F351F2D934B
:102160003C9380911D04808380911E0490911F04F4
:102170009283818380E001C081E00F900FBE0895BB
:1021800081E080931C0408950F931F93CF93DF93F6
:10219000FC010580F681E02D06811781E8012C966F
:1021A000CE010E946D0B809120048823A9F4E801E0
:1021B0002296CE010E946D0BD80156969C9180917B
:1021C0002104891710F49093210489E0989FC0019D
:1021D0001124885D9B4F02C08BE694E0BE010E94F3
:1021E0000F0BE0911A04F0911B0420E0D8015696E1
:1021F0009C918689981708F021E0822FDF91CF917A
:102200001F910F910895FF920F931F93CF93DF9328
:1022100080912004882309F08FC080911E04909142
:102220001F04019690931F0480931E0480911E0446
:1022300090911F04892B79F52091670430916804EF
:102240008091690490916A04909368048093670474
:1022500030936A042093690480911D048F5F8093FA
:102260001D04E0916704F09168048081882319F4CB
:102270008FEF9FEF0CC0E0916704F0916804058038
:10228000F681E02D0680F781E02D82819381909385
:1022900082018093810120911E0430911F0480915E
:1022A0008101909182012817390708F44AC089E01A
:1022B000F82EE0916704F09168048081882339F456
:1022C0008FEF9FEF90938201809381013AC0E0915C
:1022D0006704F09168040580F681E02DC681D781FE
:1022E0002A813B8180911E0490911F0482179307DD
:1022F00028F4309382012093810123C08E010E5F68
:102300001F4FC8010E946D0B8C899D89892B21F07C
:10231000CE010C960E946D0B9E8980912104891735
:1023200010F4909321049F9DC0011124885D9B4F60
:10233000B8010E940F0BBDCF809122048F5F809364
:102340002204DF91CF911F910F91FF900895CF93B9
:10235000DF93EC01E0911A04F0911B0493838283D4
:1023600080911E0490911F04C817D90768F48091CA
:10237000690490916A0460911A0470911B046E5F65
:102380007F4F0E94380B17C08091670490916804BA
:1023900060911A0470911B046E5F7F4F0E94380B8E
:1023A0008091810190918201C817D90720F4D093C0
:1023B0008201C0938101DF91CF9108950F931F9304
:1023C0008B0160911A0470911B04645F7F4F0E941F
:1023D000380B80911A0490911B0402960E946D0B99
:1023E00080911E0490911F04800F911F0E94A711DD
:1023F0001F910F910895CF92DF92FF920F931F9339
:10240000DF93CF930F92CDB7DEB70FB6F8940F924C
:10241000809120048150809320048091200488239F
:1024200009F058C080912304882309F453C019820D
:1024300099E0F92E2DC0E0917004F0917104C680EE
:10244000D780C6010C960E946D0B86010E5F1F4F50
:10245000C8010E946D0BD60156969C918091210473
:10246000891710F4909321049F9DC0011124885D69
:102470009B4FB8010E940F0BE0911A04F0911B04CE
:10248000D60156969C918689981710F0B1E0B983D1
:1024900080916B04882379F680912204882341F48B
:1024A0000CC00E9403118091220481508093220469
:1024B000809122048823A9F707C0E981E13021F047
:1024C00080911C04813031F410921C040E94E50CB0
:1024D00081E001C080E00F900FBE0F90CF91DF919F
:1024E0001F910F91FF90DF90CF9008950F931F934E
:1024F000CF93DF93EC010097C9F0809120048F5FA8
:102500008093200400911E0410911F0480911A04EE
:1025100090911B0402960E946D0BCE01800F911FBB
:102520000E94A7110E94FB11882311F40E94E50C60
:10253000DF91CF911F910F910895CF93DF93FC010D
:10254000EB01809120048F5F8093200420813181F2
:10255000C20FD31F80911E0490911F04821793070E
:1025600028F4C217D30728F020E00CC0C217D30705
:1025700040F080911E0490911F0420E08C179D076D
:1025800008F421E0D183C083222351F080911A0402
:1025900090911B0402960E946D0BCE010E94A71120
:1025A0000E94FB11882311F40E94E50CDF91CF916A
:1025B0000895EF92FF920F931F93CF93DF938C01B7
:1025C0000FB6F8940F9280911A0490911B0408178B
:1025D000190719F400E010E003C00115110529F4F2
:1025E000C0911A04D0911B0401C0E80122E0E22E40
:1025F000F12CEC0EFD1EC7010E946D0B8C899D898C
:10260000892B21F0CE010C960E946D0B84E794E09B
:10261000B7010E940F0B809125048F5F80932504E2
:10262000809126048F5F809326040F900FBE8091C7
:102630002404882321F0012B11F40E94E50CDF9182
:10264000CF911F910F91FF90EF900895F894109201
:1026500024040E94860C08950F931F9380912504F3
:102660008823E1F3809120048F5F809320041091F0
:1026700074040E94FB11112389F30FB6F8940F9292
:10268000E0917904F0917A0406811781C8010296DD
:102690000E946D0B809123048150809323048091CC
:1026A00025048150809325040F900FBEF80187897F
:1026B000908D0E94C40AC8010E94C40ACFCF2F92F5
:1026C0003F924F925F927F928F929F92AF92BF9272
:1026D000CF92DF92EF92FF920F931F93CF93DF93EE
:1026E0001C014B015A012901702EE60181E290E0A4
:1026F0000E94D40A6C01009771F0209721F4C50163
:102700000E94D40AEC01F601D08FC78B209729F4E0
:10271000C6010E94C40A8FEFBFC0CE0165EA70E017
:10272000A5010E94DD140894A108B108F601C7892B
:10273000D08DCA0DDB1DC6014996B40148E050E0BA
:102740000E94E414F60110A2072DF4E0F71508F436
:1027500004E0F601068B42E0A42EB12CAC0CBD1CAB
:10276000C5010E940B0BC6010C960E940B0BF601D3
:10277000D186C08685E090E0801B9109958784878B
:10278000D38AC28ACE01B101A2010E94090CF601CE
:1027900091838083E114F10419F0F701D182C082A2
:1027A0000FB6F8940F92809123048F5F80932304D7
:1027B00080911A0490911B04892B79F5D0921B0407
:1027C000C0921A04809123048130B1F5C8E2D4E0AC
:1027D000CE010E94FB0A2996F4E0C535DF07C1F758
:1027E00035E5E32E34E0F32EC7010E94FB0A0EE527
:1027F00014E0C8010E94FB0A8BE694E00E94FB0AE9
:1028000084E794E00E94FB0AF0926804E092670477
:1028100010936A04009369040FC0809124048823F4
:1028200059F4E0911A04F0911B048689781620F07F
:10283000D0921B04C0921A04F60196898091270455
:10284000891710F490932704809126048F5F80935A
:102850002604F601968980912104891710F490933B
:102860002104F601868929E0829FC0011124885D38
:102870009B4FB5010E940F0B0F900FBE8091240457
:10288000882349F0E0911A04F0911B04868987158A
:1028900010F40E94E50C81E0DF91CF911F910F9120
:1028A000FF90EF90DF90CF90BF90AF909F908F9070
:1028B0007F905F904F903F902F900895AF92BF927E
:1028C000CF92DF92EF92FF920F938CE293E164E755
:1028D00070E046E950E020E030E000E0EE24FF2424
:1028E000CC24DD24AA24BB240E945F13813049F448
:1028F000F8948093240410921F0410921E040E94E6
:10290000510C0F91FF90EF90DF90CF90BF90AF9060
:102910000895AA1BBB1B51E107C0AA1FBB1FA61726
:10292000B70710F0A61BB70B881F991F5A95A9F778
:1029300080959095BC01CD0108952F923F924F92C2
:102940005F926F927F928F929F92AF92BF92CF923F
:10295000DF92EF92FF920F931F93CF93DF93CDB748
:10296000DEB7CA1BDB0B0FB6F894DEBF0FBECDBFC0
:1029700009942A88398848885F846E847D848C8491
:102980009B84AA84B984C884DF80EE80FD800C819A
:102990001B81AA81B981CE0FD11D0FB6F894DEBF7D
:1029A0000FBECDBFED010895FB01DC0102C0019017
:1029B0000D9241505040D8F70895DC0101C06D934D
:1029C00041505040E0F70895FB01DC014150504078
:1029D00048F001900D920020C9F701C01D924150AE
:0A29E0005040E0F70895F894FFCF8F
:1029EA00446F6161004D454B4F0052656400477268
:1029FA0065656E0049444C45000000000000000077
:102A0A00000001020203030303040404040404048F
:102A1A00040505050505050505050505050505055D
:102A2A00050606060606060606060606060606063D
:102A3A00060606060606060606060606060606062C
:102A4A00060707070707070707070707070707070D
:102A5A0007070707070707070707070707070707FC
:102A6A0007070707070707070707070707070707EC
:102A7A0007070707070707070707070707070707DC
:102A8A0007080808080808080808080808080808BD
:102A9A0008080808080808080808080808080808AC
:102AAA00080808080808080808080808080808089C
:102ABA00080808080808080808080808080808088C
:102ACA00080808080808080808080808080808087C
:102ADA00080808080808080808080808080808086C
:102AEA00080808080808080808080808080808085C
:102AFA00080808080808080808080808080808084C
:042B0A0008FFFF00C1
:00000001FF
