:100000000C942A000C9465020C9492020C94BF028A
:100010000C943C000C943C000C943C000C943C0070
:100020000C943C000C943C000C943C000C943C0060
:100030000C943C000C943C000C943C000C943C0050
:100040000C943C000C943C000C943C000C943C0040
:100050000C943C0011241FBECFE5D8E0DEBFCDBF1D
:1000600010E0A0E6B0E001C01D92A636B107E1F7AE
:100070000E946A060C948C060C940000DF93CF93C8
:10008000CDB7DEB7EAE3F0E083EF8083E7E3F0E0AB
:100090001082E4E3F0E08FEF8083E1E3F0E08BEFA8
:1000A0008083EBE3F0E08CEF8083E8E3F0E0108204
:1000B000E5E3F0E01082E2E3F0E084E08083CF91BA
:1000C000DF910895DF93CF930F92CDB7DEB7898389
:1000D0008981813041F4AFE5B0E0EFE5F0E0808167
:1000E00080688C930AC08981882339F4AFE5B0E039
:1000F000EFE5F0E080818F778C930F90CF91DF91C7
:100100000895DF93CF93CDB7DEB727970FB6F89456
:10011000DEBF0FBECDBF8A836B8319828B81813096
:10012000A9F5AFE5B0E0EFE5F0E0808180688C9361
:100130008A81282F30E03F832E838E819F818130FA
:10014000910589F02E813F8122303105A1F08E8109
:100150009F810097C1F4ABE5B0E0EBE5F0E0808172
:1001600080648C9346C0ABE5B0E0EBE5F0E08081C5
:1001700080688C933EC0ABE5B0E0EBE5F0E08081B9
:1001800080628C9336C081E0898333C08B81882361
:1001900071F58A81282F30E03D832C838C819D81ED
:1001A0008130910589F02C813D8122303105A1F00B
:1001B0008C819D810097C1F4ABE5B0E0EBE5F0E008
:1001C00080818F7B8C9315C0ABE5B0E0EBE5F0E070
:1001D00080818F778C930DC0ABE5B0E0EBE5F0E06C
:1001E00080818F7D8C9305C081E0898302C081E08E
:1001F0008983898127960FB6F894DEBF0FBECDBFE5
:10020000CF91DF910895DF93CF93CDB7DEB7AFE500
:10021000B0E0EFE5F0E0808180688C93ABE5B0E082
:10022000EBE5F0E0808180648C93ABE5B0E0EBE53A
:10023000F0E080818F778C93ABE5B0E0EBE5F0E008
:1002400080818F7D8C93CF91DF910895DF93CF9341
:10025000CDB7DEB72E970FB6F894DEBF0FBECDBF79
:100260008B836C831A82E5E5F0E0808189838C8141
:10027000282F30E03E872D878D859E858130910522
:10028000C9F12D853E85223031052CF48D859E8562
:10029000009771F0BFC02D853E852230310509F4ED
:1002A00051C08D859E858330910509F47FC0B2C011
:1002B0008B81282F30E03C872B878B859C8500978E
:1002C00031F02B853C852130310549F010C0898102
:1002D0008C7F8983E5E5F0E0898180839DC08981F9
:1002E000837F8983E5E5F0E08981808395C081E0A3
:1002F0008A8392C08B81282F30E03A8729878985AD
:100300009A85009731F029853A852130310561F0D1
:1003100016C089818C7F8983898181608983E5E525
:10032000F0E08981808378C08981837F8983898196
:1003300084608983E5E5F0E0898180836DC081E098
:100340008A836AC08B81282F30E038872F838F8182
:10035000988581309105A1F02F81388522303105B3
:10036000D1F08F8198850097F1F489818C7F898302
:10037000898182608983E5E5F0E0898180834CC0D2
:100380008981837F8983898188608983E5E5F0E0BD
:100390008981808341C0A4E5B0E0E4E5F0E080819C
:1003A0008F7B8C9339C081E08A8336C08B81282F64
:1003B00030E03E832D838D819E8181309105A1F0B7
:1003C0002D813E8122303105D1F08D819E810097B3
:1003D000F1F489818C7F8983898183608983E5E554
:1003E000F0E08981808318C08981837F8983898136
:1003F0008C608983E5E5F0E0898180830DC0A4E508
:10040000B0E0E4E5F0E0808180648C9305C081E099
:100410008A8302C081E08A838A812E960FB6F8947F
:10042000DEBF0FBECDBFCF91DF910895DF93CF9395
:10043000CDB7DEB7A5E5B0E0E5E5F0E080818C7FE3
:100440008C93A5E5B0E0E5E5F0E0808182608C93D7
:10045000A5E5B0E0E5E5F0E08081837F8C93A5E53C
:10046000B0E0E5E5F0E080818C608C93A4E5B0E03D
:10047000E4E5F0E080818F7B8C93CF91DF9108954C
:10048000DF93CF9300D000D0CDB7DEB79B838A83B4
:100490006C8319828A819B81009769F08C81882FF7
:1004A00090E0880F991FFC01E05AFF4F8A819B81E1
:1004B0009183808302C082E0898389810F900F90AD
:1004C0000F900F90CF91DF9108951F920F920FB66A
:1004D0000F9211242F933F934F935F936F937F93CA
:1004E0008F939F93AF93BF93EF93FF93DF93CF933C
:1004F000CDB7DEB7E0916000F09161000995CF9132
:10050000DF91FF91EF91BF91AF919F918F917F917B
:100510006F915F914F913F912F910F900FBE0F9070
:100520001F9018951F920F920FB60F9211242F93C0
:100530003F934F935F936F937F938F939F93AF936B
:10054000BF93EF93FF93DF93CF93CDB7DEB7E091E7
:100550006200F09163000995CF91DF91FF91EF91D7
:10056000BF91AF919F918F917F916F915F914F91CB
:100570003F912F910F900FBE0F901F9018951F92D3
:100580000F920FB60F9211242F933F934F935F93C7
:100590006F937F938F939F93AF93BF93EF93FF934B
:1005A000DF93CF93CDB7DEB7E0916400F0916500A3
:1005B0000995CF91DF91FF91EF91BF91AF919F91FD
:1005C0008F917F916F915F914F913F912F910F90FC
:1005D0000FBE0F901F901895DF93CF9300D000D0DF
:1005E0000F92CDB7DEB78A836B8319828A818430FC
:1005F00018F081E0898332C08A81282F30E03D8362
:100600002C838C819D8181309105D1F02C813D819D
:10061000223031052CF48C819D81009761F01EC041
:100620002C813D812230310581F08C819D81833088
:10063000910581F013C0EAE3F0E08B8180830EC066
:10064000E7E3F0E08B81808309C0E4E3F0E08B8195
:10065000808304C0E1E3F0E08B81808389810F9087
:100660000F900F900F900F90CF91DF910895DF932F
:10067000CF9300D000D00F92CDB7DEB78A836B83C3
:1006800019828A81843018F081E0898332C08A819E
:10069000282F30E03D832C838C819D818130910512
:1006A000D1F02C813D81223031052CF48C819D814B
:1006B000009761F01EC02C813D812230310581F010
:1006C0008C819D818330910581F013C0EBE3F0E0D4
:1006D0008B8180830EC0E8E3F0E08B81808309C0CA
:1006E000E5E3F0E08B81808304C0E2E3F0E08B81FE
:1006F000808389810F900F900F900F900F90CF9172
:10070000DF910895DF93CF9300D000D000D0CDB714
:10071000DEB78A837C836B8319828A81843018F0E8
:1007200081E089833AC08A81282F30E03E832D837F
:100730008D819E8181309105E1F02D813E812230B5
:1007400031052CF48D819E81009761F026C02D81AA
:100750003E8122303105A1F08D819E81833091054B
:10076000B1F01BC0E9E3F0E08081EB81FC81808384
:1007700014C0E6E3F0E08081EB81FC8180830DC052
:10078000E3E3F0E08081EB81FC81808306C0E0E35D
:10079000F0E08081EB81FC818083898126960FB611
:1007A000F894DEBF0FBECDBFCF91DF910895DF93E8
:1007B000CF93CDB7DEB728970FB6F894DEBF0FBE44
:1007C000CDBF8A836B834C8319828C81813009F081
:1007D0006FC08A81282F30E038872F838F819885DA
:1007E0008130910549F12F813885223031052CF473
:1007F0008F819885009761F0D5C02F813885223090
:10080000310571F18F81988583309105E9F1CAC076
:10081000AAE3B0E0EAE3F0E08081482F8B81282F43
:1008200030E081E090E0022E02C0880F991F0A9408
:10083000E2F7842B8C93B6C0A7E3B0E0E7E3F0E0E7
:100840008081482F8B81282F30E081E090E0022EBC
:1008500002C0880F991F0A94E2F7842B8C93A2C0E0
:10086000A4E3B0E0E4E3F0E08081482F8B81282FFF
:1008700030E081E090E0022E02C0880F991F0A94B8
:10088000E2F7842B8C938EC0A1E3B0E0E1E3F0E0CB
:100890008081482F8B81282F30E081E090E0022E6C
:1008A00002C0880F991F0A94E2F7842B8C937AC0B8
:1008B0008C81882309F074C08A81282F30E03E8320
:1008C0002D838D819E818130910559F12D813E814D
:1008D000223031052CF48D819E81009769F062C031
:1008E0002D813E812230310589F18D819E818330B9
:1008F000910509F440C056C0AAE3B0E0EAE3F0E095
:100900008081482F8B81282F30E081E090E0022EFB
:1009100002C0880F991F0A94E2F7809584238C9374
:1009200041C0A7E3B0E0E7E3F0E08081482F8B818E
:10093000282F30E081E090E0022E02C0880F991F3E
:100940000A94E2F7809584238C932CC0A4E3B0E052
:10095000E4E3F0E08081482F8B81282F30E081E0B4
:1009600090E0022E02C0880F991F0A94E2F780954A
:1009700084238C9317C0A1E3B0E0E1E3F0E0808131
:10098000482F8B81282F30E081E090E0022E02C0BA
:10099000880F991F0A94E2F7809584238C9302C0F4
:1009A00081E08983898128960FB6F894DEBF0FBE57
:1009B000CDBFCF91DF910895DF93CF93CDB7DEB751
:1009C00028970FB6F894DEBF0FBECDBF8A836B8326
:1009D0004C8319828C81813009F06FC08A81282F65
:1009E00030E038872F838F8198858130910549F1D8
:1009F0002F813885223031052CF48F81988500971E
:100A000061F0D5C02F8138852230310571F18F8199
:100A1000988583309105E9F1CAC0ABE3B0E0EBE320
:100A2000F0E08081482F8B81282F30E081E090E03A
:100A3000022E02C0880F991F0A94E2F7842B8C9330
:100A4000B6C0A8E3B0E0E8E3F0E08081482F8B81F6
:100A5000282F30E081E090E0022E02C0880F991F1D
:100A60000A94E2F7842B8C93A2C0A5E3B0E0E5E3FF
:100A7000F0E08081482F8B81282F30E081E090E0EA
:100A8000022E02C0880F991F0A94E2F7842B8C93E0
:100A90008EC0A2E3B0E0E2E3F0E08081482F8B81DA
:100AA000282F30E081E090E0022E02C0880F991FCD
:100AB0000A94E2F7842B8C937AC08C81882309F006
:100AC00074C08A81282F30E03E832D838D819E81E2
:100AD0008130910559F12D813E81223031052CF470
:100AE0008D819E81009769F062C02D813E81223008
:100AF000310589F18D819E818330910509F440C0D3
:100B000056C0ABE3B0E0EBE3F0E08081482F8B818F
:100B1000282F30E081E090E0022E02C0880F991F5C
:100B20000A94E2F7809584238C9341C0A8E3B0E057
:100B3000E8E3F0E08081482F8B81282F30E081E0CE
:100B400090E0022E02C0880F991F0A94E2F7809568
:100B500084238C932CC0A5E3B0E0E5E3F0E0808132
:100B6000482F8B81282F30E081E090E0022E02C0D8
:100B7000880F991F0A94E2F7809584238C9317C0FD
:100B8000A2E3B0E0E2E3F0E08081482F8B81282FE0
:100B900030E081E090E0022E02C0880F991F0A9495
:100BA000E2F7809584238C9302C081E08983898158
:100BB00028960FB6F894DEBF0FBECDBFCF91DF9160
:100BC0000895DF93CF93CDB7DEB727970FB6F8948C
:100BD000DEBF0FBECDBF8A836B835D834C831982DA
:100BE0008A81282F30E03F832E834E815F81413000
:100BF000510559F18E819F818230910534F42E8107
:100C00003F812115310569F05BC04E815F81423023
:100C1000510579F18E819F818330910509F43DC0A2
:100C20004FC0E9E3F0E08081282F30E08B81882FEE
:100C300090E0A90102C0559547958A95E2F7CA014F
:100C40008170EC81FD8180833BC0E6E3F0E0808130
:100C5000282F30E08B81882F90E0A90102C05595A4
:100C600047958A95E2F7CA018170EC81FD81808306
:100C700027C0E3E3F0E08081282F30E08B81882FCC
:100C800090E0A90102C0559547958A95E2F7CA01FF
:100C90008170EC81FD81808313C0E0E3F0E080810E
:100CA000282F30E08B81882F90E0A90102C0559554
:100CB00047958A95E2F7CA018170EC81FD818083B6
:100CC000898127960FB6F894DEBF0FBECDBFCF91B6
:100CD000DF910895DF93CF93CDB7DEB70E943E003A
:100CE0008DE796E060E00E94400281E00E94620091
:100CF0000E9403010E941602FFCFDF93CF93CDB76E
:100D0000DEB7ABE3B0E0EBE3F0E0908181E0892770
:0C0D10008C93CF91DF910895F894FFCFF1
:00000001FF
