:100000000C942A000C9434000C9434000C943400AA
:100010000C9434000C9434000C9434000C94340090
:100020000C9434000C9434000C9434000C94340080
:100030000C9434000C9434000C9434000C94340070
:100040000C9434000C9434000C9434000C94340060
:100050000C94340011241FBECFE5D8E0DEBFCDBF25
:100060000E943C020C9454020C94000081B5887FDD
:1000700081BD81B5866081BD81B5886081BD0895EF
:1000800081B5886081BD089581B5886181BD81B5E4
:10009000877F81BD089581B5887F866081BD089581
:1000A00080EF8ABB8FEF87BB84BB8BEB81BB81E08A
:1000B0008BBB18BA15BA12BA0895843010F081E0DB
:1000C0000895813049F0813028F0823039F0833052
:1000D00031F407C06ABB03C067BB01C064BB80E0EA
:1000E000089561BB80E00895843010F081E00895A8
:1000F000813049F0813028F0823039F0833031F49A
:1001000007C06BBB03C068BB01C065BB80E008953E
:1001100062BB80E00895FB01843010F081E0089517
:10012000813049F0813028F0823039F0833039F461
:1001300008C089B303C086B301C083B3808380E065
:10014000089580B3808380E008954130B1F5813017
:1001500099F0813030F08230D1F0833009F06BC0FB
:1001600021C02AB381E090E002C0880F991F6A95F0
:10017000E2F7282B2ABB5DC027B381E090E002C0E4
:10018000880F991F6A95E2F7282B27BB52C024B32A
:1001900081E090E002C0880F991F6A95E2F7282B52
:1001A00024BB47C021B381E090E002C0880F991FB3
:1001B0006A95E2F7282B21BB3CC0442311F081E073
:1001C0000895813099F0813028F08230D9F0833061
:1001D00091F524C02AB381E090E002C0880F991FF6
:1001E0006A95E2F7809582238ABB23C027B381E01A
:1001F00090E002C0880F991F6A95E2F780958223EC
:1002000087BB17C024B381E090E002C0880F991F1C
:100210006A95E2F78095822384BB0BC021B381E00D
:1002200090E002C0880F991F6A95E2F780958223BB
:1002300081BB80E0089580E008954130B1F58130C0
:1002400099F0813030F08230D1F0833009F06BC00A
:1002500021C02BB381E090E002C0880F991F6A95FE
:10026000E2F7282B2BBB5DC028B381E090E002C0F1
:10027000880F991F6A95E2F7282B28BB52C025B337
:1002800081E090E002C0880F991F6A95E2F7282B61
:1002900025BB47C022B381E090E002C0880F991FC0
:1002A0006A95E2F7282B22BB3CC0442311F081E081
:1002B0000895813099F0813028F08230D9F0833070
:1002C00091F524C02BB381E090E002C0880F991F04
:1002D0006A95E2F7809582238BBB23C028B381E027
:1002E00090E002C0880F991F6A95E2F780958223FB
:1002F00088BB17C025B381E090E002C0880F991F2A
:100300006A95E2F78095822385BB0BC022B381E01A
:1003100090E002C0880F991F6A95E2F780958223CA
:1003200082BB80E0089580E00895FA01813049F0B1
:10033000813028F0823039F0833081F406C089B3EF
:1003400005C086B303C083B301C080B390E002C090
:10035000959587956A95E2F78170808380E008958E
:10036000683008F085C0843008F082C0413009F060
:1003700042C08130B1F0813030F0823001F1833001
:1003800009F078C02AC08AB321E030E002C0220F11
:10039000331F6A95E2F7822B8ABB8BB3282B2BBBCA
:1003A00065C087B321E030E002C0220F331F6A9599
:1003B000E2F7822B87BB88B3282B28BB57C084B3B6
:1003C00021E030E002C0220F331F6A95E2F7822B52
:1003D00084BB85B3282B25BB49C081B321E030E025
:1003E00002C0220F331F6A95E2F7822B81BB82B3D2
:1003F000282B22BB3BC0442309F03CC0813099F03C
:10040000813028F08230D9F08330A1F524C02BB39D
:1004100081E090E002C0880F991F6A95E2F780950D
:1004200082238BBB23C028B381E090E002C0880FF9
:10043000991F6A95E2F78095822388BB17C025B380
:1004400081E090E002C0880F991F6A95E2F78095DD
:10045000822385BB0BC022B381E090E002C0880FED
:10046000991F6A95E2F78095822382BB80E0089508
:1004700081E0089580E008950E94500081E063E0EB
:1004800041E00E941D0180E197E228EC30E0F90193
:100490003197F1F70197D9F781E063E040E00E94DE
:0C04A0001D010E943600FFCFF894FFCF32
:00000001FF
