:100000000C942A000C9447000C9447000C94470071
:100010000C9447000C9447000C9447000C94470044
:100020000C9447000C9447000C9447000C94470034
:100030000C9447000C9447000C9447000C94470024
:100040000C9439090C9447000C9447000C94470019
:100050000C94470011241FBECFE5D8E0DEBFCDBF12
:1000600012E0A0E6B0E0E8E5FEE102C005900D92E6
:10007000AC33B107D9F712E0ACE3B2E001C01D9296
:10008000AE34B107E1F70E94670C0C942A0F0C9470
:100090000000EF92FF920F931F937B018C0120E0F1
:1000A00030E040E05FE40E94C50388238CF0C80183
:1000B000B70120E030E040E05FE40E94C1010E940F
:1000C000F5039B01AC01205030404040504806C031
:1000D000C801B7010E94F5039B01AC01B901CA0137
:1000E0001F910F91FF90EF900895A0E0B0E0EBE733
:1000F000F0E00C94F30EDC012B01FA019C9192309C
:1001000008F439C1EB018881823008F433C194309E
:1001100069F4843009F02FC111969C91119789815F
:10012000981709F428C1A2E1B1E025C1843009F48F
:1001300021C18230A9F4923009F01DC19A01AD01AC
:1001400088E0EA010990AE01E90109929E0181501F
:10015000C1F7E201898111969C918923818308C1AD
:10016000923009F407C112962D903C901397EB0141
:100170008A819B811496AD90BD90CD90DC901797AD
:10018000EC80FD800E811F819101281B390BB90184
:1001900037FF04C066277727621B730B6032710537
:1001A0000CF061C0121613066CF537014801062EDB
:1001B00004C096948794779467940A94D2F721E0C8
:1001C00030E040E050E004C0220F331F441F551FB1
:1001D0006A95D2F721503040404050402E213F21B7
:1001E00040235123211531054105510521F021E01E
:1001F00030E040E050E079018A01E628F72808293C
:1002000019293CC0232BD1F1260E371E350146019A
:10021000062E04C096948794779467940A94D2F734
:1002200021E030E040E050E004C0220F331F441FC3
:10023000551F6A95D2F721503040404050402A2146
:100240003B214C215D21211531054105510521F04E
:1002500021E030E040E050E059016A01A628B728CB
:10026000C828D9280BC0821593052CF01C01AA249C
:10027000BB24650103C0EE24FF24870111969C91E5
:10028000D20111968C91981709F445C0992339F041
:10029000A80197012A193B094C095D0906C0A6016E
:1002A00095012E193F09400B510B57FD08C01182D3
:1002B0003382228224833583468357831DC081E0A5
:1002C00081833382228288279927DC01821B930B4A
:1002D000A40BB50B84839583A683B7830DC0220F2F
:1002E000331F441F551F24833583468357838281E0
:1002F000938101979383828324813581468157813D
:10030000DA01C9010197A109B1098F5F9F4FAF4F72
:10031000BF4328F30BC0918333822282EA0CFB1C7B
:100320000C1D1D1DE482F5820683178383E0808304
:10033000248135814681578157FF1AC0C901AA27F8
:1003400097FDA095BA2F81709070A070B0705695EF
:10035000479537952795822B932BA42BB52B848318
:100360009583A683B7838281938101969383828349
:10037000DF0101C0D201CD01CDB7DEB7E2E10C94BF
:100380000F0FA0E2B0E0E7ECF1E00C94FF0E698300
:100390007A838B839C832D833E834F835887E9E048
:1003A000EE2EF12CEC0EFD1ECE010196B7010E943F
:1003B000E6058E010F5E1F4FCE010596B8010E9423
:1003C000E6058A8991E089278A8BC701B801AE01C9
:1003D000475E5F4F0E9475000E941105A096E6E0FF
:1003E0000C941B0FA0E2B0E0E8EFF1E00C94FF0EDC
:1003F00069837A838B839C832D833E834F835887C5
:10040000F9E0EF2EF12CEC0EFD1ECE010196B701A6
:100410000E94E6058E010F5E1F4FCE010596B801C2
:100420000E94E605C701B801AE01475E5F4F0E941A
:1004300075000E941105A096E6E00C941B0FA0E247
:10044000B0E0E5E2F2E00C94F30E69837A838B83EB
:100450009C832D833E834F835887CE010196BE0136
:10046000675F7F4F0E94E605CE010596BE016F5E75
:100470007F4F0E94E6059985923088F08989823005
:10048000C8F0943019F4823051F404C0843029F457
:10049000923081F482E191E0C6C0923049F420E0CC
:1004A0009A858A89981321E02A87CE010996BBC0D4
:1004B000823049F420E09A858A89981321E02A8BBA
:1004C000CE014196B0C02D843E844F8458886D88FB
:1004D0007E888F88988CEE24FF248701AA24BB2471
:1004E000650140E050E060E070E0E0E0F0E0C10174
:1004F00081709070892BE9F0E60CF71C081D191D1E
:100500009A01AB012A0D3B1D4C1D5D1D80E090E062
:10051000A0E0B0E0E614F7040805190520F481E036
:1005200090E0A0E0B0E0BA01A901480F591F6A1F8E
:100530007B1FAA0CBB1CCC1CDD1C97FE08C081E0F5
:1005400090E0A0E0B0E0A82AB92ACA2ADB2A3196B6
:10055000E032F10549F0660C771C881C991C569412
:10056000479437942794C3CFFA85EA892B893C892D
:100570008B859C85280F391F2E5F3F4F17C0CA01FE
:1005800081709070892B61F016950795F794E79428
:1005900080E090E0A0E0B0E8E82AF92A0A2B1B2BC3
:1005A00076956795579547952F5F3F4F77FDE7CF36
:1005B0000CC0440F551F661F771F17FD4160EE0CDE
:1005C000FF1C001F111F21503040403090E05907A0
:1005D00090E0690790E4790760F32B8F3C8FDB0193
:1005E000CA018F779070A070B07080349105A1051A
:1005F000B10561F447FD0AC0E114F10401051105DC
:1006000029F0405C5F4F6F4F7F4F40781A8EFE1786
:1006100011F081E08A8F4D8F5E8F6F8F78A383E01A
:10062000898FCE0149960E941105A096E2E10C94B3
:100630000F0FA8E1B0E0EFE1F3E00C94FB0E69834B
:100640007A838B839C832D833E834F835887B9E0C5
:10065000EB2EF12CEC0EFD1ECE010196B7010E948F
:10066000E6058E010F5E1F4FCE010596B8010E9470
:10067000E6052985223008F47EC03989323010F42D
:10068000B8017CC08A859A8989278A87243011F02D
:10069000223031F4231709F06EC062E171E06EC0C0
:1006A000343039F41D861E861F86188A1C861B86E8
:1006B00004C0323021F484E08987B7015FC02B8504
:1006C0003C858B899C89281B390B3C872B87ED84C3
:1006D000FE840F851889AD88BE88CF88D88CEA142F
:1006E000FB040C051D0540F4EE0CFF1C001F111F40
:1006F000215030403C872B8720E030E040E050E044
:1007000080E090E0A0E0B0E460E070E0EA14FB0478
:100710000C051D0540F0282B392B4A2B5B2BEA18C2
:10072000FB080C091D09B695A79597958795EE0CC2
:10073000FF1C001F111F6F5F7F4F6F31710531F775
:10074000DA01C9018F779070A070B0708034910584
:10075000A105B10561F427FD0AC0E114F10401050A
:10076000110529F0205C3F4F4F4F5F4F20782D87B8
:100770003E874F87588BBE01675F7F4FCB010E943A
:1007800011056896EAE00C94170FA8E1B0E0EBECD5
:10079000F3E00C94FF0E69837A838B839C832D8313
:1007A0003E834F83588789E0E82EF12CEC0EFD1E26
:1007B000CE010196B7010E94E6058E010F5E1F4F24
:1007C000CE010596B8010E94E6058985823040F089
:1007D0008989823028F0C701B8010E945E0601C0F5
:1007E0008FEF6896E6E00C941B0FACE0B0E0EBEF07
:1007F000F3E00C94030F69837A838B839C83CE018F
:100800000196BE016B5F7F4F0E94E6058D818230AD
:1008100061F1823050F1843021F48E81882351F1CE
:100820002EC02F81388537FD20C06E812F313105D4
:100830001CF06623F9F023C08EE190E0821B930B3D
:1008400029853A854B855C8504C056954795379533
:1008500027958A95D2F76623B1F05095409530954B
:1008600021953F4F4F4F5F4F0EC020E030E040E0FA
:1008700050E009C02FEF3FEF4FEF5FE704C020E0EB
:1008800030E040E050E8B901CA012C96E2E00C9457
:100890001F0FA8E0B0E0EFE4F4E00C94FB0E7B0146
:1008A0008C01611571058105910519F482E0898338
:1008B00060C083E089838EE1C82ED12CDC82CB829C
:1008C000ED82FE820F831887C801B7010E94C2041F
:1008D000FC013197F7FF3BC0222733272E1B3F0B2C
:1008E00057016801022E04C0D694C794B794A79408
:1008F0000A94D2F740E050E060E070E081E090E0E0
:10090000A0E0B0E004C0880F991FAA1FBB1F2A9562
:10091000D2F70197A109B1098E219F21A023B1230C
:100920000097A105B10521F041E050E060E070E0E2
:100930004A295B296C297D294D835E836F837887E3
:100940008EE190E08E1B9F0B9C838B8312C03097AF
:1009500081F00E2E04C0EE0CFF1C001F111F0A9424
:10096000D2F7ED82FE820F831887CE1ADF0ADC826F
:10097000CB821A82CE0101960E9411052896EAE0E8
:100980000C94170FEF92FF920F931F937B018C0132
:1009900080E0E81680E0F80681E0080780E01807AC
:1009A00088F48FEFE816F1040105110531F028F005
:1009B00088E090E0A0E0B0E017C080E090E0A0E028
:1009C000B0E012C080E0E81680E0F80680E008079A
:1009D00081E0180728F088E190E0A0E0B0E004C0D2
:1009E00080E190E0A0E0B0E020E230E040E050E0C4
:1009F000281B390B4A0B5B0B04C016950795F7941F
:100A0000E7948A95D2F7F701E65EFE4F8081281BB6
:100A1000310941095109C9011F910F91FF90EF90D0
:100A20000895DF92EF92FF920F931F93FC01E480F1
:100A3000F58006811781D1808081823048F480E082
:100A400090E0A0E1B0E0E82AF92A0A2B1B2BA5C010
:100A5000843009F49FC0823021F4EE24FF24870102
:100A600005C0E114F1040105110519F4E0E0F0E01E
:100A700096C0628173819FEF623879070CF05BC08A
:100A800022E83FEF261B370B2A3131052CF020E0FE
:100A900030E040E050E02AC0B801A701022E04C0B7
:100AA00076956795579547950A94D2F781E090E03F
:100AB000A0E0B0E004C0880F991FAA1FBB1F2A95B1
:100AC000D2F70197A109B1098E219F21A023B1235B
:100AD0000097A105B10521F081E090E0A0E0B0E031
:100AE0009A01AB01282B392B4A2B5B2BDA01C90168
:100AF0008F779070A070B07080349105A105B1051A
:100B000039F427FF09C0205C3F4F4F4F5F4F04C0AF
:100B1000215C3F4F4F4F5F4FE0E0F0E02030A0E01E
:100B20003A07A0E04A07A0E45A0710F0E1E0F0E03D
:100B300079018A0127C06038710564F5FB01E1582D
:100B4000FF4FD801C7018F779070A070B0708034CC
:100B50009105A105B10539F4E7FE0DC080E490E0F0
:100B6000A0E0B0E004C08FE390E0A0E0B0E0E80EC9
:100B7000F91E0A1F1B1F17FF05C016950795F7944E
:100B8000E794319687E016950795F794E7948A9550
:100B9000D1F705C0EE24FF248701EFEFF0E06E2FC0
:100BA000679566276795902F9F77D794DD24D79414
:100BB0008E2F8695492F462B582F5D29B701CA01E4
:100BC0001F910F91FF90EF90DF900895FC01DB01E2
:100BD000408151812281622F6F7770E0221F22278E
:100BE000221F9381892F880F822B282F30E0991F95
:100BF0009927991F11969C93119721153105A9F5F5
:100C0000411551056105710511F482E037C082E894
:100C10009FEF13969C938E9312979A01AB0167E016
:100C2000220F331F441F551F6A95D1F783E08C9321
:100C30000DC0220F331F441F551F12968D919C919A
:100C40001397019713969C938E931297203080E010
:100C5000380780E0480780E4580758F314962D932E
:100C60003D934D935C93179708952F3F310579F489
:100C7000411551056105710519F484E08C930895BF
:100C800064FF03C081E08C9312C01C9210C02F57E8
:100C9000304013963C932E93129783E08C9387E019
:100CA000440F551F661F771F8A95D1F770641496FD
:100CB0004D935D936D937C93179708951F93DC017B
:100CC000FB019C91923008F447C08081823008F487
:100CD00043C0943051F411961C91843099F5818170
:100CE000682F70E0611B71093FC0843021F09230A1
:100CF00031F48230B9F18181882389F12DC01196B8
:100D00001C9111978230F1F081811817D9F4129655
:100D10002D913C911397828193818217930794F0D0
:100D200028173907BCF014968D919D910D90BC91B8
:100D3000A02D2481358146815781281739074A071C
:100D40005B0718F4112341F00AC082179307A40728
:100D5000B50740F4112319F061E070E005C06FEFB2
:100D60007FEF02C060E070E0CB011F91089580EF3B
:100D70008ABB9FEF97BB94BB8FE081BB81E08BBBAD
:100D800018BA15BA92BB0895813021F48FB78068E4
:100D90008FBF0895882319F48FB78F778FBF089579
:100DA000982F613099F48FB780688FBF913041F0F0
:100DB000913018F09230F1F406C08BB7806417C000
:100DC0008BB7806814C08BB7806211C0662391F422
:100DD000813041F0813018F0823061F406C08BB769
:100DE0008F7B05C08BB78F7702C08BB78F7D8BBF92
:100DF00080E0089581E008958BB78F7B8BBF8BB720
:100E00008F778BBF8BB78F7D8BBF0895613069F073
:100E1000613028F06230A1F06330A9F521C0882349
:100E200011F0813081F585B727C0882319F0813012
:100E300051F503C085B781601FC085B784601CC0B1
:100E4000813041F0813018F08230E9F406C085B776
:100E5000826012C085B788600FC084B78F7B10C0D6
:100E6000813041F0813018F0823069F407C085B7D5
:100E7000836002C085B78C6085BF03C084B780647F
:100E800084BF80E0089581E0089585B785BF85B768
:100E900085BF84B78F7B84BF0895843010F081E0D4
:100EA0000895813049F0813028F0823039F0833064
:100EB00031F407C06ABB03C067BB01C064BB80E0FC
:100EC000089561BB80E00895843010F081E00895BA
:100ED000813049F0813028F0823039F0833031F4AC
:100EE00007C06BBB03C068BB01C065BB80E0089551
:100EF00062BB80E00895FB01843010F081E008952A
:100F0000813049F0813028F0823039F0833039F473
:100F100008C089B303C086B301C083B3808380E077
:100F2000089580B3808380E008954130B1F5813029
:100F300099F0813030F08230D1F0833009F06BC00D
:100F400021C02AB381E090E002C0880F991F6A9502
:100F5000E2F7282B2ABB5DC027B381E090E002C0F6
:100F6000880F991F6A95E2F7282B27BB52C024B33C
:100F700081E090E002C0880F991F6A95E2F7282B64
:100F800024BB47C021B381E090E002C0880F991FC5
:100F90006A95E2F7282B21BB3CC0442311F081E085
:100FA0000895813099F0813028F08230D9F0833073
:100FB00091F524C02AB381E090E002C0880F991F08
:100FC0006A95E2F7809582238ABB23C027B381E02C
:100FD00090E002C0880F991F6A95E2F780958223FE
:100FE00087BB17C024B381E090E002C0880F991F2F
:100FF0006A95E2F78095822384BB0BC021B381E020
:1010000090E002C0880F991F6A95E2F780958223CD
:1010100081BB80E0089580E008954130B1F58130D2
:1010200099F0813030F08230D1F0833009F06BC01C
:1010300021C02BB381E090E002C0880F991F6A9510
:10104000E2F7282B2BBB5DC028B381E090E002C003
:10105000880F991F6A95E2F7282B28BB52C025B349
:1010600081E090E002C0880F991F6A95E2F7282B73
:1010700025BB47C022B381E090E002C0880F991FD2
:101080006A95E2F7282B22BB3CC0442311F081E093
:101090000895813099F0813028F08230D9F0833082
:1010A00091F524C02BB381E090E002C0880F991F16
:1010B0006A95E2F7809582238BBB23C028B381E039
:1010C00090E002C0880F991F6A95E2F7809582230D
:1010D00088BB17C025B381E090E002C0880F991F3C
:1010E0006A95E2F78095822385BB0BC022B381E02D
:1010F00090E002C0880F991F6A95E2F780958223DD
:1011000082BB80E0089580E00895FA01813049F0C3
:10111000813028F0823039F0833081F406C089B301
:1011200005C086B303C083B301C080B390E002C0A2
:10113000959587956A95E2F78170808380E00895A0
:1011400080E487B986E886B90895813019F43D9A1C
:1011500080E00895882311F081E008953D9880E0B3
:10116000089597B19F73982B97B9089596B1987F7A
:10117000982B96B90895813019F4379A80E0089534
:10118000882311F081E00895379880E00895813038
:1011900039F4359A86B18F71862B86B980E008952F
:1011A000882311F081E00895359880E00895982F04
:1011B000FB0180911A02813011F083E008951092B2
:1011C0001A0287B1807E892B87B9369A86B18695B7
:1011D0008695869580FF02C080E00895349BFECFFF
:1011E000349A309711F482E0089587B182958695FC
:1011F000877080FF04C085B1808311820AC087B1E7
:1012000082958695877080FD04C084B195B19183E5
:10121000808381E080931A0280E00895982F809166
:101220001A02813011F083E0089587B161157105CC
:1012300029F44115510511F482E0089510921A0223
:10124000807E892B87B950933F0240933E02709372
:101250003D0260933C02369A339A80E008950097ED
:1012600011F482E0089590933F0280933E0280E063
:1012700008951F920F920FB60F9211242F933F9350
:101280004F935F936F937F938F939F93AF93BF938E
:10129000EF93FF9387B182958695877080FF08C092
:1012A00085B1E0913C02F0913D02808311820EC035
:1012B00087B182958695877080FD08C084B195B10D
:1012C000E0913C02F0913D029183808381E0809324
:1012D0001A02E0913E02F0913F0209953398FF9186
:1012E000EF91BF91AF919F918F917F916F915F919E
:1012F0004F913F912F910F900FBE0F901F90189517
:101300001F93162FA0E0B0E0BC01CD010E9449045C
:1013100020E030E44CE950E40E941F0220E030E07D
:1013200040E251E40E941903113039F01130B0F05D
:10133000123041F061E070E013C023E333E948E884
:1013400053E40AC026E636E646EE5FE30E941F023B
:1013500020E030E040E052E40E94F2010E944900A7
:10136000CB011F9108950E94A0080895683008F0ED
:1013700085C0843008F082C0413009F042C081301D
:10138000B1F0813030F0823001F1833009F078C063
:101390002AC08AB321E030E002C0220F331F6A95D1
:1013A000E2F7822B8ABB8BB3282B2BBB65C087B39C
:1013B00021E030E002C0220F331F6A95E2F7822B52
:1013C00087BB88B3282B28BB57C084B321E030E00B
:1013D00002C0220F331F6A95E2F7822B84BB85B3CC
:1013E000282B25BB49C081B321E030E002C0220F89
:1013F000331F6A95E2F7822B81BB82B3282B22BB75
:101400003BC0442309F03CC0813099F0813028F082
:101410008230D9F08330A1F524C02BB381E090E075
:1014200002C0880F991F6A95E2F7809582238BBBD3
:1014300023C028B381E090E002C0880F991F6A950D
:10144000E2F78095822388BB17C025B381E090E046
:1014500002C0880F991F6A95E2F78095822385BBA9
:101460000BC022B381E090E002C0880F991F6A95FB
:10147000E2F78095822382BB80E0089581E00895A1
:1014800080E008951F93182F80E065E041E00E94FE
:101490000D0880E066E040E00E940D0882E0612FC8
:1014A0000E94640780E067E041E00E940D0880EA46
:1014B0009FE00197F1F780E067E040E00E940D08AF
:1014C0001F9108951F93CF93DF93EC0110E003C0A9
:1014D0000E94420A1F5FFE01E10FF11D80818823F7
:1014E000B9F7DF91CF911F9108950F931F93DF9369
:1014F000CF93CDB7DEB760970FB6F894DEBF0FBEBF
:10150000CDBFFC019C0140E007C04F5FC9016AE00C
:1015100070E00E94DF0E9B0121153105B1F78E01AD
:101520000F5F1F4F3E2F2F2FF80110C0832F922FD8
:101530006AE070E00E94DF0E805D8193832F922F1E
:101540006AE070E00E94DF0E362F272F8E2F801B5F
:10155000841760F38E010F5F1F4F040F111D04C02D
:10156000F80180810E94420A015010400C171D07AB
:10157000B9F760960FB6F894DEBF0FBECDBFCF911E
:10158000DF911F910F9108951F93182F80E065E060
:1015900040E00E940D0880E066E040E00E940D08F7
:1015A00082E0612F0E94640780E067E041E00E94D2
:1015B0000D0880EA9FE00197F1F780E067E040E0E6
:1015C0000E940D081F91089588E00E94C40A0895A2
:1015D0008CE00E94C40A08958FE00E94C40A089516
:1015E0008CE00E94C40A08958EE00E94C40A089507
:1015F00081E0809340020E94C40A0895982F81E000
:10160000809343029093410260934202992319F020
:10161000913009F4605C862F80680E94C40A0895A6
:101620000F931F93CF93DF93062F142FC82FD0E073
:10163000C40FD11D08C0802F612F0E94FE0A80E2D6
:101640000E94420A1F5F812F90E08C179D079CF338
:10165000DF91CF911F910F910895CF92DF92EF927A
:10166000FF920F931F93CF93DF93E62EF42EC0E0EB
:10167000D0E0C42EDD24C7FCD094042F10E0081B5A
:10168000110909C06F2D6C1B8E2D0E94FE0A80E28D
:101690000E94420A2196C6018C1B9D0B0817190750
:1016A0008CF3DF91CF911F910F91FF90EF90DF901E
:1016B000CF900895DF92EF92FF920F931F93CF93F5
:1016C000DF938C01F62EE42ED22E862F880F880F02
:1016D000880F80640E94C40AC0E0D0E0F801EC0FDB
:1016E000FD1F80810E94420A2196C830D105B1F7C2
:1016F0008E2D6D2D0E94FE0A8F2D0E94420ADF91D1
:10170000CF911F910F91FF90EF90DF90089580E9A6
:1017100091E028EC30E0F9013197F1F70197D9F722
:1017200088E30E94C40A85E88A95F1F78CE00E945C
:10173000C40A81E00E94C40A08957F928F929F920A
:10174000AF92BF92CF92DF92EF92FF920F931F93CF
:10175000DF93CF930F92CDB7DEB777247A94CC2462
:10176000DD244E010894811C911CF601E85DFD4FBB
:10177000A08083E06A2D40E00E940D0804E212E0A0
:101780008CE2E82E82E0F82EEC0CFD1CF801B08013
:1017900083E06B2DA4010E9485088981882341F490
:1017A000F701708005C083E06B2DA4010E948508BD
:1017B00089818823C1F30F5F1F4F84E090E0E80E1A
:1017C000F91E92E00832190709F783E06A2D41E01B
:1017D0000E940D080894C11CD11CE4E0CE16D1046F
:1017E00021F6872D0F90CF91DF911F910F91FF90E0
:1017F000EF90DF90CF90BF90AF909F908F907F90B1
:10180000089580E064E040E00E940D0880E067E019
:1018100040E00E940D08089580E064E040E00E94EE
:101820000D0880E067E041E00E940D08089580E027
:1018300067E040E00E940D0880E064E041E00E9423
:101840000D0808959C016115710519F421E030E03F
:1018500010C041E009C0C901889F9001899F300DE7
:10186000989F300D11244F5F842F90E086179707C3
:1018700090F3C901089590E080911B0287FD91E0EB
:10188000892F08958BB391E089278BBB08958091B0
:101890001B0287FF05C080E690E00E94620A08955F
:1018A000815080931B020895E0911B02E2302CF0DE
:1018B00080E790E00E94620A0895EF5FE0931B02C8
:1018C000FF27E7FDF095E55BFD4F808308951F93AB
:1018D000CF93DF930E94B7060E94870B0E94B30943
:1018E00082E49CE00E942F09C8ECD0E08BE790E0F6
:1018F0000E94620A81E060E00E94FE0A87E890E0B0
:101900000E94620A0E949D0B80934A028F3FD1F38E
:10191000813309F035C10E94F80A81E064E472E085
:101920000E94D70880E990E00E94620A80914402F8
:101930009091450260E00E9480090E94750A88EE3D
:1019400093E0FE013197F1F70197D9F780914402B6
:101950009091450260E00E9480094E9718F00E9425
:10196000170C02C00E94010C82E066E472E00E9443
:10197000D70820914402309145022531310538F5D0
:1019800081E060E041E00E94B60981E061E041E071
:101990000E94B60981E062E041E00E94B60981E060
:1019A00063E041E00E94B60981E064E041E00E940A
:1019B000B60981E065E041E00E94B60981E066E099
:1019C00041E00E94B60981E067E041E0CFC0C90173
:1019D00045978F36910510F581E060E041E00E9467
:1019E000B60981E061E041E00E94B60981E062E071
:1019F00041E00E94B60981E063E041E00E94B6093F
:101A000081E064E041E00E94B60981E065E041E0E8
:101A10000E94B60981E066E041E0A3C0C901845894
:101A2000904089379105E8F481E060E041E00E9450
:101A3000B60981E061E041E00E94B60981E062E020
:101A400041E00E94B60981E063E041E00E94B609EE
:101A500081E064E041E00E94B60981E065E041E098
:101A60007BC0C9018D5F904089379105C0F481E04A
:101A700060E041E00E94B60981E061E041E00E943F
:101A8000B60981E062E041E00E94B60981E063E0CE
:101A900041E00E94B60981E064E041E058C0C9011C
:101AA000865791408937910598F481E060E041E0E4
:101AB0000E94B60981E061E041E00E94B60981E040
:101AC00062E041E00E94B60981E063E041E03AC093
:101AD000C9018F5E91408937910570F481E060E023
:101AE00041E00E94B60981E061E041E00E94B60950
:101AF00081E062E041E021C0C90188569240893707
:101B0000910548F481E060E041E00E94B60981E07F
:101B100061E041E00DC02A5533402937310540F5D9
:101B200081E060E041E00E94B60981E061E040E0D0
:101B30000E94B60981E062E040E00E94B60981E0BF
:101B400063E040E00E94B60981E064E040E00E946A
:101B5000B60981E065E040E00E94B60981E066E0F8
:101B600040E00E94B60981E067E040E00E94B609CB
:101B70000E949D0B80934A028F3F09F4CCCEB6CED3
:101B8000823309F0B3CE0E94F80A8CE990E00E94FB
:101B9000620A81E060E00E94FE0A8BEA90E00E9407
:101BA000620A0E949D0B80934A02813349F50E948C
:101BB000F80A89EB90E00E94620A81E060E00E94EE
:101BC000FE0A82EC90E00E94620A0E949D0B8093C4
:101BD0004A02813319F0823351F404C081E060E09D
:101BE00041E003C081E060E040E00E94B6098091DE
:101BF0004A028F3F51F3813341F3823331F3D7C02F
:101C0000823309F0D4C00E94F80A8CEC90E00E9464
:101C1000620A81E060E00E94FE0A86ED90E00E9488
:101C2000620A0E949D0B80934A028F3FD1F3813359
:101C300021F0823309F0BBC06DC00E94F80A84EE27
:101C400090E00E94620A80E197E2FE013197F1F78D
:101C50000197D9F70E94F80A10E00E949D0B80932B
:101C60004A028F3FD1F30E94420A80914A02805378
:101C70000E94540C1F5F133081F780911B02682F64
:101C8000772767FD70956115710519F421E030E043
:101C900012C041E02AE030E009C0C901889F9001EC
:101CA000899F300D989F300D11244F5F842F90E055
:101CB0008617970790F310E01BC0E12FF0E0E55B7B
:101CC000FD4F808190E0BC01629FC001639F900D39
:101CD000729F900D1124480F591F50934902409351
:101CE00048021F5FC9016AE070E00E94DF0E9B019D
:101CF000409148025091490221153105F1F6CA017F
:101D00000E94750A80E197E2FE013197F1F7019791
:101D1000D9F74DC00E94F80A87EF90E00E94620A4E
:101D200081E060E00E94FE0A83E091E00E94620A86
:101D30000E949D0B80934A02813319F0823379F51A
:101D400011C00E94F80A81E064E472E00E94D708A2
:101D500080E990E00E94620A8091440290914502DD
:101D6000019610C00E94F80A81E064E472E00E94CB
:101D7000D70880E990E00E94620A80914402909125
:101D800045020197909345028093440260E00E94CF
:101D900080090E94750A8FE091E00E94620A80919A
:101DA0004A028F3F29F2813319F2823309F20E94ED
:101DB0009D0B80934A028F3F09F4E5CE97CDAA1B75
:101DC000BB1B51E107C0AA1FBB1FA617B70710F026
:101DD000A61BB70B881F991F5A95A9F78095909558
:101DE000BC01CD0108952F923F924F925F926F9266
:101DF0007F928F929F92AF92BF92CF92DF92EF929B
:101E0000FF920F931F93CF93DF93CDB7DEB7CA1B1B
:101E1000DB0B0FB6F894DEBF0FBECDBF09942A8846
:101E2000398848885F846E847D848C849B84AA84EE
:101E3000B984C884DF80EE80FD800C811B81AA817B
:101E4000B981CE0FD11D0FB6F894DEBF0FBECDBF46
:081E5000ED010895F894FFCFA5
:101E58004E6F20446174612064656C65746564002C
:101E6800537461636B2046756C6C00312D41757439
:101E78006F6D6174696300322D4D616E75616C0020
:101E880054656D707261747572653D00312D4C69D1
:101E98006768742053797374656D00322D54656DCD
:101EA800702053797374656D00312D4C45445F4F34
:101EB8004E00322D4C45445F4F464600312D536548
:101EC8007454656D7000322D4368616E67652054E7
:101ED800656D7000456E7465722054656D702C5088
:101EE8006C656173652100312D496E6372656D659E
:101EF8006E7400322D44656372656D656E740020E2
:101F0800630000000000000000000001020203035B
:101F18000303040404040404040405050505050575
:101F28000505050505050505050506060606060653
:101F38000606060606060606060606060606060639
:101F48000606060606060606060607070707070723
:101F58000707070707070707070707070707070709
:101F680007070707070707070707070707070707F9
:101F780007070707070707070707070707070707E9
:101F880007070707070707070707080808080808D3
:101F980008080808080808080808080808080808B9
:101FA80008080808080808080808080808080808A9
:101FB8000808080808080808080808080808080899
:101FC8000808080808080808080808080808080889
:101FD8000808080808080808080808080808080879
:101FE8000808080808080808080808080808080869
:101FF8000808080808080808080808080808080859
:102008000808080808080808080801FF00409C405C
:1020180000409C40040506070001020331323334B6
:0C2028003536373839696430723030309A
:00000001FF
