:100000000C942A000C9434000C9434000C943400AA
:100010000C9434000C9434000C9434000C94340090
:100020000C9434000C9434000C9434000C94340080
:100030000C9434000C9434000C9434000C94340070
:100040000C9434000C9434000C9434000C94340060
:100050000C94340011241FBECFE5D8E0DEBFCDBF25
:100060000E9453000C9458000C940000DF93CF932F
:10007000CDB7DEB7E6E5F0E080E48083CF91DF9195
:100080000895DF93CF93CDB7DEB7CF91DF91089579
:10009000DF93CF93CDB7DEB7E6E5F0E080E2808373
:1000A000CF91DF910895DF93CF93CDB7DEB7FFCF28
:0400B000F894FFCFF2
:00000001FF
