:100000000C942A000C94230A0C944A0A0C94710A4A
:100010000C944B090C9424090C94AB0F0C94FD0820
:100020000C94D6080C94AF080C94A10F0C9488087B
:100030000C9447000C9447000C9447000C94470024
:100040000C947A0C0C9447000C9447000C944700D5
:100050000C94470011241FBECFE5D8E0DEBFCDBF12
:1000600011E0A0E6B0E0E0E4F1E202C005900D92FC
:10007000A23AB107D9F711E0A2EAB1E001C01D929E
:10008000AB3CB107E1F70E9409100C949E100C9450
:100090000000EF92FF920F931F937B018C0120E0F1
:1000A00030E040E05FE40E94F50388238CF0C80153
:1000B000B70120E030E040E05FE40E94C1010E940F
:1000C00025049B01AC01205030404040504806C000
:1000D000C801B7010E9425049B01AC01B901CA0106
:1000E0001F910F91FF90EF900895A0E0B0E0EBE733
:1000F000F0E00C946710DC012B01FA019C91923026
:1001000008F439C1EB018881823008F433C194309E
:1001100069F4843009F02FC111969C91119789815F
:10012000981709F428C1A8E7B0E025C1843009F484
:1001300021C18230A9F4923009F01DC19A01AD01AC
:1001400088E0EA010990AE01E90109929E0181501F
:10015000C1F7E201898111969C918923818308C1AD
:10016000923009F407C112962D903C901397EB0141
:100170008A819B811496AD90BD90CD90DC901797AD
:10018000EC80FD800E811F819101281B390BB90184
:1001900037FF04C066277727621B730B6032710537
:1001A0000CF061C0121613066CF537014801062EDB
:1001B00004C096948794779467940A94D2F721E0C8
:1001C00030E040E050E004C0220F331F441F551FB1
:1001D0006A95D2F721503040404050402E213F21B7
:1001E00040235123211531054105510521F021E01E
:1001F00030E040E050E079018A01E628F72808293C
:1002000019293CC0232BD1F1260E371E350146019A
:10021000062E04C096948794779467940A94D2F734
:1002200021E030E040E050E004C0220F331F441FC3
:10023000551F6A95D2F721503040404050402A2146
:100240003B214C215D21211531054105510521F04E
:1002500021E030E040E050E059016A01A628B728CB
:10026000C828D9280BC0821593052CF01C01AA249C
:10027000BB24650103C0EE24FF24870111969C91E5
:10028000D20111968C91981709F445C0992339F041
:10029000A80197012A193B094C095D0906C0A6016E
:1002A00095012E193F09400B510B57FD08C01182D3
:1002B0003382228224833583468357831DC081E0A5
:1002C00081833382228288279927DC01821B930B4A
:1002D000A40BB50B84839583A683B7830DC0220F2F
:1002E000331F441F551F24833583468357838281E0
:1002F000938101979383828324813581468157813D
:10030000DA01C9010197A109B1098F5F9F4FAF4F72
:10031000BF4328F30BC0918333822282EA0CFB1C7B
:100320000C1D1D1DE482F5820683178383E0808304
:10033000248135814681578157FF1AC0C901AA27F8
:1003400097FDA095BA2F81709070A070B0705695EF
:10035000479537952795822B932BA42BB52B848318
:100360009583A683B7838281938101969383828349
:10037000DF0101C0D201CD01CDB7DEB7E2E10C94BF
:100380008310A0E2B0E0E7ECF1E00C947310698315
:100390007A838B839C832D833E834F835887E9E048
:1003A000EE2EF12CEC0EFD1ECE010196B7010E943F
:1003B00016068E010F5E1F4FCE010596B8010E94F2
:1003C00016068A8991E089278A8BC701B801AE0198
:1003D000475E5F4F0E9475000E944105A096E6E0CF
:1003E0000C948F10A0E2B0E0E8EFF1E00C947310F1
:1003F00069837A838B839C832D833E834F835887C5
:10040000F9E0EF2EF12CEC0EFD1ECE010196B701A6
:100410000E9416068E010F5E1F4FCE010596B80191
:100420000E941606C701B801AE01475E5F4F0E94E9
:1004300075000E944105A096E6E00C948F10A0E2A2
:10044000B0E0E5E2F2E00C94671069837A838B8375
:100450009C832D833E834F835887CE010196BE0136
:10046000675F7F4F0E941606CE010596BE016F5E44
:100470007F4F0E9416069985923088F089898230D4
:10048000C8F0943019F4823051F404C0843029F457
:10049000923081F488E790E0C6C0923049F420E0C1
:1004A0009A858A89981321E02A87CE010996BBC0D4
:1004B000823049F420E09A858A89981321E02A8BBA
:1004C000CE014196B0C02D843E844F8458886D88FB
:1004D0007E888F88988CEE24FF248701AA24BB2471
:1004E000650140E050E060E070E0E0E0F0E0C10174
:1004F00081709070892BE9F0E60CF71C081D191D1E
:100500009A01AB012A0D3B1D4C1D5D1D80E090E062
:10051000A0E0B0E0E614F7040805190520F481E036
:1005200090E0A0E0B0E0BA01A901480F591F6A1F8E
:100530007B1FAA0CBB1CCC1CDD1C97FE08C081E0F5
:1005400090E0A0E0B0E0A82AB92ACA2ADB2A3196B6
:10055000E032F10549F0660C771C881C991C569412
:10056000479437942794C3CFFA85EA892B893C892D
:100570008B859C85280F391F2E5F3F4F17C0CA01FE
:1005800081709070892B61F016950795F794E79428
:1005900080E090E0A0E0B0E8E82AF92A0A2B1B2BC3
:1005A00076956795579547952F5F3F4F77FDE7CF36
:1005B0000CC0440F551F661F771F17FD4160EE0CDE
:1005C000FF1C001F111F21503040403090E05907A0
:1005D00090E0690790E4790760F32B8F3C8FDB0193
:1005E000CA018F779070A070B07080349105A1051A
:1005F000B10561F447FD0AC0E114F10401051105DC
:1006000029F0405C5F4F6F4F7F4F40781A8EFE1786
:1006100011F081E08A8F4D8F5E8F6F8F78A383E01A
:10062000898FCE0149960E944105A096E2E10C9483
:100630008310A8E1B0E0EFE1F3E00C946F10698360
:100640007A838B839C832D833E834F835887B9E0C5
:10065000EB2EF12CEC0EFD1ECE010196B7010E948F
:1006600016068E010F5E1F4FCE010596B8010E943F
:1006700016062985223008F47EC03989323010F4FC
:10068000B8017CC08A859A8989278A87243011F02D
:10069000223031F4231709F06EC068E770E06EC0B5
:1006A000343039F41D861E861F86188A1C861B86E8
:1006B00004C0323021F484E08987B7015FC02B8504
:1006C0003C858B899C89281B390B3C872B87ED84C3
:1006D000FE840F851889AD88BE88CF88D88CEA142F
:1006E000FB040C051D0540F4EE0CFF1C001F111F40
:1006F000215030403C872B8720E030E040E050E044
:1007000080E090E0A0E0B0E460E070E0EA14FB0478
:100710000C051D0540F0282B392B4A2B5B2BEA18C2
:10072000FB080C091D09B695A79597958795EE0CC2
:10073000FF1C001F111F6F5F7F4F6F31710531F775
:10074000DA01C9018F779070A070B0708034910584
:10075000A105B10561F427FD0AC0E114F10401050A
:10076000110529F0205C3F4F4F4F5F4F20782D87B8
:100770003E874F87588BBE01675F7F4FCB010E943A
:1007800041056896EAE00C948B10A8E1B0E0EBEC30
:10079000F3E00C94731069837A838B839C832D839D
:1007A0003E834F83588789E0E82EF12CEC0EFD1E26
:1007B000CE010196B7010E9416068E010F5E1F4FF3
:1007C000CE010596B8010E9416068985823040F058
:1007D0008989823028F0C701B8010E948E0601C0C5
:1007E0008FEF6896E6E00C948F10A8E1B0E0EBEF95
:1007F000F3E00C94731069837A838B839C832D833D
:100800003E834F83588789E0E82EF12CEC0EFD1EC5
:10081000CE010196B7010E9416068E010F5E1F4F92
:10082000CE010596B8010E9416068985823040F0F7
:100830008989823028F0C701B8010E948E0601C064
:100840008FEF6896E6E00C948F10ACE0B0E0EBE23E
:10085000F4E00C94771069837A838B839C83CE01B8
:100860000196BE016B5F7F4F0E9416068D8182301C
:1008700061F1823050F1843021F48E81882351F16E
:100880002EC02F81388537FD20C06E812F31310574
:100890001CF06623F9F023C08EE190E0821B930BDD
:1008A00029853A854B855C8504C0569547953795D3
:1008B00027958A95D2F76623B1F0509540953095EB
:1008C00021953F4F4F4F5F4F0EC020E030E040E09A
:1008D00050E009C02FEF3FEF4FEF5FE704C020E08B
:1008E00030E040E050E8B901CA012C96E2E00C94F7
:1008F0009310A8E0B0E0EFE7F4E00C946F107B01F8
:100900008C01611571058105910519F482E08983D7
:1009100060C083E089838EE1C82ED12CDC82CB823B
:10092000ED82FE820F831887C801B7010E94F2048E
:10093000FC013197F7FF3BC0222733272E1B3F0BCB
:1009400057016801022E04C0D694C794B794A794A7
:100950000A94D2F740E050E060E070E081E090E07F
:10096000A0E0B0E004C0880F991FAA1FBB1F2A9502
:10097000D2F70197A109B1098E219F21A023B123AC
:100980000097A105B10521F041E050E060E070E082
:100990004A295B296C297D294D835E836F83788783
:1009A0008EE190E08E1B9F0B9C838B8312C030974F
:1009B00081F00E2E04C0EE0CFF1C001F111F0A94C4
:1009C000D2F7ED82FE820F831887CE1ADF0ADC820F
:1009D000CB821A82CE0101960E9441052896EAE058
:1009E0000C948B10EF92FF920F931F937B018C015D
:1009F00080E0E81680E0F80681E0080780E018074C
:100A000088F48FEFE816F1040105110531F028F0A4
:100A100088E090E0A0E0B0E017C080E090E0A0E0C7
:100A2000B0E012C080E0E81680E0F80680E0080739
:100A300081E0180728F088E190E0A0E0B0E004C071
:100A400080E190E0A0E0B0E020E230E040E050E063
:100A5000281B390B4A0B5B0B04C016950795F794BE
:100A6000E7948A95D2F7F701E058FF4F8081281B61
:100A7000310941095109C9011F910F91FF90EF9070
:100A80000895DF92EF92FF920F931F93FC01E48091
:100A9000F58006811781D1808081823048F480E022
:100AA00090E0A0E1B0E0E82AF92A0A2B1B2BA5C0B0
:100AB000843009F49FC0823021F4EE24FF248701A2
:100AC00005C0E114F1040105110519F4E0E0F0E0BE
:100AD00096C0628173819FEF623879070CF05BC02A
:100AE00022E83FEF261B370B2A3131052CF020E09E
:100AF00030E040E050E02AC0B801A701022E04C057
:100B000076956795579547950A94D2F781E090E0DE
:100B1000A0E0B0E004C0880F991FAA1FBB1F2A9550
:100B2000D2F70197A109B1098E219F21A023B123FA
:100B30000097A105B10521F081E090E0A0E0B0E0D0
:100B40009A01AB01282B392B4A2B5B2BDA01C90107
:100B50008F779070A070B07080349105A105B105B9
:100B600039F427FF09C0205C3F4F4F4F5F4F04C04F
:100B7000215C3F4F4F4F5F4FE0E0F0E02030A0E0BE
:100B80003A07A0E04A07A0E45A0710F0E1E0F0E0DD
:100B900079018A0127C06038710564F5FB01E158CD
:100BA000FF4FD801C7018F779070A070B07080346C
:100BB0009105A105B10539F4E7FE0DC080E490E090
:100BC000A0E0B0E004C08FE390E0A0E0B0E0E80E69
:100BD000F91E0A1F1B1F17FF05C016950795F794EE
:100BE000E794319687E016950795F794E7948A95F0
:100BF000D1F705C0EE24FF248701EFEFF0E06E2F60
:100C0000679566276795902F9F77D794DD24D794B3
:100C10008E2F8695492F462B582F5D29B701CA0183
:100C20001F910F91FF90EF90DF900895FC01DB0181
:100C3000408151812281622F6F7770E0221F22272D
:100C4000221F9381892F880F822B282F30E0991F34
:100C50009927991F11969C93119721153105A9F594
:100C6000411551056105710511F482E037C082E834
:100C70009FEF13969C938E9312979A01AB0167E0B6
:100C8000220F331F441F551F6A95D1F783E08C93C1
:100C90000DC0220F331F441F551F12968D919C913A
:100CA0001397019713969C938E931297203080E0B0
:100CB000380780E0480780E4580758F314962D93CE
:100CC0003D934D935C93179708952F3F310579F429
:100CD000411551056105710519F484E08C9308955F
:100CE00064FF03C081E08C9312C01C9210C02F5788
:100CF000304013963C932E93129783E08C9387E0B9
:100D0000440F551F661F771F8A95D1F7706414969C
:100D10004D935D936D937C93179708951F93DC011A
:100D2000FB019C91923008F447C08081823008F426
:100D300043C0943051F411961C91843099F581810F
:100D4000682F70E0611B71093FC0843021F0923040
:100D500031F48230B9F18181882389F12DC0119657
:100D60001C9111978230F1F081811817D9F41296F5
:100D70002D913C911397828193818217930794F070
:100D800028173907BCF014968D919D910D90BC9158
:100D9000A02D2481358146815781281739074A07BC
:100DA0005B0718F4112341F00AC082179307A407C8
:100DB000B50740F4112319F061E070E005C06FEF52
:100DC0007FEF02C060E070E0CB011F91089583B710
:100DD000877B83BF83B7886483BF83B78F7C83BFE0
:100DE00083B7806283BF89B78D7F89BF83B7887FD0
:100DF00083BF83B7826083BF089593B7987F93BF03
:100E000093B7982B93BF089583B7887F83BF12BE93
:100E1000089583B7887F83BF08958CBF08958CBFE2
:100E2000089589B7816089BF089589B78E7F89BF8A
:100E3000089589B7826089BF089589B78D7F89BF7A
:100E4000089512BE08958FB58C7F8FBD8EB5877EB5
:100E50008EBD8FB58FBD8EB58EBD8FB58F738FBD97
:100E60008FB580688FBD8FB58F7C8FBD8FB5806249
:100E70008FBD8EB580648EBD89B78B7F89BF89B7E2
:100E80008F7E89BF89B7877F89BF89B7806289BF15
:100E90008EB5887F8EBD8EB582608EBD08958FB56C
:100EA0008F738FBD8FB580688FBD8FB58F7C8FBDE1
:100EB0008FB580628FBD0895882321F48EB58F7B16
:100EC0008EBD0895813019F48EB580648EBD08956D
:100ED0008EB5887F8EBD8EB582608EBD1DBC1CBC5C
:100EE000089526B537B5C901089597BD86BD089503
:100EF0009EB5987F9EBD9EB5982B9EBD08951DBC46
:100F00001CBC08958EB5887F8EBD08959BBD8ABD9B
:100F1000089599BD88BD089597BD86BD089589B788
:100F2000846089BF089589B78B7F89BF089589B789
:100F3000806189BF089589B78F7E89BF089589B779
:100F4000886089BF089589B7877F89BF089589B769
:100F5000806289BF089589B78F7D89BF08959DBD3F
:100F60008CBD08952CB53DB5C9010895FC016115EE
:100F7000710519F421E030E011C09C0141E009C085
:100F8000C9018E9F90018F9F300D9E9F300D1124BF
:100F90004F5F842F90E08617970790F3C90108955B
:100FA0006F927F928F929F92AF92BF92CF92DF9279
:100FB000EF92FF920F931F93CF93DF93EB017A0190
:100FC00038014901482F50E04115510519F461E0FD
:100FD00070E00CC062E070E021E003C0660F771F94
:100FE0002F5F822F90E084179507C0F380E090E098
:100FF0000E9479045B016C01B70180E090E00E94DF
:1010000079047B018C01BE0180E090E00E947904AC
:101010009B01AC01C801B7010E9419039B01AC01FF
:10102000C601B5010E941F027B018C01C401B301FE
:10103000A80197010E94C50318161CF061E070E03A
:101040000AC0C401B301A80197010E9419030E94BC
:1010500049006F5F7F4FCB01DF91CF911F910F91BF
:10106000FF90EF90DF90CF90BF90AF909F908F90C8
:101070007F906F90089585B5877B85BD85B5886421
:1010800085BD85B58F7C85BD85B5806285BD89B7F9
:101090008F7789BF85B5887F85BD85B5826085BD21
:1010A000089595B5987F95BD95B5982B95BD0895F4
:1010B00085B5887F85BD14BC089585B5887F85BDBD
:1010C000089583BD089583BD089589B7806489BF5D
:1010D000089589B78F7B89BF089589B7806889BFD4
:1010E000089589B78F7789BF089514BC08959C012E
:1010F000E62FF0E0EE0FFF1FEE55FE4F808191814D
:10110000892B11F482E008953183208380E00895D3
:101110001F920F920FB60F9211242F933F934F936C
:101120005F936F937F938F939F93AF93BF93EF934F
:10113000FF93E091A201F091A3010995FF91EF9136
:10114000BF91AF919F918F917F916F915F914F91DF
:101150003F912F910F900FBE0F901F9018951F92E7
:101160000F920FB60F9211242F933F934F935F93DB
:101170006F937F938F939F93AF93BF93EF93FF935F
:10118000E091A601F091A7010995FF91EF91BF9120
:10119000AF919F918F917F916F915F914F913F910F
:1011A0002F910F900FBE0F901F9018951F920F92C6
:1011B0000FB60F9211242F933F934F935F936F932A
:1011C0007F938F939F93AF93BF93EF93FF93E091A0
:1011D000AA01F091AB010995FF91EF91BF91AF91F9
:1011E0009F918F917F916F915F914F913F912F913F
:1011F0000F900FBE0F901F9018951F920F920FB671
:101200000F9211242F933F934F935F936F937F938C
:101210008F939F93AF93BF93EF93FF93E091A801B8
:10122000F091A9010995FF91EF91BF91AF919F9125
:101230008F917F916F915F914F913F912F910F907F
:101240000FBE0F901F9018951F920F920FB60F921E
:1012500011242F933F934F935F936F937F938F93BB
:101260009F93AF93BF93EF93FF93E091AE01F09103
:10127000AF010995FF91EF91BF91AF919F918F9130
:101280007F916F915F914F913F912F910F900FBE82
:101290000F901F9018951F920F920FB60F92112466
:1012A0002F933F934F935F936F937F938F939F936E
:1012B000AF93BF93EF93FF93E091B001F091B10131
:1012C0000995FF91EF91BF91AF919F918F917F9180
:1012D0006F915F914F913F912F910F900FBE0F90A3
:1012E0001F90189580EF8ABB8FEF87BB84BB8BEB79
:1012F00081BB81E08BBB18BA15BA12BA0895813050
:1013000021F48FB780688FBF0895882319F48FB7B1
:101310008F778FBF0895982F613099F48FB78068C9
:101320008FBF913041F0913018F09230F1F406C047
:101330008BB7806417C08BB7806814C08BB780628E
:1013400011C0662391F4813041F0813018F0823071
:1013500061F406C08BB78F7B05C08BB78F7702C057
:101360008BB78F7D8BBF80E0089581E008958FB7A4
:1013700080688FBF8BB780648BBF8BB78F778BBF35
:101380008BB78F7D8BBF089595B7613081F0613049
:1013900028F06230B9F06330B1F524C0882319F029
:1013A000813089F502C09C7F27C0937F25C08823A8
:1013B00019F0813041F503C09C7F91601DC0937F7F
:1013C00094601AC0813041F0813018F08230D9F435
:1013D00006C09C7F926010C0937F98600DC084B758
:1013E0008F7B0EC0813039F0813018F0823059F493
:1013F00005C0936001C09C6095BF03C084B7806442
:1014000084BF80E0089581E0089585B78C7F85BF13
:1014100085B7826085BF85B7837F85BF85B78C60C0
:1014200085BF84B78F7B84BF0895009711F482E055
:101430000895E62FF0E0EE0FFF1FEE54FE4F91836C
:10144000808380E008951F920F920FB60F921124AF
:101450002F933F934F935F936F937F938F939F93BC
:10146000AF93BF93EF93FF93E091B201F091B3017B
:101470000995FF91EF91BF91AF919F918F917F91CE
:101480006F915F914F913F912F910F900FBE0F90F1
:101490001F9018951F920F920FB60F9211242F9341
:1014A0003F934F935F936F937F938F939F93AF93EC
:1014B000BF93EF93FF93E091B401F091B5010995CB
:1014C000FF91EF91BF91AF919F918F917F916F911C
:1014D0005F914F913F912F910F900FBE0F901F90F2
:1014E00018951F920F920FB60F9211242F933F93CE
:1014F0004F935F936F937F938F939F93AF93BF931C
:10150000EF93FF93E091B601F091B7010995FF9138
:10151000EF91BF91AF919F918F917F916F915F916B
:101520004F913F912F910F900FBE0F901F901895E4
:10153000843010F081E00895813049F0813028F046
:10154000823039F0833031F407C06ABB03C067BB17
:1015500001C064BB80E0089561BB80E008958430E1
:1015600010F081E00895813049F0813028F0823018
:1015700039F0833031F407C06BBB03C068BB01C0D6
:1015800065BB80E0089562BB80E00895FB01843074
:1015900010F081E00895813049F0813028F08230E8
:1015A00039F0833039F408C089B303C086B301C071
:1015B00083B3808380E0089580B3808380E00895C2
:1015C0004130B1F5813099F0813030F08230D1F086
:1015D000833009F06BC021C02AB381E090E002C0E3
:1015E000880F991F6A95E2F7282B2ABB5DC027B3A5
:1015F00081E090E002C0880F991F6A95E2F7282BDE
:1016000027BB52C024B381E090E002C0880F991F2D
:101610006A95E2F7282B24BB47C021B381E090E014
:1016200002C0880F991F6A95E2F7282B21BB3CC0A6
:10163000442311F081E00895813099F0813028F041
:101640008230D9F0833091F524C02AB381E090E054
:1016500002C0880F991F6A95E2F7809582238ABBA2
:1016600023C027B381E090E002C0880F991F6A95DC
:10167000E2F78095822387BB17C024B381E090E016
:1016800002C0880F991F6A95E2F78095822384BB78
:101690000BC021B381E090E002C0880F991F6A95CA
:1016A000E2F78095822381BB80E0089580E0089571
:1016B0004130B1F5813099F0813030F08230D1F095
:1016C000833009F06BC021C02BB381E090E002C0F1
:1016D000880F991F6A95E2F7282B2BBB5DC028B3B2
:1016E00081E090E002C0880F991F6A95E2F7282BED
:1016F00028BB52C025B381E090E002C0880F991F3B
:101700006A95E2F7282B25BB47C022B381E090E021
:1017100002C0880F991F6A95E2F7282B22BB3CC0B4
:10172000442311F081E00895813099F0813028F050
:101730008230D9F0833091F524C02BB381E090E062
:1017400002C0880F991F6A95E2F7809582238BBBB0
:1017500023C028B381E090E002C0880F991F6A95EA
:10176000E2F78095822388BB17C025B381E090E023
:1017700002C0880F991F6A95E2F78095822385BB86
:101780000BC022B381E090E002C0880F991F6A95D8
:10179000E2F78095822382BB80E0089580E008957F
:1017A000FA01813049F0813028F0823039F08330FD
:1017B00081F406C089B305C086B303C083B301C0FA
:1017C00080B390E002C0959587956A95E2F78170A5
:1017D000808380E0089580E487B986E886B908951B
:1017E000813019F43D9A80E00895882311F081E05A
:1017F00008953D9880E0089597B19F73982B97B90D
:10180000089596B1987F982B96B90895813019F470
:10181000379A80E00895882311F081E00895379881
:1018200080E00895813039F4359A86B18F71862B26
:1018300086B980E00895882311F081E008953598F5
:1018400080E00895982FFB0180918001813011F094
:1018500083E008951092800187B1807E892B87B93B
:10186000369A86B186958695869580FF02C080E07F
:101870000895349BFECF349A309711F482E0089596
:1018800087B182958695877080FF04C085B180837B
:1018900011820AC087B182958695877080FD04C049
:1018A00084B195B19183808381E08093800180E051
:1018B0000895982F80918001813011F083E0089580
:1018C00087B16115710529F44115510511F482E0C4
:1018D000089510928001807E892B87B95093BB01B7
:1018E0004093BA017093B9016093B801369A339A64
:1018F00080E008951F920F920FB60F9211242F933C
:101900003F934F935F936F937F938F939F93AF9387
:10191000BF93EF93FF9387B182958695877080FF81
:1019200008C085B1E091B801F091B90180831182BE
:101930000EC087B182958695877080FD08C084B1FE
:1019400095B1E091B801F091B9019183808381E074
:1019500080938001E091BA01F091BB010995339821
:10196000FF91EF91BF91AF919F918F917F916F9177
:101970005F914F913F912F910F900FBE0F901F904D
:101980001895613061F499BD88BD80E991E028EC3B
:1019900030E0F9013197F1F70197D9F708956623FF
:1019A00059F49BBD8ABD80E991E028EC30E0F90153
:1019B0003197F1F70197D9F70895EF92FF920F93BE
:1019C0001F93FC017A01081B190BE61BF70BCA01D8
:1019D000821B930BBF010E945410069F9001079F2A
:1019E000300D169F300D11242E0D3F1DC9011F9182
:1019F0000F91FF90EF9008950E94230708951F9381
:101A0000162FA0E0B0E0BC01CD010E94790420E0D7
:101A100030E44CE950E40E941F0220E030E040E254
:101A200051E40E941903113039F01130B0F0123036
:101A300041F061E070E013C023E333E948E853E488
:101A40000AC026E636E646EE5FE30E941F0220E06B
:101A500030E040E052E40E94F2010E944900CB01D4
:101A60001F9108950E94EB0B0895683008F085C01F
:101A7000843008F082C0413009F042C08130B1F0BA
:101A8000813030F0823001F1833009F078C02AC013
:101A90008AB321E030E002C0220F331F6A95E2F7DB
:101AA000822B8ABB8BB3282B2BBB65C087B321E06D
:101AB00030E002C0220F331F6A95E2F7822B87BB0A
:101AC00088B3282B28BB57C084B321E030E002C084
:101AD000220F331F6A95E2F7822B84BB85B3282B34
:101AE00025BB49C081B321E030E002C0220F331F83
:101AF0006A95E2F7822B81BB82B3282B22BB3BC0C5
:101B0000442309F03CC0813099F0813028F08230C4
:101B1000D9F08330A1F524C02BB381E090E002C05E
:101B2000880F991F6A95E2F7809582238BBB23C0AB
:101B300028B381E090E002C0880F991F6A95E2F710
:101B40008095822388BB17C025B381E090E002C056
:101B5000880F991F6A95E2F78095822385BB0BC099
:101B600022B381E090E002C0880F991F6A95E2F7E6
:101B70008095822382BB80E0089581E0089580E013
:101B800008951F93182F83E067E041E00E94580BEF
:101B900083E064E040E00E94580B82E0612F0E94E5
:101BA000AF0A83E065E041E00E94580B80EA9FE0C5
:101BB0000197F1F783E065E040E00E94580B1F9128
:101BC00008951F93CF93DF93EC0110E003C00E94B0
:101BD000C10D1F5FFE01E10FF11D80818823B9F760
:101BE000DF91CF911F9108950F931F93DF93CF93B0
:101BF000CDB7DEB760970FB6F894DEBF0FBECDBF8E
:101C0000FC019C0140E007C04F5FC9016AE070E041
:101C10000E9440109B0121153105B1F78E010F5F25
:101C20001F4F3E2F2F2FF80110C0832F922F6AE0F5
:101C300070E00E944010805D8193832F922F6AE0B4
:101C400070E00E944010362F272F8E2F801B8417A4
:101C500060F38E010F5F1F4F040F111D04C0F801C8
:101C600080810E94C10D015010400C171D07B9F76B
:101C700060960FB6F894DEBF0FBECDBFCF91DF9157
:101C80001F910F9108951F93182F83E067E040E0A4
:101C90000E94580B83E064E040E00E94580B82E011
:101CA000612F0E94AF0A83E065E041E00E94580B7B
:101CB00080EA9FE00197F1F783E065E040E00E9451
:101CC000580B1F91089588E00E94430E08958CE000
:101CD0000E94430E08958FE00E94430E08958CE009
:101CE0000E94430E08958EE00E94430E089581E005
:101CF0008093BC010E94430E0895982F81E0809349
:101D0000BF019093BD016093BE01992319F09130FA
:101D100009F4605C862F80680E94430E08950F933B
:101D20001F93CF93DF93062F142FC82FD0E0C40F3B
:101D3000D11D08C0802F612F0E947D0E80E20E947D
:101D4000C10D1F5F812F90E08C179D079CF3DF91E1
:101D5000CF911F910F910895CF92DF92EF92FF9252
:101D60000F931F93CF93DF93E62EF42EC0E0D0E0C5
:101D7000C42EDD24C7FCD094042F10E0081B1109E9
:101D800009C06F2D6C1B8E2D0E947D0E80E20E947B
:101D9000C10D2196C6018C1B9D0B081719078CF3EA
:101DA000DF91CF911F910F91FF90EF90DF90CF9037
:101DB0000895DF92EF92FF920F931F93CF93DF93DB
:101DC0008C01F62EE42ED22E862F880F880F880FD6
:101DD00080640E94430EC0E0D0E0F801EC0FFD1FCC
:101DE00080810E94C10D2196C830D105B1F78E2D9A
:101DF0006D2D0E947D0E8F2D0E94C10DDF91CF9120
:101E00001F910F91FF90EF90DF90089580E991E08E
:101E100028EC30E0F9013197F1F70197D9F788E321
:101E20000E94430E85E88A95F1F78CE00E94430EEC
:101E300081E00E94430E08957F928F929F92AF920D
:101E4000BF92CF92DF92EF92FF920F931F93DF9397
:101E5000CF930F92CDB7DEB777247A94CC24DD24CC
:101E60004E010894811C911CF601E357FE4FA0809F
:101E700083E06A2D40E00E94580B09E811E081E9F7
:101E8000E82E81E0F82EEC0CFD1CF801B08083E018
:101E90006B2DA4010E94D00B8981882341F4F701A6
:101EA000708005C083E06B2DA4010E94D00B898156
:101EB0008823C1F30F5F1F4F84E090E0E80EF91E06
:101EC00091E00D38190709F783E06A2D41E00E947F
:101ED000580B0894C11CD11CE4E0CE16D10421F6A5
:101EE000872D0F90CF91DF911F910F91FF90EF9071
:101EF000DF90CF90BF90AF909F908F907F9008958C
:101F000080E064E040E00E94580B80E067E040E041
:101F10000E94580B089580E064E040E00E94580B56
:101F200080E067E041E00E94580B089580E067E0A0
:101F300040E00E94580B80E064E041E00E94580BB2
:101F400008951F920F920FB60F9211240F900FBE9B
:101F50000F901F9018951F920F920FB60F92112499
:101F60002F933F934F935F936F937F938F939F93A1
:101F7000AF93BF93EF93FF938091C401882359F4EB
:101F80000E9471079093CA018093C90180E00E946A
:101F90005C0781E016C08130B9F40E94710790930C
:101FA000C8018093C7012091C9013091CA01821BE9
:101FB000930B9093C3018093C20181E00E945C0760
:101FC00082E08093C40114C0823091F40E947107B2
:101FD0009093C6018093C5012091C9013091CA0137
:101FE000821B930B9093C1018093C0011092C40196
:101FF000FF91EF91BF91AF919F918F917F916F91E1
:102000005F914F913F912F910F900FBE0F901F90B6
:1020100018950E9472090E94060F81E00E947F09B4
:102020000E94E70680E40E940F070E942307809128
:10203000C2019091C301892B31F48091C00190912C
:10204000C101892BA1F380E060E00E947D0E80E653
:1020500090E00E94E10D8091C2019091C3010E9425
:10206000F40D81E060E00E947D0E8AE690E00E941F
:10207000E10D8091C0019091C1010E94F40DD7CF74
:10208000AA1BBB1B51E107C0AA1FBB1FA617B7079E
:1020900010F0A61BB70B881F991F5A95A9F78095BA
:1020A0009095BC01CD01089597FB092E07260AD013
:1020B00077FD04D0E5DF06D000201AF47095619515
:1020C0007F4F0895F6F7909581959F4F08952F9231
:1020D0003F924F925F926F927F928F929F92AF92B8
:1020E000BF92CF92DF92EF92FF920F931F93CF9305
:1020F000DF93CDB7DEB7CA1BDB0B0FB6F894DEBF9C
:102100000FBECDBF09942A88398848885F846E84C1
:102110007D848C849B84AA84B984C884DF80EE800B
:10212000FD800C811B81AA81B981CE0FD11D0FB614
:10213000F894DEBF0FBECDBFED010895F894FFCF38
:102140004F4E5F54696D65203D00506572696F6444
:102150005F74696D65203D00000000000000000014
:10216000000102020303030304040404040404043E
:10217000050505050505050505050505050505050F
:1021800006060606060606060606060606060606EF
:1021900006060606060606060606060606060606DF
:1021A00007070707070707070707070707070707BF
:1021B00007070707070707070707070707070707AF
:1021C000070707070707070707070707070707079F
:1021D000070707070707070707070707070707078F
:1021E000080808080808080808080808080808086F
:1021F000080808080808080808080808080808085F
:10220000080808080808080808080808080808084E
:10221000080808080808080808080808080808083E
:10222000080808080808080808080808080808082E
:10223000080808080808080808080808080808081E
:10224000080808080808080808080808080808080E
:1022500008080808080808080808080808080808FE
:102260000100409C4000409C40040506070001021C
:1022700003313233343536373839696430723030AF
:0222800030002C
:00000001FF
