:100000000C942A000C94F0000C9417010C943E01FF
:100010000C943C000C943C000C943C000C943C0070
:100020000C943C000C943C000C943C000C943C0060
:100030000C943C000C943C000C943C000C943C0050
:100040000C943C000C943C000C943C000C943C0040
:100050000C943C0011241FBECFE5D8E0DEBFCDBF1D
:1000600010E0A0E6B0E001C01D92A636B107E1F7AE
:100070000E94BD020C94CC020C94000083EF8ABB5A
:1000800017BA8FEF84BB8BEF81BB8CEF8BBB18BA99
:1000900015BA84E082BB0895813021F48FB780685F
:1000A0008FBF0895882319F48FB78F778FBF089576
:1000B000982F613099F48FB780688FBF913041F0ED
:1000C000913018F09230F1F406C08BB7806417C0FD
:1000D0008BB7806814C08BB7806211C0662391F41F
:1000E000813041F0813018F0823061F406C08BB766
:1000F0008F7B05C08BB78F7702C08BB78F7D8BBF8F
:1001000080E0089581E008958FB780688FBF8BB736
:1001100080648BBF8BB78F778BBF8BB78F7D8BBF87
:10012000089595B7613081F0613028F06230B9F000
:100130006330B1F524C0882319F0813089F502C0FD
:100140009C7F27C0937F25C0882319F0813041F51B
:1001500003C09C7F91601DC0937F94601AC0813062
:1001600041F0813018F08230D9F406C09C7F926053
:1001700010C0937F98600DC084B78F7B0EC0813014
:1001800039F0813018F0823059F405C0936001C015
:100190009C6095BF03C084B7806484BF80E00895ED
:1001A00081E0089585B78C7F85BF85B7826085BF64
:1001B00085B7837F85BF85B78C6085BF84B78F7B0C
:1001C00084BF0895009711F482E00895E62FF0E0CF
:1001D000EE0FFF1FE05AFF4F9183808380E0089568
:1001E0001F920F920FB60F9211242F933F934F93AC
:1001F0005F936F937F938F939F93AF93BF93EF938F
:10020000FF93E0916000F09161000995FF91EF91FB
:10021000BF91AF919F918F917F916F915F914F911E
:100220003F912F910F900FBE0F901F9018951F9226
:100230000F920FB60F9211242F933F934F935F931A
:100240006F937F938F939F93AF93BF93EF93FF939E
:10025000E0916200F09163000995FF91EF91BF91E9
:10026000AF919F918F917F916F915F914F913F914E
:100270002F910F900FBE0F901F9018951F920F9205
:100280000FB60F9211242F933F934F935F936F9369
:100290007F938F939F93AF93BF93EF93FF93E091DF
:1002A0006400F09165000995FF91EF91BF91AF91C6
:1002B0009F918F917F916F915F914F913F912F917E
:1002C0000F900FBE0F901F901895843010F081E0B2
:1002D0000895813049F0813028F0823039F0833040
:1002E00031F407C06ABB03C067BB01C064BB80E0D8
:1002F000089561BB80E00895843010F081E0089596
:10030000813049F0813028F0823039F0833031F487
:1003100007C06BBB03C068BB01C065BB80E008952C
:1003200062BB80E00895FB01843010F081E0089505
:10033000813049F0813028F0823039F0833039F44F
:1003400008C089B303C086B301C083B3808380E053
:10035000089580B3808380E008954130B1F5813005
:1003600099F0813030F08230D1F0833009F06BC0E9
:1003700021C02AB381E090E002C0880F991F6A95DE
:10038000E2F7282B2ABB5DC027B381E090E002C0D2
:10039000880F991F6A95E2F7282B27BB52C024B318
:1003A00081E090E002C0880F991F6A95E2F7282B40
:1003B00024BB47C021B381E090E002C0880F991FA1
:1003C0006A95E2F7282B21BB3CC0442311F081E061
:1003D0000895813099F0813028F08230D9F083304F
:1003E00091F524C02AB381E090E002C0880F991FE4
:1003F0006A95E2F7809582238ABB23C027B381E008
:1004000090E002C0880F991F6A95E2F780958223D9
:1004100087BB17C024B381E090E002C0880F991F0A
:100420006A95E2F78095822384BB0BC021B381E0FB
:1004300090E002C0880F991F6A95E2F780958223A9
:1004400081BB80E0089580E008954130B1F58130AE
:1004500099F0813030F08230D1F0833009F06BC0F8
:1004600021C02BB381E090E002C0880F991F6A95EC
:10047000E2F7282B2BBB5DC028B381E090E002C0DF
:10048000880F991F6A95E2F7282B28BB52C025B325
:1004900081E090E002C0880F991F6A95E2F7282B4F
:1004A00025BB47C022B381E090E002C0880F991FAE
:1004B0006A95E2F7282B22BB3CC0442311F081E06F
:1004C0000895813099F0813028F08230D9F083305E
:1004D00091F524C02BB381E090E002C0880F991FF2
:1004E0006A95E2F7809582238BBB23C028B381E015
:1004F00090E002C0880F991F6A95E2F780958223E9
:1005000088BB17C025B381E090E002C0880F991F17
:100510006A95E2F78095822385BB0BC022B381E008
:1005200090E002C0880F991F6A95E2F780958223B8
:1005300082BB80E0089580E00895FA01813049F09F
:10054000813028F0823039F0833081F406C089B3DD
:1005500005C086B303C083B301C080B390E002C07E
:10056000959587956A95E2F78170808380E008957C
:100570008BB391E089278BBB08950E943E0088EBE6
:1005800092E060E00E94E20081E00E944C000E9444
:0C05900084000E94D200FFCFF894FFCF3F
:00000001FF
