:100000000C942A000C9447000C9447000C94470071
:100010000C9447000C9447000C9447000C94221752
:100020000C9447000C9447000C9447000C94470034
:100030000C9447000C9447000C9447000C94470024
:100040000C9447000C9447000C9447000C94470014
:100050000C94470011241FBECFE5D8E0DEBFCDBF12
:1000600011E0A0E6B0E0EAEFF5E402C005900D92E1
:10007000A438B107D9F714E0A4E8B1E001C01D929B
:10008000AF37B107E1F70E94B6130C94FB220C9432
:100090000000EF92FF920F931F937B018C0120E0F1
:1000A00030E040E05FE40E94F50388238CF0C80153
:1000B000B70120E030E040E05FE40E94C1010E940F
:1000C00055049B01AC01205030404040504806C0D0
:1000D000C801B7010E9455049B01AC01B901CA01D6
:1000E0001F910F91FF90EF900895A0E0B0E0EBE733
:1000F000F0E00C94A522DC012B01FA019C919230D6
:1001000008F439C1EB018881823008F433C194309E
:1001100069F4843009F02FC111969C91119789815F
:10012000981709F428C1A9E7B0E025C1843009F483
:1001300021C18230A9F4923009F01DC19A01AD01AC
:1001400088E0EA010990AE01E90109929E0181501F
:10015000C1F7E201898111969C918923818308C1AD
:10016000923009F407C112962D903C901397EB0141
:100170008A819B811496AD90BD90CD90DC901797AD
:10018000EC80FD800E811F819101281B390BB90184
:1001900037FF04C066277727621B730B6032710537
:1001A0000CF061C0121613066CF537014801062EDB
:1001B00004C096948794779467940A94D2F721E0C8
:1001C00030E040E050E004C0220F331F441F551FB1
:1001D0006A95D2F721503040404050402E213F21B7
:1001E00040235123211531054105510521F021E01E
:1001F00030E040E050E079018A01E628F72808293C
:1002000019293CC0232BD1F1260E371E350146019A
:10021000062E04C096948794779467940A94D2F734
:1002200021E030E040E050E004C0220F331F441FC3
:10023000551F6A95D2F721503040404050402A2146
:100240003B214C215D21211531054105510521F04E
:1002500021E030E040E050E059016A01A628B728CB
:10026000C828D9280BC0821593052CF01C01AA249C
:10027000BB24650103C0EE24FF24870111969C91E5
:10028000D20111968C91981709F445C0992339F041
:10029000A80197012A193B094C095D0906C0A6016E
:1002A00095012E193F09400B510B57FD08C01182D3
:1002B0003382228224833583468357831DC081E0A5
:1002C00081833382228288279927DC01821B930B4A
:1002D000A40BB50B84839583A683B7830DC0220F2F
:1002E000331F441F551F24833583468357838281E0
:1002F000938101979383828324813581468157813D
:10030000DA01C9010197A109B1098F5F9F4FAF4F72
:10031000BF4328F30BC0918333822282EA0CFB1C7B
:100320000C1D1D1DE482F5820683178383E0808304
:10033000248135814681578157FF1AC0C901AA27F8
:1003400097FDA095BA2F81709070A070B0705695EF
:10035000479537952795822B932BA42BB52B848318
:100360009583A683B7838281938101969383828349
:10037000DF0101C0D201CD01CDB7DEB7E2E10C94BF
:10038000C122A0E2B0E0E7ECF1E00C94B122698375
:100390007A838B839C832D833E834F835887E9E048
:1003A000EE2EF12CEC0EFD1ECE010196B7010E943F
:1003B00046068E010F5E1F4FCE010596B8010E94C2
:1003C00046068A8991E089278A8BC701B801AE0168
:1003D000475E5F4F0E9475000E947105A096E6E09F
:1003E0000C94CD22A0E2B0E0E8EFF1E00C94B12251
:1003F00069837A838B839C832D833E834F835887C5
:10040000F9E0EF2EF12CEC0EFD1ECE010196B701A6
:100410000E9446068E010F5E1F4FCE010596B80161
:100420000E944606C701B801AE01475E5F4F0E94B9
:1004300075000E947105A096E6E00C94CD22A0E222
:10044000B0E0E5E2F2E00C94A52269837A838B8325
:100450009C832D833E834F835887CE010196BE0136
:10046000675F7F4F0E944606CE010596BE016F5E14
:100470007F4F0E9446069985923088F089898230A4
:10048000C8F0943019F4823051F404C0843029F457
:10049000923081F489E790E0C6C0923049F420E0C0
:1004A0009A858A89981321E02A87CE010996BBC0D4
:1004B000823049F420E09A858A89981321E02A8BBA
:1004C000CE014196B0C02D843E844F8458886D88FB
:1004D0007E888F88988CEE24FF248701AA24BB2471
:1004E000650140E050E060E070E0E0E0F0E0C10174
:1004F00081709070892BE9F0E60CF71C081D191D1E
:100500009A01AB012A0D3B1D4C1D5D1D80E090E062
:10051000A0E0B0E0E614F7040805190520F481E036
:1005200090E0A0E0B0E0BA01A901480F591F6A1F8E
:100530007B1FAA0CBB1CCC1CDD1C97FE08C081E0F5
:1005400090E0A0E0B0E0A82AB92ACA2ADB2A3196B6
:10055000E032F10549F0660C771C881C991C569412
:10056000479437942794C3CFFA85EA892B893C892D
:100570008B859C85280F391F2E5F3F4F17C0CA01FE
:1005800081709070892B61F016950795F794E79428
:1005900080E090E0A0E0B0E8E82AF92A0A2B1B2BC3
:1005A00076956795579547952F5F3F4F77FDE7CF36
:1005B0000CC0440F551F661F771F17FD4160EE0CDE
:1005C000FF1C001F111F21503040403090E05907A0
:1005D00090E0690790E4790760F32B8F3C8FDB0193
:1005E000CA018F779070A070B07080349105A1051A
:1005F000B10561F447FD0AC0E114F10401051105DC
:1006000029F0405C5F4F6F4F7F4F40781A8EFE1786
:1006100011F081E08A8F4D8F5E8F6F8F78A383E01A
:10062000898FCE0149960E947105A096E2E10C9453
:10063000C122A8E1B0E0EFE1F3E00C94AD226983C0
:100640007A838B839C832D833E834F835887B9E0C5
:10065000EB2EF12CEC0EFD1ECE010196B7010E948F
:1006600046068E010F5E1F4FCE010596B8010E940F
:1006700046062985223008F47EC03989323010F4CC
:10068000B8017CC08A859A8989278A87243011F02D
:10069000223031F4231709F06EC069E770E06EC0B4
:1006A000343039F41D861E861F86188A1C861B86E8
:1006B00004C0323021F484E08987B7015FC02B8504
:1006C0003C858B899C89281B390B3C872B87ED84C3
:1006D000FE840F851889AD88BE88CF88D88CEA142F
:1006E000FB040C051D0540F4EE0CFF1C001F111F40
:1006F000215030403C872B8720E030E040E050E044
:1007000080E090E0A0E0B0E460E070E0EA14FB0478
:100710000C051D0540F0282B392B4A2B5B2BEA18C2
:10072000FB080C091D09B695A79597958795EE0CC2
:10073000FF1C001F111F6F5F7F4F6F31710531F775
:10074000DA01C9018F779070A070B0708034910584
:10075000A105B10561F427FD0AC0E114F10401050A
:10076000110529F0205C3F4F4F4F5F4F20782D87B8
:100770003E874F87588BBE01675F7F4FCB010E943A
:1007800071056896EAE00C94C922A8E1B0E0EBECB0
:10079000F3E00C94B12269837A838B839C832D834D
:1007A0003E834F83588789E0E82EF12CEC0EFD1E26
:1007B000CE010196B7010E9446068E010F5E1F4FC3
:1007C000CE010596B8010E9446068985823040F028
:1007D0008989823028F0C701B8010E94BE0601C095
:1007E0008FEF6896E6E00C94CD22A8E1B0E0EBEF45
:1007F000F3E00C94B12269837A838B839C832D83ED
:100800003E834F83588789E0E82EF12CEC0EFD1EC5
:10081000CE010196B7010E9446068E010F5E1F4F62
:10082000CE010596B8010E9446068985823040F0C7
:100830008989823028F0C701B8010E94BE0601C034
:100840008FEF6896E6E00C94CD22A8E1B0E0EBE2F1
:10085000F4E00C94B12269837A838B839C832D838B
:100860003E834F83588789E0E82EF12CEC0EFD1E65
:10087000CE010196B7010E9446068E010F5E1F4F02
:10088000CE010596B8010E9446068985823040F067
:100890008989823028F0C701B8010E94BE0601C0D4
:1008A00081E06896E6E00C94CD22ACE0B0E0EBE5A8
:1008B000F4E00C94B52269837A838B839C83CE0108
:1008C0000196BE016B5F7F4F0E9446068D8182308C
:1008D00061F1823050F1843021F48E81882351F10E
:1008E0002EC02F81388537FD20C06E812F31310514
:1008F0001CF06623F9F023C08EE190E0821B930B7D
:1009000029853A854B855C8504C056954795379572
:1009100027958A95D2F76623B1F05095409530958A
:1009200021953F4F4F4F5F4F0EC020E030E040E039
:1009300050E009C02FEF3FEF4FEF5FE704C020E02A
:1009400030E040E050E8B901CA012C96E2E00C9496
:10095000D122A8E0B0E0EFEAF4E00C94AD227B01F4
:100960008C01611571058105910519F482E0898377
:1009700060C083E089838EE1C82ED12CDC82CB82DB
:10098000ED82FE820F831887C801B7010E942205FD
:10099000FC013197F7FF3BC0222733272E1B3F0B6B
:1009A00057016801022E04C0D694C794B794A79447
:1009B0000A94D2F740E050E060E070E081E090E01F
:1009C000A0E0B0E004C0880F991FAA1FBB1F2A95A2
:1009D000D2F70197A109B1098E219F21A023B1234C
:1009E0000097A105B10521F041E050E060E070E022
:1009F0004A295B296C297D294D835E836F83788723
:100A00008EE190E08E1B9F0B9C838B8312C03097EE
:100A100081F00E2E04C0EE0CFF1C001F111F0A9463
:100A2000D2F7ED82FE820F831887CE1ADF0ADC82AE
:100A3000CB821A82CE0101960E9471052896EAE0C7
:100A40000C94C922EF92FF920F931F937B018C01AC
:100A500080E0E81680E0F80681E0080780E01807EB
:100A600088F48FEFE816F1040105110531F028F044
:100A700088E090E0A0E0B0E017C080E090E0A0E067
:100A8000B0E012C080E0E81680E0F80680E00807D9
:100A900081E0180728F088E190E0A0E0B0E004C011
:100AA00080E190E0A0E0B0E020E230E040E050E003
:100AB000281B390B4A0B5B0B04C016950795F7945E
:100AC000E7948A95D2F7F701EF57FF4F8081281BF3
:100AD000310941095109C9011F910F91FF90EF9010
:100AE0000895DF92EF92FF920F931F93FC01E48031
:100AF000F58006811781D1808081823048F480E0C2
:100B000090E0A0E1B0E0E82AF92A0A2B1B2BA5C04F
:100B1000843009F49FC0823021F4EE24FF24870141
:100B200005C0E114F1040105110519F4E0E0F0E05D
:100B300096C0628173819FEF623879070CF05BC0C9
:100B400022E83FEF261B370B2A3131052CF020E03D
:100B500030E040E050E02AC0B801A701022E04C0F6
:100B600076956795579547950A94D2F781E090E07E
:100B7000A0E0B0E004C0880F991FAA1FBB1F2A95F0
:100B8000D2F70197A109B1098E219F21A023B1239A
:100B90000097A105B10521F081E090E0A0E0B0E070
:100BA0009A01AB01282B392B4A2B5B2BDA01C901A7
:100BB0008F779070A070B07080349105A105B10559
:100BC00039F427FF09C0205C3F4F4F4F5F4F04C0EF
:100BD000215C3F4F4F4F5F4FE0E0F0E02030A0E05E
:100BE0003A07A0E04A07A0E45A0710F0E1E0F0E07D
:100BF00079018A0127C06038710564F5FB01E1586D
:100C0000FF4FD801C7018F779070A070B07080340B
:100C10009105A105B10539F4E7FE0DC080E490E02F
:100C2000A0E0B0E004C08FE390E0A0E0B0E0E80E08
:100C3000F91E0A1F1B1F17FF05C016950795F7948D
:100C4000E794319687E016950795F794E7948A958F
:100C5000D1F705C0EE24FF248701EFEFF0E06E2FFF
:100C6000679566276795902F9F77D794DD24D79453
:100C70008E2F8695492F462B582F5D29B701CA0123
:100C80001F910F91FF90EF90DF900895FC01DB0121
:100C9000408151812281622F6F7770E0221F2227CD
:100CA000221F9381892F880F822B282F30E0991FD4
:100CB0009927991F11969C93119721153105A9F534
:100CC000411551056105710511F482E037C082E8D4
:100CD0009FEF13969C938E9312979A01AB0167E056
:100CE000220F331F441F551F6A95D1F783E08C9361
:100CF0000DC0220F331F441F551F12968D919C91DA
:100D00001397019713969C938E931297203080E04F
:100D1000380780E0480780E4580758F314962D936D
:100D20003D934D935C93179708952F3F310579F4C8
:100D3000411551056105710519F484E08C930895FE
:100D400064FF03C081E08C9312C01C9210C02F5727
:100D5000304013963C932E93129783E08C9387E058
:100D6000440F551F661F771F8A95D1F7706414963C
:100D70004D935D936D937C93179708951F93DC01BA
:100D8000FB019C91923008F447C08081823008F4C6
:100D900043C0943051F411961C91843099F58181AF
:100DA000682F70E0611B71093FC0843021F09230E0
:100DB00031F48230B9F18181882389F12DC01196F7
:100DC0001C9111978230F1F081811817D9F4129695
:100DD0002D913C911397828193818217930794F010
:100DE00028173907BCF014968D919D910D90BC91F8
:100DF000A02D2481358146815781281739074A075C
:100E00005B0718F4112341F00AC082179307A40767
:100E1000B50740F4112319F061E070E005C06FEFF1
:100E20007FEF02C060E070E0CB011F910895DF9377
:100E3000CF93CDB7DEB7EAE3F0E080EF8083E7E35E
:100E4000F0E01082E4E3F0E08FEF8083E1E3F0E094
:100E50008FEF8083EBE3F0E08FEF8083E8E3F0E057
:100E60001082E5E3F0E01082E2E3F0E01082CF913F
:100E7000DF910895DF93CF9300D000D00F92CDB7CC
:100E8000DEB78A836B8319828A81843018F081E00F
:100E9000898332C08A81282F30E03D832C838C8166
:100EA0009D8181309105D1F02C813D812230310529
:100EB0002CF48C819D81009761F01EC02C813D81B6
:100EC0002230310581F08C819D818330910581F044
:100ED00013C0EAE3F0E08B8180830EC0E7E3F0E02B
:100EE0008B81808309C0E4E3F0E08B81808304C0C0
:100EF000E1E3F0E08B81808389810F900F900F9068
:100F00000F900F90CF91DF910895DF93CF9300D092
:100F100000D00F92CDB7DEB78A836B8319828A81A6
:100F2000843018F081E0898332C08A81282F30E034
:100F30003D832C838C819D8181309105D1F02C8162
:100F40003D81223031052CF48C819D81009761F028
:100F50001EC02C813D812230310581F08C819D8124
:100F60008330910581F013C0EBE3F0E08B81808347
:100F70000EC0E8E3F0E08B81808309C0E5E3F0E098
:100F80008B81808304C0E2E3F0E08B8180838981E0
:100F90000F900F900F900F900F90CF91DF910895C9
:100FA000DF93CF9300D000D000D0CDB7DEB78A83D7
:100FB0007C836B8319828A81843018F081E0898375
:100FC0003AC08A81282F30E03E832D838D819E8117
:100FD00081309105E1F02D813E81223031052CF4E4
:100FE0008D819E81009761F026C02D813E81223047
:100FF0003105A1F08D819E8183309105B1F01BC038
:10100000E9E3F0E08081EB81FC81808314C0E6E3BA
:10101000F0E08081EB81FC8180830DC0E3E3F0E0B0
:101020008081EB81FC81808306C0E0E3F0E0808179
:10103000EB81FC818083898126960FB6F894DEBF10
:101040000FBECDBFCF91DF910895DF93CF93CDB782
:10105000DEB728970FB6F894DEBF0FBECDBF8A83E8
:101060006B834C8319828C81813009F06FC08A8137
:10107000282F30E038872F838F8198858130910524
:1010800049F12F813885223031052CF48F819885E4
:10109000009761F0D5C02F8138852230310571F17C
:1010A0008F81988583309105E9F1CAC0AAE3B0E049
:1010B000EAE3F0E08081482F8B81282F30E081E047
:1010C00090E0022E02C0880F991F0A94E2F7842B49
:1010D0008C93B6C0A7E3B0E0E7E3F0E08081482F4F
:1010E0008B81282F30E081E090E0022E02C0880F33
:1010F000991F0A94E2F7842B8C93A2C0A4E3B0E07A
:10110000E4E3F0E08081482F8B81282F30E081E0FC
:1011100090E0022E02C0880F991F0A94E2F7842BF8
:101120008C938EC0A1E3B0E0E1E3F0E08081482F32
:101130008B81282F30E081E090E0022E02C0880FE2
:10114000991F0A94E2F7842B8C937AC08C818823B0
:1011500009F074C08A81282F30E03E832D838D8171
:101160009E818130910559F12D813E8122303105DA
:101170002CF48D819E81009769F062C02D813E81A3
:101180002230310589F18D819E818330910509F4EA
:1011900040C056C0AAE3B0E0EAE3F0E08081482F07
:1011A0008B81282F30E081E090E0022E02C0880F72
:1011B000991F0A94E2F7809584238C9341C0A7E39A
:1011C000B0E0E7E3F0E08081482F8B81282F30E00A
:1011D00081E090E0022E02C0880F991F0A94E2F786
:1011E000809584238C932CC0A4E3B0E0E4E3F0E08A
:1011F0008081482F8B81282F30E081E090E0022E03
:1012000002C0880F991F0A94E2F7809584238C937B
:1012100017C0A1E3B0E0E1E3F0E08081482F8B81CB
:10122000282F30E081E090E0022E02C0880F991F45
:101230000A94E2F7809584238C9302C081E089832D
:10124000898128960FB6F894DEBF0FBECDBFCF912F
:10125000DF910895DF93CF93CDB7DEB728970FB610
:10126000F894DEBF0FBECDBF8A836B834C83198297
:101270008C81813009F06FC08A81282F30E0388757
:101280002F838F8198858130910549F12F81388591
:10129000223031052CF48F819885009761F0D5C0FC
:1012A0002F8138852230310571F18F819885833007
:1012B0009105E9F1CAC0ABE3B0E0EBE3F0E0808177
:1012C000482F8B81282F30E081E090E0022E02C071
:1012D000880F991F0A94E2F7842B8C93B6C0A8E379
:1012E000B0E0E8E3F0E08081482F8B81282F30E0E8
:1012F00081E090E0022E02C0880F991F0A94E2F765
:10130000842B8C93A2C0A5E3B0E0E5E3F0E08081FC
:10131000482F8B81282F30E081E090E0022E02C020
:10132000880F991F0A94E2F7842B8C938EC0A2E356
:10133000B0E0E2E3F0E08081482F8B81282F30E09D
:1013400081E090E0022E02C0880F991F0A94E2F714
:10135000842B8C937AC08C81882309F074C08A8195
:10136000282F30E03E832D838D819E818130910531
:1013700059F12D813E81223031052CF48D819E81E1
:10138000009769F062C02D813E812230310589F1DC
:101390008D819E818330910509F440C056C0ABE336
:1013A000B0E0EBE3F0E08081482F8B81282F30E024
:1013B00081E090E0022E02C0880F991F0A94E2F7A4
:1013C000809584238C9341C0A8E3B0E0E8E3F0E08B
:1013D0008081482F8B81282F30E081E090E0022E21
:1013E00002C0880F991F0A94E2F7809584238C939A
:1013F0002CC0A5E3B0E0E5E3F0E08081482F8B81CD
:10140000282F30E081E090E0022E02C0880F991F63
:101410000A94E2F7809584238C9317C0A2E3B0E08E
:10142000E2E3F0E08081482F8B81282F30E081E0DB
:1014300090E0022E02C0880F991F0A94E2F780956F
:1014400084238C9302C081E08983898128960FB61A
:10145000F894DEBF0FBECDBFCF91DF910895DF932B
:10146000CF93CDB7DEB727970FB6F894DEBF0FBE88
:10147000CDBF8A836B835D834C8319828A81282F39
:1014800030E03F832E834E815F814130510559F119
:101490008E819F818230910534F42E813F81211508
:1014A000310569F05BC04E815F814230510579F1B1
:1014B0008E819F818330910509F43DC04FC0E9E3DF
:1014C000F0E08081282F30E08B81882F90E0A90107
:1014D00002C0559547958A95E2F7CA018170EC8163
:1014E000FD8180833BC0E6E3F0E08081282F30E07F
:1014F0008B81882F90E0A90102C0559547958A9568
:10150000E2F7CA018170EC81FD81808327C0E3E3AB
:10151000F0E08081282F30E08B81882F90E0A901B6
:1015200002C0559547958A95E2F7CA018170EC8112
:10153000FD81808313C0E0E3F0E08081282F30E05C
:101540008B81882F90E0A90102C0559547958A9517
:10155000E2F7CA018170EC81FD8180838981279641
:101560000FB6F894DEBF0FBECDBFCF91DF910895C7
:10157000DF93CF93CDB7DEB72F970FB6F894DEBFCA
:101580000FBECDBF8F8783E060E040E00E942A0954
:1015900083E061E040E00E942A0982E06F850E94BA
:1015A000850783E062E041E00E942A0980E090E044
:1015B000A0E0B0E48B879C87AD87BE876B857C8578
:1015C0008D859E8520E030E04AEF54E40E941F02A2
:1015D000DC01CB018F839887A987BA876F817885D3
:1015E00089859A8520E030E040E85FE30E94250489
:1015F00088232CF481E090E09E838D833FC06F812F
:10160000788589859A8520E03FEF4FE757E40E946F
:10161000C50318164CF56B857C858D859E8520E06D
:1016200030E040E251E40E941F02DC01CB01BC012A
:10163000CD010E944900DC01CB019E838D830FC048
:1016400088EC90E09C838B838B819C810197F1F7E0
:101650009C838B838D819E8101979E838D838D8159
:101660009E81009769F714C06F81788589859A8576
:101670000E944900DC01CB019E838D838D819E8178
:101680009A83898389819A810197F1F79A83898363
:1016900083E062E040E00E942A092F960FB6F8949A
:1016A000DEBF0FBECDBFCF91DF910895DF93CF9303
:1016B000CDB7DEB72F970FB6F894DEBF0FBECDBF04
:1016C0008F87809185018F5F809385018091840150
:1016D000813021F41092850110928401809185015E
:1016E000803121F481E060E00E94550D83E060E0EC
:1016F00041E00E942A0983E061E040E00E942A095B
:1017000082E06F850E94850783E062E041E00E94ED
:101710002A0980E090E0A0E0B0E48B879C87AD8749
:10172000BE876B857C858D859E8520E030E04AEF05
:1017300054E40E941F02DC01CB018F839887A987A4
:10174000BA876F81788589859A8520E030E040E806
:101750005FE30E94250488232CF481E090E09E83BF
:101760008D833FC06F81788589859A8520E03FEF22
:101770004FE757E40E94C50318164CF56B857C852E
:101780008D859E8520E030E040E251E40E941F02FA
:10179000DC01CB01BC01CD010E944900DC01CB0181
:1017A0009E838D830FC088EC90E09C838B838B811C
:1017B0009C810197F1F79C838B838D819E8101979A
:1017C0009E838D838D819E81009769F714C06F8100
:1017D000788589859A850E944900DC01CB019E832A
:1017E0008D838D819E819A83898389819A810197D6
:1017F000F1F79A83898383E062E040E00E942A093E
:101800002F960FB6F894DEBF0FBECDBFCF91DF91FC
:101810000895DF93CF93CDB7DEB7A6970FB6F894B0
:10182000DEBF0FBECDBF80E090E0A0E2B2E48BA3AC
:101830009CA3ADA3BEA36BA17CA18DA19EA120E022
:1018400030E04AEF54E40E941F02DC01CB018F8F8D
:1018500098A3A9A3BAA36F8D78A189A19AA120E02A
:1018600030E040E85FE30E94250488232CF481E007
:1018700090E09E8F8D8F3FC06F8D78A189A19AA136
:1018800020E03FEF4FE757E40E94C50318164CF5E0
:101890006BA17CA18DA19EA120E030E040E251E44B
:1018A0000E941F02DC01CB01BC01CD010E94490056
:1018B000DC01CB019E8F8D8F0FC088EC90E09C8F58
:1018C0008B8F8B8D9C8D0197F1F79C8F8B8F8D8DDE
:1018D0009E8D01979E8F8D8F8D8D9E8D009769F7C0
:1018E00014C06F8D78A189A19AA10E944900DC01E2
:1018F000CB019E8F8D8F8D8D9E8D9A8F898F898D37
:101900009A8D0197F1F79A8F898F88E30E94B80A20
:1019100080E090E0A8E4B2E48D8B9E8BAF8BB88F13
:101920006D897E898F89988D2BEA3AEA4AE250E4E4
:101930000E941F02DC01CB01898B9A8BAB8BBC8B85
:1019400069897A898B899C8920E030E040E85FE3EF
:101950000E94250488231CF481E0888B91C069894A
:101960007A898B899C8920E030E04FE753E40E941C
:10197000C50318160CF07BC06D897E898F89988D00
:1019800020E030E04AE754E40E941903DC01CB0177
:101990008C879D87AE87BF876C857D858E859F856B
:1019A00020E030E04AEF54E40E941F02DC01CB014A
:1019B00088879987AA87BB87688579858A859B856B
:1019C00020E030E040E85FE30E94250488232CF407
:1019D00081E090E09F838E833FC0688579858A850A
:1019E0009B8520E03FEF4FE757E40E94C5031816A0
:1019F0004CF56C857D858E859F8520E030E040E24A
:101A000051E40E941F02DC01CB01BC01CD010E9408
:101A10004900DC01CB019F838E830FC088EC90E0EE
:101A20009D838C838C819D810197F1F79D838C83AD
:101A30008E819F8101979F838E838E819F810097E6
:101A400069F724C0688579858A859B850E9449004D
:101A5000DC01CB019F838E838E819F819B838A8350
:101A60008A819B810197F1F79B838A830FC06989E3
:101A70007A898B899C890E944900DC01CB01888B83
:101A80008889898389818A95F1F789838CE00E940E
:101A9000B80A81E00E94B80AA6960FB6F894DEBF95
:101AA0000FBECDBFCF91DF910895DF93CF9300D0CC
:101AB0000F92CDB7DEB78A836B838A81882319F4AE
:101AC0008B81898306C08A81813019F48B81805C87
:101AD0008983898180680E94B80A0F900F900F90C7
:101AE000CF91DF910895DF93CF93CDB7DEB781E03B
:101AF0008093840181E00E94B80ACF91DF9108951C
:101B0000DF93CF93CDB7DEB78EE00E94B80ACF91B6
:101B1000DF910895DF93CF93CDB7DEB78CE00E94BD
:101B2000B80ACF91DF910895DF93CF93CDB7DEB799
:101B30008FE00E94B80ACF91DF910895DF93CF9391
:101B4000CDB7DEB78CE00E94B80ACF91DF9108953F
:101B5000DF93CF93CDB7DEB788E00E94B80ACF916C
:101B6000DF910895DF93CF9300D000D0CDB7DEB7DB
:101B70008A836B834C8319828C8189830BC0998102
:101B80008B81692F0E94550D80E20E94560B89813E
:101B9000815089838981482F552747FD50958C8135
:101BA000282F30E08A81882F90E0B901681B790BDB
:101BB000CB01841795071CF30F900F900F900F9097
:101BC000CF91DF910895DF93CF9300D000D0CDB7B0
:101BD000DEB78A836B834C8319828C8189830AC028
:101BE0008B8169810E94550D80E20E94560B89818C
:101BF0008F5F89838981482F50E08C81282F30E0C6
:101C00008A81882F90E0820F931F4817590744F369
:101C10000F900F900F900F90CF91DF910895DF9369
:101C2000CF93CDB7DEB768970FB6F894DEBF0FBE7F
:101C3000CDBF988F8F8B8F89988D9E838D831C82CB
:101C40000DC08C818F5F8C838D819E812AE030E076
:101C5000B9010E949122CB019E838D838D819E814B
:101C6000009779F78F89988D9E838D831B821EC084
:101C70008B81E82FF0E08D819E812AE030E0B90170
:101C80000E949122282F205DCE010796E80FF91FB0
:101C900020838D819E812AE030E0B9010E9491224B
:101CA000CB019E838D838B818F5F8B839B818C8106
:101CB0009817F0F28C81882F90E001979A8389839E
:101CC0000FC029813A81CE010796FC01E20FF31F74
:101CD00080810E94560B89819A8101979A8389831A
:101CE00089819A8199236CF768960FB6F894DEBFC4
:101CF0000FBECDBFCF91DF910895DF93CF9300D07A
:101D00000F92CDB7DEB79B838A8319820EC089817B
:101D1000282F30E08A819B81FC01E20FF31F808134
:101D20000E94560B89818F5F89838981282F30E03B
:101D30008A819B81FC01E20FF31F8081882339F7A0
:101D40000F900F900F90CF91DF910895DF93CF9375
:101D5000CDB7DEB727970FB6F894DEBF0FBECDBF65
:101D60009C838B836D834E832F838D81882F90E09E
:101D7000880F991F880F991F880F991F8A831982CE
:101D80008A8180640E94B80A19820EC08981282F36
:101D900030E08B819C81FC01E20FF31F80810E9467
:101DA000560B89818F5F89838981883078F38E8192
:101DB0006F810E94550D8D810E94560B27960FB69C
:101DC000F894DEBF0FBECDBFCF91DF910895DF93B2
:101DD000CF9300D000D000D0CDB7DEB76B837C832B
:101DE0008D839E836B817C818D819E810E944900C1
:101DF000DC01CB01CC01A0E0B0E0BC01CD010E9430
:101E0000A9049B01AC016B817C818D819E810E9424
:101E1000C101DC01CB01BC01CD0120E030E543EC88
:101E200057E40E941F02DC01CB01BC01CD010E94DE
:101E30004900DC01CB019A8389836B817C818D8190
:101E40009E810E944900DC01CB010E940F0E8EE2B0
:101E50000E94560B89819A810E940F0E26960FB61A
:101E6000F894DEBF0FBECDBFCF91DF910895DF9311
:101E7000CF93CDB7DEB727970FB6F894DEBF0FBE6E
:101E8000CDBF9D838C836E834F838AE190E00E9457
:101E90000F129A83898389819A81009709F46FC010
:101EA0008091860190918701009741F489819A8100
:101EB00090938701809386010E949E118E818230CB
:101EC00010F081E08E83E981FA81118E108EE98114
:101ED000FA818E81868BE981FA818F81878BE981F6
:101EE000FA818C819D819183808389819A81029678
:101EF0000E94A51289819A810C960E94A512E981FF
:101F0000FA8189819A8191878087E981FA81898123
:101F10009A81938B828B8E81282F30E085E090E030
:101F2000821B930BE981FA8195878487E981FA8185
:101F3000968980918801891728F4E981FA81868938
:101F400080938801E981FA818689282F30E0C901D0
:101F5000880F991F880F991F880F991F820F931F51
:101F6000AC0141575E4F89819A819C012E5F3F4FA2
:101F7000CA01B9010E94B51281E08B8302C08FEFC4
:101F80008B838B8127960FB6F894DEBF0FBECDBF33
:101F9000CF91DF910895DF93CF9300D000D000D090
:101FA000CDB7DEB79C838B837E836D8320918901BF
:101FB00030918A018B819C81820F931F9A83898340
:101FC000809186019091870102960E946D13E091A5
:101FD0008601F091870189819A8193838283209180
:101FE000890130918A0189819A818217930770F45F
:101FF0008091B5019091B6012091860130918701C1
:102000002E5F3F4FB9010E9401130DC08091B301B3
:102010009091B40120918601309187012E5F3F4F4E
:10202000B9010E9401138D819E81009761F080911A
:102030008601909187019C01245F3F4F8D819E8195
:10204000B9010E94011326960FB6F894DEBF0FBEA9
:10205000CDBFCF91DF910895DF93CF9300D0CDB75F
:10206000DEB73AC0F894E091BC01F091BD018681E1
:1020700097819A83898389819A810C960E946D1336
:10208000789489819A8102960E946D13E981FA8180
:10209000968980918801891728F4E981FA818689D7
:1020A00080938801E981FA818689282F30E0C9016F
:1020B000880F991F880F991F880F991F820F931FF0
:1020C000AC0141575E4F89819A819C012E5F3F4F41
:1020D000CA01B9010E94B5128091B701882309F0A5
:1020E000C1CF0F900F90CF91DF910895DF93CF93E1
:1020F00000D000D0CDB7DEB70E94781E20918B01B2
:1021000030918C01821B930B90938E0180938D01F3
:1021100085C08091890190918A01019690938A01EE
:102120008093890180918D0190918E010197909308
:102130008E0180938D018091890190918A01009791
:1021400009F064C08091B3019091B4019A838983AE
:102150008091B5019091B6019093B4018093B30141
:1021600089819A819093B6018093B5014FC0E09127
:10217000B301F091B4010580F681E02D868197814D
:102180009C838B83EB81FC81228133818091890147
:1021900090918A018217930708F440C0F8948B81CC
:1021A0009C8102960E946D13EB81FC818489958944
:1021B000009729F08B819C810C960E946D13789476
:1021C000EB81FC81968980918801891728F4EB8145
:1021D000FC81868980938801EB81FC818689282F88
:1021E00030E0C901880F991F880F991F880F991F28
:1021F000820F931FAC0141575E4F8B819C819C01E4
:102200002E5F3F4FCA01B9010E94B512E091B301A0
:10221000F091B4018081882309F0A9CF80918D01CC
:1022200090918E01009709F074CF8091890190916F
:102230008A0190938C0180938B010F900F900F90E7
:102240000F90CF91DF910895DF93CF9300D0CDB75A
:10225000DEB70E942C100E9476100AC0809188017F
:10226000882309F466C08091880181508093880199
:1022700080918801282F30E0C901880F991F880FAD
:10228000991F880F991F820F931FFC01E157FE4F82
:102290008081882319F380918801282F30E0C901BB
:1022A000880F991F880F991F880F991F820F931FFE
:1022B00081579E4F9A838983E981FA810180F28157
:1022C000E02D82819381E981FA8192838183E98182
:1022D000FA812181328189819A81039628173907F1
:1022E00059F4E981FA810180F281E02D82819381A4
:1022F000E981FA8192838183E981FA810180F28107
:10230000E02D868197819093870180938601E091EB
:102310008601F091870140815181809186019091E1
:102320008701E0918601F09187012789622FFA01E8
:1023300009950F900F90CF91DF910895DF93CF9380
:102340000F92CDB7DEB7198213C08981282F30E0F4
:10235000C901880F991F880F991F880F991F820F35
:10236000931F81579E4F0E947B1289818F5F8983C3
:102370008981823050F381EA91E00E947B128AEADF
:1023800091E00E947B1287EB91E00E947B1281EA30
:1023900091E09093B4018093B3018AEA91E0909325
:1023A000B6018093B5010F90CF91DF910895DF932F
:1023B000CF9300D000D00F92CDB7DEB79D838C8332
:1023C000EC81FD810580F681E02D868197819B83DC
:1023D0008A838A819B810C960E946D138A819B81DE
:1023E0009C01245F3F4F87EB91E0B9010E94B51239
:1023F000EA81FB819689E0918601F09187018689C7
:10240000981718F081E0898301C0198289810F90A3
:102410000F900F900F900F90CF91DF910895DF9361
:10242000CF9300D000D0CDB7DEB79C838B831A82C8
:1024300019820E94E21D8091C0019091C1012B81FF
:102440003C81820F931F22E08835920718F5209176
:10245000C0013091C1018B819C81280F391F80916F
:10246000C0019091C10182179307A0F48091C0012F
:102470009091C1018E539E4F9A8389832091C00110
:102480003091C1018B819C81820F931F9093C10178
:102490008093C0010E94EE1D89819A810F900F9058
:1024A0000F900F90CF91DF910895DF93CF9300D0DD
:1024B000CDB7DEB79A8389830F900F90CF91DF91CC
:1024C0000895DF93CF93CDB7DEB71092C10110927C
:1024D000C001CF91DF910895DF93CF93CDB7DEB7E1
:1024E0002091C0013091C10188E592E0821B930BDD
:1024F000CF91DF910895DF93CF9300D0CDB7DEB7B2
:102500009A83898389819A810396E981FA819283EA
:102510008183E981FA818FEF9FEF9483838389819F
:102520009A810396E981FA819683858389819A81CC
:102530000396E981FA8190878783E981FA81108285
:102540000F900F90CF91DF910895DF93CF9300D03C
:10255000CDB7DEB79A838983E981FA811186108627
:102560000F900F90CF91DF910895DF93CF9300D01C
:1025700000D000D0CDB7DEB79C838B837E836D8384
:10258000EB81FC81818192819A838983E981FA813F
:1025900082819381ED81FE8193838283EB81FC8133
:1025A00081819281ED81FE8195838483E981FA8125
:1025B0000280F381E02D8D819E81958384838D81BE
:1025C0009E81E981FA81938382838D819E81EB8153
:1025D000FC8192838183ED81FE818B819C81918737
:1025E0008087EB81FC8180818F5FEB81FC81808320
:1025F00026960FB6F894DEBF0FBECDBFCF91DF9108
:102600000895DF93CF93CDB7DEB728970FB6F89430
:10261000DEBF0FBECDBF9E838D8378876F83EF8132
:10262000F885808191819A83898389819A812FEFAE
:102630008F3F920739F4ED81FE81878190859C83DD
:102640008B8318C08D819E8103969C838B8306C0EB
:10265000EB81FC81828193819C838B83EB81FC8164
:102660000280F381E02D2081318189819A81821756
:10267000930770F7EB81FC8182819381EF81F8856C
:1026800093838283EF81F8850280F381E02D8F812F
:10269000988595838483EF81F8858B819C819583D0
:1026A00084838F819885EB81FC8193838283EF8182
:1026B000F8858D819E8191878087ED81FE81808163
:1026C0008F5FED81FE81808328960FB6F894DEBF80
:1026D0000FBECDBFCF91DF910895DF93CF9300D090
:1026E00000D0CDB7DEB79C838B83EB81FC81A281C8
:1026F000B381EB81FC818481958115969C938E93A7
:102700001497EB81FC81A481B581EB81FC818281EE
:10271000938113969C938E931297EB81FC81808515
:1027200091859A838983E981FA81218132818B8124
:102730009C812817390741F4EB81FC8184819581C4
:10274000E981FA8192838183EB81FC811186108675
:10275000E981FA8180818150E981FA8180830F903B
:102760000F900F900F90CF91DF910895AF92BF928D
:10277000CF92DF92EF92FF920F93DF93CF93CDB77B
:10278000DEB70E9417070E94090C81E060E00E94FA
:10279000251790937E0480937D0480917D04909111
:1027A0007E04009759F080917D0490917E0460E052
:1027B00070E040E050E020E00E94CE1720E630E0DC
:1027C00085E094E1B90146E950E020E030E001E025
:1027D000EE24FF24CC24DD24AA24BB240E94A61BC3
:1027E00024E630E08CE294E1B90146E950E020E0D3
:1027F00030E001E0EE24FF24CC24DD24AA24BB2415
:102800000E94A61B0E949F1DFFCFDF93CF9300D095
:102810000F92CDB7DEB79B838A8380917D04909120
:102820007E0460E070E044E650E020E00E94B918C9
:1028300089838981813079F48AE690E00E947D0E57
:1028400080917D0490917E0460E070E040E050E073
:1028500020E00E94CE17FFCFDF93CF9300D00F92DE
:10286000CDB7DEB79B838A8380917D0490917E04EF
:1028700060E070E044E650E020E00E94B9188983EF
:102880008981813079F48FE690E00E947D0E8091FD
:102890007D0490917E0460E070E040E050E020E034
:1028A0000E94CE17FFCFDF93CF93CDB7DEB7289727
:1028B0000FB6F894DEBF0FBECDBF9C838B837E83A3
:1028C0006D8358874F83EB81FC8181E180838B810D
:1028D0009C8101979C838B83EB81FC8182E28083C6
:1028E0008B819C8101979C838B83EB81FC8183E3AB
:1028F00080838B819C8101979C838B838D819E81BA
:102900009A8389838981EB81FC8180838B819C817F
:1029100001979C838B8389819A81892F99279A8338
:1029200089838981EB81FC8180838B819C810197E4
:102930009C838B83EB81FC8110828B819C8101972E
:102940009C838B83EB81FC8180E880838B819C81DD
:1029500001979C838B83EB81FC8110828B819C810E
:1029600001979C838B83EB81FC8182E080838B8148
:102970009C8101979C838B83EB81FC8183E0808326
:102980008B819C8101979C838B83EB81FC8184E00C
:1029900080838B819C8101979C838B83EB81FC815D
:1029A00085E080838B819C8101979C838B83EB8165
:1029B000FC8186E080838B819C8101979C838B8343
:1029C000EB81FC8187E080838B819C8101979C83D4
:1029D0008B83EB81FC8188E080838B819C810197D4
:1029E0009C838B83EB81FC8189E080838B819C813C
:1029F00001979C838B83EB81FC8180E180838B81B9
:102A00009C8101979C838B83EB81FC8181E1808396
:102A10008B819C8101979C838B83EB81FC8182E17C
:102A200080838B819C8101979C838B83EB81FC81CC
:102A300083E180838B819C8101979C838B83EB81D5
:102A4000FC8184E180838B819C8101979C838B83B3
:102A5000EB81FC8185E180838B819C8101979C8344
:102A60008B83EB81FC8186E180838B819C81019744
:102A70009C838B83EB81FC8187E180838B819C81AC
:102A800001979C838B83EB81FC8188E180838B8120
:102A90009C8101979C838B83EB81FC8189E18083FE
:102AA0008B819C8101979C838B83EB81FC8180E2ED
:102AB00080838B819C8101979C838B83EB81FC813C
:102AC00081E280838B819C8101979C838B83EB8146
:102AD000FC8182E280838B819C8101979C838B8324
:102AE000EB81FC8183E280838B819C8101979C83B5
:102AF0008B838F8198859A8389838981EB81FC817F
:102B000080838B819C8101979C838B8389819A81AF
:102B1000892F99279A8389838981EB81FC8180831E
:102B20008B819C8101979C838B83EB81FC8186E266
:102B300080838B819C8101979C838B83EB81FC81BB
:102B400087E280838B819C8101979C838B83EB81BF
:102B5000FC8188E280838B819C8101979C838B839D
:102B6000EB81FC8189E280838B819C8101979C832E
:102B70008B83EB81FC8180E380838B819C81019737
:102B80009C838B83EB81FC8181E380838B819C819F
:102B900001979C838B838B819C8128960FB6F89438
:102BA000DEBF0FBECDBFCF91DF910895DF93CF93EE
:102BB000CDB7DEB70E94C616A0911A04B0911B04CF
:102BC000CD91CDBFDD91DEBFFF91EF91DF91CF9130
:102BD000BF91AF919F918F917F916F915F914F9135
:102BE0003F912F911F910F91FF90EF90DF90CF9029
:102BF000BF90AF909F908F907F906F905F904F901D
:102C00003F902F901F900F900FBE0F90089581E07E
:102C1000CF91DF910895DF93CF93CDB7DEB7CF91FA
:102C2000DF9108950F920FB6F8940F921F9211241E
:102C30002F923F924F925F926F927F928F929F92CC
:102C4000AF92BF92CF92DF92EF92FF920F931F93BA
:102C50002F933F934F935F936F937F938F939F93A4
:102C6000AF93BF93CF93DF93EF93FF93A0911A0499
:102C7000B0911B040DB60D920EB60D920E94821FEC
:102C8000A0911A04B0911B04CD91CDBFDD91DEBFA0
:102C9000FF91EF91DF91CF91BF91AF919F918F9174
:102CA0007F916F915F914F913F912F911F910F9164
:102CB000FF90EF90DF90CF90BF90AF909F908F905C
:102CC0007F906F905F904F903F902F901F900F904C
:102CD0000FBE0F9008950F920FB6F8940F921F92A7
:102CE00011242F923F924F925F926F927F928F9218
:102CF0009F92AF92BF92CF92DF92EF92FF920F938B
:102D00001F932F933F934F935F936F937F938F9373
:102D10009F93AF93BF93CF93DF93EF93FF93A091D4
:102D20001A04B0911B040DB60D920EB60D920E94BE
:102D3000AD1E0E94821FA0911A04B0911B04CD9178
:102D4000CDBFDD91DEBFFF91EF91DF91CF91BF91BC
:102D5000AF919F918F917F916F915F914F913F9133
:102D60002F911F910F91FF90EF90DF90CF90BF9028
:102D7000AF909F908F907F906F905F904F903F901B
:102D80002F901F900F900FBE0F900895DF93CF9359
:102D900000D000D000D0CDB7DEB780E197E2A0E050
:102DA000B0E08B839C83AD83BE838B819C81AD819E
:102DB000BE81689415F8B695A79597958795169452
:102DC000D1F78B839C83AD83BE838B819C81AD8146
:102DD000BE810197A109B1098B839C83AD83BE831A
:102DE0008B8189838B819C81AD81BE81892F9A2FB4
:102DF000AB2FBB278B839C83AD83BE838B818A8360
:102E0000EBE4F0E08A818083EAE4F0E0898180836A
:102E10008BE08983EEE4F0E089818083E9E5F0E0EE
:102E200080818983898180618983E9E5F0E08981F6
:102E3000808326960FB6F894DEBF0FBECDBFCF912C
:102E4000DF9108950E946B161895DF93CF93CDB74D
:102E5000DEB728970FB6F894DEBF0FBECDBF8F83C5
:102E600068871A8219828F81882309F48CC08FE1C8
:102E700090E00E940F129E838D838D819E8100972A
:102E800009F481C08F81282F30E08885882F90E059
:102E9000AC01249FC001259F900D349F900D1124FB
:102EA00001969C838B838B819C810E940F12ED8104
:102EB000FE8191838083ED81FE81808191810097E5
:102EC00009F45DC0ED81FE81408151818F81282F01
:102ED00030E08885882F90E0BC01269FC001279FA5
:102EE000900D369F900D1124840F951FED81FE816A
:102EF00093838283ED81FE81128EED81FE8180813C
:102F00009181ED81FE8195838483ED81FE814081F5
:102F100051818F81882F90E09C012150304088851D
:102F2000882F90E0BC01269FC001279F900D369FFF
:102F3000900D1124840F951FED81FE819783868368
:102F4000ED81FE818F81838FED81FE818885848F65
:102F5000ED81FE818FEF858FED81FE818FEF868F72
:102F60008D819E8108960E947B128D819E81419663
:102F70000E947B128D819E819A83898304C08D81FA
:102F80009E810E94551289819A8128960FB6F894E5
:102F9000DEBF0FBECDBFCF91DF910895DF93CF93FA
:102FA000CDB7DEB72C970FB6F894DEBF0FBECDBFFE
:102FB0009E838D8378876F835A8749872B871982F1
:102FC0000FB6F8940F92ED81FE81928DED81FE8116
:102FD000838D9817D8F48D819E812F813885B90112
:102FE0004B850E94091AED81FE818189882349F071
:102FF0008D819E8141960E941E20813011F40E9495
:1030000012160F900FBE81E08C875CC089859A856F
:10301000009721F40F900FBE1C8654C0898188232D
:1030200031F4CE0102960E94862081E089830F90C0
:103030000FBE0E94E21D0FB6F8940F92ED81FE8143
:10304000858D8F3F19F4ED81FE81158EED81FE8116
:10305000868D8F3F19F4ED81FE81168E0F900FBE85
:10306000CE0102969E01275F3F4FB9010E949F202B
:10307000882309F58D819E810E946D1B8823A1F014
:103080008D819E81089629853A85B9010E94E81FA5
:103090008D819E810E94E61A0E94EE1D882309F010
:1030A0008FCF0E9412168CCF8D819E810E94E61ACE
:1030B0000E94EE1D85CF8D819E810E94E61A0E949E
:1030C000EE1D1C868C852C960FB6F894DEBF0FBEC5
:1030D000CDBFCF91DF910895DF93CF93CDB7DEB70A
:1030E00029970FB6F894DEBF0FBECDBF9C838B83AC
:1030F0007E836D8358874F8329871982EB81FC81FA
:10310000928DEB81FC81838D981740F58B819C819A
:103110002D813E81B90149850E94091AEB81FC810C
:10312000868D8F3F89F4EB81FC818189882399F01A
:103130008B819C8141960E941E20882361F0EF8143
:10314000F88581E0808307C0EB81FC81868D8F5FED
:10315000EB81FC81868F81E08A8301C01A828A819B
:1031600029960FB6F894DEBF0FBECDBFCF91DF9189
:103170000895DF93CF93CDB7DEB72E970FB6F894AF
:10318000DEBF0FBECDBF98878F837A8769875C8744
:103190004B872D871B820FB6F8940F92EF81F8852D
:1031A000828D882309F43FC0EF81F885868197815D
:1031B0009A8389838F81988529853A85B9010E94F0
:1031C0009E1A8D858823B1F4EF81F885828D815018
:1031D000EF81F885828FEF81F88580858823F1F073
:1031E0008F81988508960E941E208130B9F40E9434
:1031F000121614C0EF81F88589819A81978386839E
:10320000EF81F8858189882349F08F8198854196DF
:103210000E941E20882311F00E9412160F900FBEEC
:1032200081E08E875CC08B859C85009721F40F9090
:103230000FBE1E8654C08B81882331F4CE010496C4
:103240000E94862081E08B830F900FBE0E94E21DBA
:103250000FB6F8940F92EF81F885858D8F3F19F4A2
:10326000EF81F885158EEF81F885868D8F3F19F4F3
:10327000EF81F885168E0F900FBECE0104969E0149
:10328000255F3F4FB9010E949F20882309F58F8158
:1032900098850E943A1B8823A1F08F8198854196DA
:1032A0002B853C85B9010E94E81F8F8198850E947B
:1032B000E61A0E94EE1D882309F06DCF0E941216B7
:1032C0006ACF8F8198850E94E61A0E94EE1D63CF17
:1032D0008F8198850E94E61A0E94EE1D1E868E85BB
:1032E0002E960FB6F894DEBF0FBECDBFCF91DF9103
:1032F0000895DF93CF93CDB7DEB728970FB6F89434
:10330000DEBF0FBECDBF9C838B837E836D835887CA
:103310004F831982EB81FC81828D882371F18B812F
:103320009C812D813E81B9010E949E1AEB81FC8116
:10333000828D8150EB81FC81828FEB81FC81858DB8
:103340008F3F89F4EB81FC818085882399F08B8104
:103350009C8108960E941E20882361F0EF81F885E9
:1033600081E0808307C0EB81FC81858D8F5FEB81DD
:10337000FC81858F81E08A8301C01A828A81289628
:103380000FB6F894DEBF0FBECDBFCF91DF91089589
:10339000DF93CF9300D00F92CDB7DEB79B838A83A4
:1033A0000FB6F8940F92EA81FB81828D89830F908A
:1033B0000FBE89810F900F900F90CF91DF910895EC
:1033C000DF93CF9300D00F92CDB7DEB79B838A8374
:1033D000EA81FB81828D898389810F900F900F9004
:1033E000CF91DF910895DF93CF9300D0CDB7DEB7B3
:1033F0009A838983E981FA81808191810E945512A3
:1034000089819A810E9455120F900F90CF91DF9180
:103410000895DF93CF9300D000D00F92CDB7DEB7E1
:103420009A8389837C836B834D83E981FA81848DC0
:10343000882309F474C08D81882399F5E981FA8184
:1034400064817581E981FA81848D482F50E02B8158
:103450003C81CB01B9010E94DC22E981FA812481FF
:103460003581E981FA81848D882F90E0820F931F46
:10347000E981FA8195838483E981FA812481358108
:10348000E981FA81828193812817390708F447C0BE
:10349000E981FA8180819181E981FA819583848330
:1034A0003EC0E981FA8166817781E981FA81848D64
:1034B000482F50E02B813C81CB01B9010E94DC22D6
:1034C000E981FA8126813781E981FA81848D882F0B
:1034D00090E0909581959F4F820F931FE981FA812B
:1034E00097838683E981FA8126813781E981FA8190
:1034F000808191812817390790F4E981FA8122812E
:103500003381E981FA81848D882F90E090958195AF
:103510009F4F820F931FE981FA8197838683E98108
:10352000FA81828D8F5FE981FA81828F0F900F90EF
:103530000F900F900F90CF91DF910895DF93CF936D
:1035400000D000D0CDB7DEB79A8389837C836B83AC
:10355000E981FA8180819181009789F1E981FA817D
:1035600026813781E981FA81848D882F90E0820F4E
:10357000931FE981FA8197838683E981FA81268105
:103580003781E981FA81828193812817390740F0D8
:10359000E981FA8180819181E981FA81978386832B
:1035A000E981FA8146815781E981FA81848D282F4A
:1035B00030E08B819C81BA01A9010E94DC220F902E
:1035C0000F900F900F90CF91DF910895DF93CF93DD
:1035D00000D0CDB7DEB79A8389830FB6F8940F92E7
:1035E00015C0E981FA8181898823A9F089819A81AE
:1035F00041960E941E20882311F00E94FC20E98140
:10360000FA81868D8150E981FA81868FE981FA817C
:10361000868D181634F3E981FA818FEF868F0F902B
:103620000FBE0FB6F8940F9215C0E981FA8180851C
:103630008823A9F089819A8108960E941E208823F8
:1036400011F00E94FC20E981FA81858D8150E98189
:10365000FA81858FE981FA81858D181634F3E98125
:10366000FA818FEF858F0F900FBE0F900F90CF9143
:10367000DF910895DF93CF9300D00F92CDB7DEB7DF
:103680009B838A830FB6F8940F92EA81FB81828D27
:103690001982882311F481E089830F900FBE8981FC
:1036A0000F900F900F90CF91DF910895DF93CF93FC
:1036B00000D00F92CDB7DEB79B838A83EA81FB816E
:1036C000828D1982882311F481E0898389810F908A
:1036D0000F900F90CF91DF910895DF93CF9300D09B
:1036E0000F92CDB7DEB79B838A830FB6F8940F9203
:1036F000EA81FB81928DEA81FB81838D1982981783
:1037000011F481E089830F900FBE89810F900F9093
:103710000F90CF91DF910895DF93CF9300D00F9258
:10372000CDB7DEB79B838A83EA81FB81928DEA81E4
:10373000FB81838D1982981711F481E08983898137
:103740000F900F900F90CF91DF910895AF92BF929D
:10375000CF92DF92EF92FF920F931F93DF93CF935D
:10376000CDB7DEB764970FB6F894DEBF0FBECDBFFE
:103770009F838E83798768875B874A873D872C87FD
:103780000E87F88AEF86DA8AC98ABC8AAB8A8A856C
:103790009B8529893A89B9010E942B229C838B83BE
:1037A0008B819C81009709F499C0EB81FC8127896A
:1037B000308D8A859B850197820F931F9A83898319
:1037C0008B819C8128853985EB89FC89AA85BB85FD
:1037D000B9014E859F018D010E94102189819A8136
:1037E0002E813F814C855D85B9010E945314EB8188
:1037F000FC81918380838F859889009731F0EF85D4
:10380000F8898B819C81918380830FB6F8940F9205
:1038100080911D048F5F80931D0480911A04909104
:103820001B04009769F48B819C8190931B04809307
:103830001A0480911D048130A9F40E94672112C0EE
:1038400080912204882371F4E0911A04F0911B0402
:1038500096898E85891730F08B819C8190931B040B
:1038600080931A04EB81FC8196898091200489174A
:1038700028F4EB81FC8186898093200480912704C1
:103880008F5F80932704EB81FC81968980912104CE
:10389000891728F4EB81FC81868980932104EB81D0
:1038A000FC818689282F30E0C901880F991F880F75
:1038B000991F880F991F820F931FAC01485D5B4FC2
:1038C0008B819C819C012E5F3F4FCA01B9010E94F0
:1038D000B51281E08D830F900FBE02C08FEF8D83F4
:1038E0008D81813071F480912204882351F0E09120
:1038F0001A04F0911B0496898E85981710F40E9483
:1039000012168D8164960FB6F894DEBF0FBECDBF40
:10391000CF91DF911F910F91FF90EF90DF90CF90AB
:10392000BF90AF900895DF93CF9300D000D000D028
:10393000CDB7DEB79C838B830FB6F8940F9220919E
:103940001A0430911B048B819C818217930711F418
:103950001C821B828B819C81009739F480911A0410
:1039600090911B049E838D8304C08B819C819E83D8
:103970008D838D819E819A83898389819A81029624
:103980000E946D13E981FA8184899589009729F055
:1039900089819A810C960E946D1389819A819C017C
:1039A0002E5F3F4F84E794E0B9010E94B5128091E9
:1039B0001C048F5F80931C04809127048F5F809389
:1039C00027040F900FBE80912204882331F08B8151
:1039D0009C81009711F40E94121626960FB6F89457
:1039E000DEBF0FBECDBFCF91DF910895DF93CF93A0
:1039F000CDB7DEB728970FB6F894DEBF0FBECDBFA8
:103A00009E838D8378876F8319820E94E21DED81EA
:103A1000FE81208131818F819885820F931F9C8345
:103A20008B83ED81FE812081318180911E049091F4
:103A30001F0482179307A8F4ED81FE812081318154
:103A40008B819C818217930700F520911E04309191
:103A50001F048B819C8128173907B8F481E0898382
:103A600014C0ED81FE81208131818B819C81821780
:103A7000930748F020911E0430911F048B819C8194
:103A80002817390710F481E08983ED81FE818B814D
:103A90009C81918380838981882359F080911A04C5
:103AA00090911B0402960E946D138B819C810E9451
:103AB000E2210E94EE1D8A838A81882311F40E94EC
:103AC000121628960FB6F894DEBF0FBECDBFCF9169
:103AD000DF910895DF93CF9300D000D00F92CDB740
:103AE000DEB79D838C8319828C819D810097D1F0F4
:103AF0000E94E21D20911E0430911F048C819D8143
:103B0000820F931F9B838A8380911A0490911B04D8
:103B100002960E946D138A819B810E94E2210E947D
:103B2000EE1D89838981882311F40E9412160F905B
:103B30000F900F900F900F90CF91DF910895AF925B
:103B4000BF92CF92DF92EF92FF920F93DF93CF93CA
:103B50000F92CDB7DEB724E730E086E091E2B901FD
:103B600046E950E020E030E000E0EE24FF24CC24E1
:103B7000DD24AA24BB240E94A61B8983898181306D
:103B800051F4F89481E08093220410921F04109263
:103B90001E040E94D6150F90CF91DF910F91FF90D8
:103BA000EF90DF90CF90BF90AF900895DF93CF93C9
:103BB000CDB7DEB7F894109222040E940B16CF9175
:103BC000DF910895DF93CF93CDB7DEB780912304C3
:103BD0008F5F80932304CF91DF910895DF93CF937C
:103BE00000D000D0CDB7DEB71A820FB6F8940F928E
:103BF000809123048150809323048091230488239F
:103C000009F06CC080911D04882309F467C01982F3
:103C100041C0E0917004F0917104868197819C838A
:103C20008B838B819C810C960E946D138B819C8170
:103C300002960E946D13EB81FC819689809121048C
:103C4000891728F4EB81FC81868980932104EB811C
:103C5000FC818689282F30E0C901880F991F880FC1
:103C6000991F880F991F820F931F885D9B4F2B818F
:103C70003C812E5F3F4FB9010E94B512EB81FC8160
:103C80009689E0911A04F0911B048689981710F028
:103C900081E0898380916B04882309F0BACF8091F9
:103CA0002404882371F007C00E94AD1E8091240473
:103CB000815080932404809124048823A9F781E013
:103CC00089838981813021F080912504813031F40C
:103CD00081E08A83109225040E9412160F900FBE75
:103CE0008A810F900F900F900F90CF91DF910895E0
:103CF000DF93CF9300D0CDB7DEB70FB6F8940F9215
:103D000080911E0490911F049A8389830F900FBEA7
:103D100089819A810F900F90CF91DF910895DF9361
:103D2000CF9300D00F92CDB7DEB7198280911E04D9
:103D300090911F049B838A838A819B810F900F90AF
:103D40000F90CF91DF910895DF93CF93CDB7DEB77A
:103D500080911D04CF91DF910895DF93CF9300D020
:103D600000D000D0CDB7DEB780912304882309F0BE
:103D7000BBC080911E0490911F04019690931F0474
:103D800080931E0480911E0490911F040097D1F52A
:103D900080916704909168049C838B83809169046F
:103DA00090916A0490936804809367048B819C814E
:103DB00090936A0480936904809126048F5F8093B6
:103DC0002604E0916704F09168048081882339F427
:103DD0008FEF9FEF909382018093810113C0E09158
:103DE0006704F09168040580F681E02D8681978153
:103DF0009E838D83ED81FE818281938190938201E8
:103E00008093810120911E0430911F0480918101D3
:103E1000909182012817390708F46BC0E09167047C
:103E2000F09168048081882339F48FEF9FEF90939D
:103E30008201809381015DC0E0916704F091680484
:103E40000580F681E02D868197819E838D83ED81AB
:103E5000FE81828193819A83898320911E0430910F
:103E60001F0489819A812817390738F489819A813A
:103E700090938201809381013CC08D819E81029646
:103E80000E946D13ED81FE8184899589009729F048
:103E90008D819E810C960E946D13ED81FE81968925
:103EA00080912104891728F4ED81FE818689809311
:103EB0002104ED81FE818689282F30E0C901880F19
:103EC000991F880F991F880F991F820F931FAC01AC
:103ED000485D5B4F8D819E819C012E5F3F4FCA01E3
:103EE000B9010E94B5129ACF809124048F5F80930C
:103EF000240426960FB6F894DEBF0FBECDBFCF9137
:103F0000DF910895DF93CF9300D0CDB7DEB78091D6
:103F10002304882349F081E08093250454C08091D4
:103F2000210481508093210480912104282F30E0C6
:103F3000C901880F991F880F991F880F991F820F39
:103F4000931FFC01E85DFB4F8081882341F3809142
:103F50002104282F30E0C901880F991F880F991F6D
:103F6000880F991F820F931F885D9B4F9A838983C7
:103F7000E981FA810180F281E02D82819381E981DA
:103F8000FA8192838183E981FA8121813281898159
:103F90009A8103962817390759F4E981FA8101803B
:103FA000F281E02D82819381E981FA81928381837C
:103FB000E981FA810180F281E02D868197819093D9
:103FC0001B0480931A040F900F90CF91DF910895F6
:103FD000DF93CF9300D000D000D0CDB7DEB79C8365
:103FE0008B837E836D834B815C8180911A049091D9
:103FF0001B049C01245F3F4FCA01B9010E940113B9
:1040000080911A0490911B0402960E946D132091D6
:104010001E0430911F048D819E81820F931F9A830D
:10402000898389819A810E94E22126960FB6F894AD
:10403000DEBF0FBECDBFCF91DF910895DF93CF9349
:1040400000D000D00F92CDB7DEB79D838C83EC817A
:10405000FD810580F681E02D868197819B838A838F
:104060008A819B810C960E946D1380912304882382
:1040700061F58A819B8102960E946D13EA81FB8122
:10408000968980912104891728F4EA81FB81868929
:1040900080932104EA81FB818689282F30E0C901C1
:1040A000880F991F880F991F880F991F820F931FE0
:1040B000AC01485D5B4F8A819B819C012E5F3F4F25
:1040C000CA01B9010E94B5120AC08A819B819C0174
:1040D000245F3F4F8BE694E0B9010E94B512EA815C
:1040E000FB819689E0911A04F0911B048689981748
:1040F00018F081E0898301C0198289810F900F90A7
:104100000F900F900F90CF91DF910895DF93CF9391
:1041100000D0CDB7DEB79A83898380912604E981E8
:10412000FA81808380911E0490911F04E981FA81B5
:10413000928381830F900F90CF91DF910895DF9349
:10414000CF9300D000D00F92CDB7DEB79B838A8388
:104150007D836C830FB6F8940F92EA81FB81908186
:1041600080912604981771F0EA81FB8121813281C8
:1041700080911E0490911F048217930718F081E02C
:1041800089832FC020911E0430911F04EA81FB8196
:1041900081819281281B390BEC81FD818081918185
:1041A00028173907E0F4EC81FD8140815181EA81D3
:1041B000FB812181328180911E0490911F04B901FD
:1041C000681B790BCB01840F951FEC81FD819183D6
:1041D00080838A819B810E948620198202C081E0AF
:1041E00089830F900FBE89810F900F900F900F90D1
:1041F0000F90CF91DF910895DF93CF93CDB7DEB7C6
:1042000081E080932504CF91DF910895DF93CF93D0
:1042100000D0CDB7DEB79A8389830E94A421FDCF59
:104220000F931F93DF93CF93CDB7DEB729970FB6C8
:10423000F894DEBF0FBECDBF9A8389837C836B83E6
:104240004D833F832E831987088789819A814996F8
:104250002B813C81B90148E050E00E94EC22E981C9
:10426000FA8110A28D81853010F084E08D83E98180
:10427000FA818D81868B89819A8102960E94A5128E
:1042800089819A810C960E94A512E981FA8189811F
:104290009A81918780878D81282F30E085E090E09A
:1042A000821B930BE981FA8195878487E981FA81E2
:1042B00089819A81938B828B29960FB6F894DEBF01
:1042C0000FBECDBFCF91DF911F910F910895DF9366
:1042D000CF930F92CDB7DEB7198213C08981282FF3
:1042E00030E0C901880F991F880F991F880F991F07
:1042F000820F931F885D9B4F0E947B1289818F5F85
:1043000089838981853050F385E594E00E947B1292
:104310008EE594E00E947B128BE694E00E947B1273
:1043200084E794E00E947B1285E594E09093680412
:10433000809367048EE594E090936A048093690407
:104340000F90CF91DF910895DF93CF9300D00F921C
:10435000CDB7DEB780911C04882371F10E94E21D65
:10436000809174041B82882311F481E08B830E9466
:10437000EE1D8B81882301F50FB6F8940F92E09122
:104380007904F0917A04868197819A83898389815F
:104390009A8102960E946D1380911D048150809332
:1043A0001D0480911C04815080931C040F900FBE4B
:1043B00089819A810E947B220F900F900F90CF915C
:1043C000DF910895DF93CF9300D0CDB7DEB79A8306
:1043D0008983E0911A04F0911B0489819A81938367
:1043E000828320911E0430911F0489819A81821753
:1043F000930770F48091690490916A0420911A04E3
:1044000030911B042E5F3F4FB9010E9401131EC063
:10441000409167045091680480911A0490911B04A4
:104420009C012E5F3F4FCA01B9010E9401132091E8
:1044300081013091820189819A818217930730F43A
:1044400089819A8190938201809381010F900F90CE
:10445000CF91DF910895DF93CF93CDB7DEB7289743
:104460000FB6F894DEBF0FBECDBF9C838B837E83D7
:104470006D8381E290E00E940F129A838983898183
:104480009A81009769F18D819E81009739F48B8123
:104490009C810E940F1298878F8304C08D819E811A
:1044A00098878F83E981FA818F819885908F878B98
:1044B000E981FA818789908D009739F489819A8101
:1044C0000E9455121A8219820BC0E981FA818789EC
:1044D000908D2B813C8165EA70E0A9010E94E52264
:1044E00089819A8128960FB6F894DEBF0FBECDBFA2
:1044F000CF91DF910895DF93CF9300D0CDB7DEB792
:104500009A838983E981FA818789908D0E94551267
:1045100089819A810E9455120F900F90CF91DF915F
:104520000895AA1BBB1B51E107C0AA1FBB1FA617FA
:10453000B70710F0A61BB70B881F991F5A95A9F74C
:1045400080959095BC01CD0108952F923F924F9296
:104550005F926F927F928F929F92AF92BF92CF9213
:10456000DF92EF92FF920F931F93CF93DF93CDB71C
:10457000DEB7CA1BDB0B0FB6F894DEBF0FBECDBF94
:1045800009942A88398848885F846E847D848C8465
:104590009B84AA84B984C884DF80EE80FD800C816E
:1045A0001B81AA81B981CE0FD11D0FB6F894DEBF51
:1045B0000FBECDBFED010895FB01DC0102C00190EB
:1045C0000D9241505040D8F70895DC0101C06D9321
:1045D00041505040E0F70895FB01DC01415050404C
:1045E00048F001900D920020C9F701C01D92415082
:0A45F0005040E0F70895F894FFCF63
:1045FA0052656400477265656E004D454B4F004435
:10460A006F61610049444C45000000000000000051
:10461A000000010202030303030404040404040463
:10462A000405050505050505050505050505050531
:10463A000506060606060606060606060606060611
:10464A000606060606060606060606060606060600
:10465A0006070707070707070707070707070707E1
:10466A0007070707070707070707070707070707D0
:10467A0007070707070707070707070707070707C0
:10468A0007070707070707070707070707070707B0
:10469A000708080808080808080808080808080891
:1046AA000808080808080808080808080808080880
:1046BA000808080808080808080808080808080870
:1046CA000808080808080808080808080808080860
:1046DA000808080808080808080808080808080850
:1046EA000808080808080808080808080808080840
:1046FA000808080808080808080808080808080830
:10470A00080808080808080808080808080808081F
:04471A0008FFFF0095
:00000001FF
