:100000000C942A000C9434000C9434000C943400AA
:100010000C9434000C9434000C9434000C94340090
:100020000C9434000C9434000C9434000C94340080
:100030000C9434000C9434000C9434000C94340070
:100040000C9434000C9434000C9434000C94340060
:100050000C94340011241FBECFE5D8E0DEBFCDBF25
:100060000E9455000C945E000C940000DF93CF9327
:10007000CDB7DEB7EAE3F0E01082E7E3F0E010820C
:10008000E4E3F0E01082E1E3F0E01082EBE3F0E083
:100090001082E8E3F0E01082E5E3F0E01082E2E3B2
:1000A000F0E01082CF91DF910895DF93CF93CDB729
:1000B000DEB780E090E0CF91DF910895F894FFCF14
:00000001FF
