:100000000C942A000C9447000C9447000C94470071
:100010000C9447000C9447000C9447000C94470044
:100020000C9447000C9447000C9447000C94470034
:100030000C94EA150C9447000C9447000C9447006C
:100040000C9447000C9447000C9447000C94470014
:100050000C94470011241FBECFE5D8E0DEBFCDBF12
:1000600010E0A8E6B0E001C01D92AA36B107E1F7A2
:1000700010E0A0E6B0E0E2E8FCE202C005900D92DC
:10008000A836B107D9F70E94C1150C943F160C94FD
:100090000000EF92FF920F931F937B018C0120E0F1
:1000A00030E040E05FE40E94F50388238CF0C80153
:1000B000B70120E030E040E05FE40E94C1010E940F
:1000C00055049B01AC01205030404040504806C0D0
:1000D000C801B7010E9455049B01AC01B901CA01D6
:1000E0001F910F91FF90EF900895A0E0B0E0EBE733
:1000F000F0E00C940816DC012B01FA019C9192307F
:1001000008F439C1EB018881823008F433C194309E
:1001100069F4843009F02FC111969C91119789815F
:10012000981709F428C1A0E6B0E025C1843009F48D
:1001300021C18230A9F4923009F01DC19A01AD01AC
:1001400088E0EA010990AE01E90109929E0181501F
:10015000C1F7E201898111969C918923818308C1AD
:10016000923009F407C112962D903C901397EB0141
:100170008A819B811496AD90BD90CD90DC901797AD
:10018000EC80FD800E811F819101281B390BB90184
:1001900037FF04C066277727621B730B6032710537
:1001A0000CF061C0121613066CF537014801062EDB
:1001B00004C096948794779467940A94D2F721E0C8
:1001C00030E040E050E004C0220F331F441F551FB1
:1001D0006A95D2F721503040404050402E213F21B7
:1001E00040235123211531054105510521F021E01E
:1001F00030E040E050E079018A01E628F72808293C
:1002000019293CC0232BD1F1260E371E350146019A
:10021000062E04C096948794779467940A94D2F734
:1002200021E030E040E050E004C0220F331F441FC3
:10023000551F6A95D2F721503040404050402A2146
:100240003B214C215D21211531054105510521F04E
:1002500021E030E040E050E059016A01A628B728CB
:10026000C828D9280BC0821593052CF01C01AA249C
:10027000BB24650103C0EE24FF24870111969C91E5
:10028000D20111968C91981709F445C0992339F041
:10029000A80197012A193B094C095D0906C0A6016E
:1002A00095012E193F09400B510B57FD08C01182D3
:1002B0003382228224833583468357831DC081E0A5
:1002C00081833382228288279927DC01821B930B4A
:1002D000A40BB50B84839583A683B7830DC0220F2F
:1002E000331F441F551F24833583468357838281E0
:1002F000938101979383828324813581468157813D
:10030000DA01C9010197A109B1098F5F9F4FAF4F72
:10031000BF4328F30BC0918333822282EA0CFB1C7B
:100320000C1D1D1DE482F5820683178383E0808304
:10033000248135814681578157FF1AC0C901AA27F8
:1003400097FDA095BA2F81709070A070B0705695EF
:10035000479537952795822B932BA42BB52B848318
:100360009583A683B7838281938101969383828349
:10037000DF0101C0D201CD01CDB7DEB7E2E10C94BF
:100380002416A0E2B0E0E7ECF1E00C9414166983C7
:100390007A838B839C832D833E834F835887E9E048
:1003A000EE2EF12CEC0EFD1ECE010196B7010E943F
:1003B0007E058E010F5E1F4FCE010596B8010E948B
:1003C0007E058A8991E089278A8BC701B801AE0131
:1003D000475E5F4F0E9475000E94A904A096E6E068
:1003E0000C943016A0E2B0E0E8EFF1E00C941416A3
:1003F00069837A838B839C832D833E834F835887C5
:10040000F9E0EF2EF12CEC0EFD1ECE010196B701A6
:100410000E947E058E010F5E1F4FCE010596B8012A
:100420000E947E05C701B801AE01475E5F4F0E9482
:1004300075000E94A904A096E6E00C943016A0E294
:10044000B0E0E5E2F2E00C94081669837A838B83CE
:100450009C832D833E834F835887CE010196BE0136
:10046000675F7F4F0E947E05CE010596BE016F5EDD
:100470007F4F0E947E059985923088F0898982306D
:10048000C8F0943019F4823051F404C0843029F457
:10049000923081F480E690E0C6C0923049F420E0CA
:1004A0009A858A89981321E02A87CE010996BBC0D4
:1004B000823049F420E09A858A89981321E02A8BBA
:1004C000CE014196B0C02D843E844F8458886D88FB
:1004D0007E888F88988CEE24FF248701AA24BB2471
:1004E000650140E050E060E070E0E0E0F0E0C10174
:1004F00081709070892BE9F0E60CF71C081D191D1E
:100500009A01AB012A0D3B1D4C1D5D1D80E090E062
:10051000A0E0B0E0E614F7040805190520F481E036
:1005200090E0A0E0B0E0BA01A901480F591F6A1F8E
:100530007B1FAA0CBB1CCC1CDD1C97FE08C081E0F5
:1005400090E0A0E0B0E0A82AB92ACA2ADB2A3196B6
:10055000E032F10549F0660C771C881C991C569412
:10056000479437942794C3CFFA85EA892B893C892D
:100570008B859C85280F391F2E5F3F4F17C0CA01FE
:1005800081709070892B61F016950795F794E79428
:1005900080E090E0A0E0B0E8E82AF92A0A2B1B2BC3
:1005A00076956795579547952F5F3F4F77FDE7CF36
:1005B0000CC0440F551F661F771F17FD4160EE0CDE
:1005C000FF1C001F111F21503040403090E05907A0
:1005D00090E0690790E4790760F32B8F3C8FDB0193
:1005E000CA018F779070A070B07080349105A1051A
:1005F000B10561F447FD0AC0E114F10401051105DC
:1006000029F0405C5F4F6F4F7F4F40781A8EFE1786
:1006100011F081E08A8F4D8F5E8F6F8F78A383E01A
:10062000898FCE0149960E94A904A096E2E10C941C
:100630002416A8E1B0E0EFE1F3E00C941016698312
:100640007A838B839C832D833E834F835887B9E0C5
:10065000EB2EF12CEC0EFD1ECE010196B7010E948F
:100660007E058E010F5E1F4FCE010596B8010E94D8
:100670007E052985223008F47EC03989323010F495
:10068000B8017CC08A859A8989278A87243011F02D
:10069000223031F4231709F06EC060E670E06EC0BE
:1006A000343039F41D861E861F86188A1C861B86E8
:1006B00004C0323021F484E08987B7015FC02B8504
:1006C0003C858B899C89281B390B3C872B87ED84C3
:1006D000FE840F851889AD88BE88CF88D88CEA142F
:1006E000FB040C051D0540F4EE0CFF1C001F111F40
:1006F000215030403C872B8720E030E040E050E044
:1007000080E090E0A0E0B0E460E070E0EA14FB0478
:100710000C051D0540F0282B392B4A2B5B2BEA18C2
:10072000FB080C091D09B695A79597958795EE0CC2
:10073000FF1C001F111F6F5F7F4F6F31710531F775
:10074000DA01C9018F779070A070B0708034910584
:10075000A105B10561F427FD0AC0E114F10401050A
:10076000110529F0205C3F4F4F4F5F4F20782D87B8
:100770003E874F87588BBE01675F7F4FCB010E943A
:10078000A9046896EAE00C942C16A8E1B0E0EBEC22
:10079000F3E00C94141669837A838B839C832D83F6
:1007A0003E834F83588789E0E82EF12CEC0EFD1E26
:1007B000CE010196B7010E947E058E010F5E1F4F8C
:1007C000CE010596B8010E947E058985823040F0F1
:1007D0008989823028F0C701B8010E94F60501C05E
:1007E0008FEF6896E6E00C943016A8E1B0E0EBEFEE
:1007F000F3E00C94141669837A838B839C832D8396
:100800003E834F83588789E0E82EF12CEC0EFD1EC5
:10081000CE010196B7010E947E058E010F5E1F4F2B
:10082000CE010596B8010E947E058985823040F090
:100830008989823028F0C701B8010E94F60501C0FD
:100840008FEF6896E6E00C943016A8E1B0E0EBE29A
:10085000F4E00C94141669837A838B839C832D8334
:100860003E834F83588789E0E82EF12CEC0EFD1E65
:10087000CE010196B7010E947E058E010F5E1F4FCB
:10088000CE010596B8010E947E058985823040F030
:100890008989823028F0C701B8010E94F60501C09D
:1008A00081E06896E6E00C943016ACE0B0E0EBE551
:1008B000F4E00C94181669837A838B839C83CE01B1
:1008C0000196BE016B5F7F4F0E947E058D81823055
:1008D00061F1823050F1843021F48E81882351F10E
:1008E0002EC02F81388537FD20C06E812F31310514
:1008F0001CF06623F9F023C08EE190E0821B930B7D
:1009000029853A854B855C8504C056954795379572
:1009100027958A95D2F76623B1F05095409530958A
:1009200021953F4F4F4F5F4F0EC020E030E040E039
:1009300050E009C02FEF3FEF4FEF5FE704C020E02A
:1009400030E040E050E8B901CA012C96E2E00C9496
:100950003416DF92EF92FF920F931F93FC01E48015
:10096000F58006811781D1808081823048F480E053
:1009700090E0A0E1B0E0E82AF92A0A2B1B2BA5C0E1
:10098000843009F49FC0823021F4EE24FF248701D3
:1009900005C0E114F1040105110519F4E0E0F0E0EF
:1009A00096C0628173819FEF623879070CF05BC05B
:1009B00022E83FEF261B370B2A3131052CF020E0CF
:1009C00030E040E050E02AC0B801A701022E04C088
:1009D00076956795579547950A94D2F781E090E010
:1009E000A0E0B0E004C0880F991FAA1FBB1F2A9582
:1009F000D2F70197A109B1098E219F21A023B1232C
:100A00000097A105B10521F081E090E0A0E0B0E001
:100A10009A01AB01282B392B4A2B5B2BDA01C90138
:100A20008F779070A070B07080349105A105B105EA
:100A300039F427FF09C0205C3F4F4F4F5F4F04C080
:100A4000215C3F4F4F4F5F4FE0E0F0E02030A0E0EF
:100A50003A07A0E04A07A0E45A0710F0E1E0F0E00E
:100A600079018A0127C06038710564F5FB01E158FE
:100A7000FF4FD801C7018F779070A070B07080349D
:100A80009105A105B10539F4E7FE0DC080E490E0C1
:100A9000A0E0B0E004C08FE390E0A0E0B0E0E80E9A
:100AA000F91E0A1F1B1F17FF05C016950795F7941F
:100AB000E794319687E016950795F794E7948A9521
:100AC000D1F705C0EE24FF248701EFEFF0E06E2F91
:100AD000679566276795902F9F77D794DD24D794E5
:100AE0008E2F8695492F462B582F5D29B701CA01B5
:100AF0001F910F91FF90EF90DF900895FC01DB01B3
:100B0000408151812281622F6F7770E0221F22275E
:100B1000221F9381892F880F822B282F30E0991F65
:100B20009927991F11969C93119721153105A9F5C5
:100B3000411551056105710511F482E037C082E865
:100B40009FEF13969C938E9312979A01AB0167E0E7
:100B5000220F331F441F551F6A95D1F783E08C93F2
:100B60000DC0220F331F441F551F12968D919C916B
:100B70001397019713969C938E931297203080E0E1
:100B8000380780E0480780E4580758F314962D93FF
:100B90003D934D935C93179708952F3F310579F45A
:100BA000411551056105710519F484E08C93089590
:100BB00064FF03C081E08C9312C01C9210C02F57B9
:100BC000304013963C932E93129783E08C9387E0EA
:100BD000440F551F661F771F8A95D1F770641496CE
:100BE0004D935D936D937C93179708951F93DC014C
:100BF000FB019C91923008F447C08081823008F458
:100C000043C0943051F411961C91843099F5818140
:100C1000682F70E0611B71093FC0843021F0923071
:100C200031F48230B9F18181882389F12DC0119688
:100C30001C9111978230F1F081811817D9F4129626
:100C40002D913C911397828193818217930794F0A1
:100C500028173907BCF014968D919D910D90BC9189
:100C6000A02D2481358146815781281739074A07ED
:100C70005B0718F4112341F00AC082179307A407F9
:100C8000B50740F4112319F061E070E005C06FEF83
:100C90007FEF02C060E070E0CB011F910895DF9309
:100CA000CF930F92CDB7DEB7ADE2B0E0EDE2F0E06A
:100CB00080818F7E8C93E7E3F0E080818983898156
:100CC0008F708983898180648983E7E3F0E089817B
:100CD0008083ADE2B0E0EDE2F0E0808180648C934F
:100CE0000F90CF91DF910895DF93CF930F92CDB7FF
:100CF000DEB7ADE2B0E0EDE2F0E0808180618C93A0
:100D0000E7E3F0E08081898389818F70898389811D
:100D1000806A8983E7E3F0E089818083ADE2B0E017
:100D2000EDE2F0E080818C7F8C93ADE2B0E0EDE20B
:100D3000F0E0808183608C93AEE2B0E0EEE2F0E020
:100D400080818E7F8C93ADE2B0E0EDE2F0E08081B7
:100D500080648C930F90CF91DF910895DF93CF93B0
:100D6000CDB7DEB7ADE2B0E0EDE2F0E080818062C9
:100D70008C93ADE2B0E0EDE2F0E0808180688C938E
:100D8000ADE2B0E0EDE2F0E08081877F8C93ADE2F0
:100D9000B0E0EDE2F0E0808184608C930E944F0629
:100DA000CF91DF910895DF93CF930F92CDB7DEB748
:100DB0008983EFE2F0E089818083EEE2F0E08081D8
:100DC0008823DCF7EFE2F0E080810F90CF91DF9194
:100DD0000895DF93CF930F92CDB7DEB789838981D2
:100DE000813041F4ADE2B0E0EDE2F0E08081806876
:100DF0008C930AC08981882339F4ADE2B0E0EDE23A
:100E0000F0E080818F778C930F90CF91DF910895E0
:100E1000DF93CF9300D0CDB7DEB78A83EDE2F0E069
:100E2000808189838A81882349F08A81813031F0E9
:100E30008A81823019F08A81833099F489818C7F8C
:100E4000898399818A81892B8983EDE2F0E0898108
:100E50008083AEE2B0E0EEE2F0E080818E7F8C93A2
:100E600012C089818C7F898399818A81892B8983AA
:100E7000EDE2F0E089818083AEE2B0E0EEE2F0E006
:100E8000808181608C930F900F90CF91DF910895B6
:100E9000DF93CF93CDB7DEB7EAE3F0E080EF808356
:100EA000E7E3F0E080E48083E4E3F0E08FEF808329
:100EB000E1E3F0E08FEF8083EBE3F0E08FEF8083FE
:100EC000E8E3F0E01082E5E3F0E01082E2E3F0E036
:100ED0001082CF91DF910895DF93CF9300D000D09F
:100EE0000F92CDB7DEB78A836B8319828A818430F3
:100EF00018F081E0898332C08A81282F30E03D8359
:100F00002C838C819D8181309105D1F02C813D8194
:100F1000223031052CF48C819D81009761F01EC038
:100F20002C813D812230310581F08C819D8183307F
:100F3000910581F013C0EAE3F0E08B8180830EC05D
:100F4000E7E3F0E08B81808309C0E4E3F0E08B818C
:100F5000808304C0E1E3F0E08B81808389810F907E
:100F60000F900F900F900F90CF91DF910895DF9326
:100F7000CF9300D000D00F92CDB7DEB78A836B83BA
:100F800019828A81843018F081E0898332C08A8195
:100F9000282F30E03D832C838C819D818130910509
:100FA000D1F02C813D81223031052CF48C819D8142
:100FB000009761F01EC02C813D812230310581F007
:100FC0008C819D818330910581F013C0EBE3F0E0CB
:100FD0008B8180830EC0E8E3F0E08B81808309C0C1
:100FE000E5E3F0E08B81808304C0E2E3F0E08B81F5
:100FF000808389810F900F900F900F900F90CF9169
:10100000DF910895DF93CF9300D000D000D0CDB70B
:10101000DEB78A837C836B8319828A81843018F0DF
:1010200081E089833AC08A81282F30E03E832D8376
:101030008D819E8181309105E1F02D813E812230AC
:1010400031052CF48D819E81009761F026C02D81A1
:101050003E8122303105A1F08D819E818330910542
:10106000B1F01BC0E9E3F0E08081EB81FC8180837B
:1010700014C0E6E3F0E08081EB81FC8180830DC049
:10108000E3E3F0E08081EB81FC81808306C0E0E354
:10109000F0E08081EB81FC818083898126960FB608
:1010A000F894DEBF0FBECDBFCF91DF910895DF93DF
:1010B000CF93CDB7DEB728970FB6F894DEBF0FBE3B
:1010C000CDBF8A836B834C8319828C81813009F078
:1010D0006FC08A81282F30E038872F838F819885D1
:1010E0008130910549F12F813885223031052CF46A
:1010F0008F819885009761F0D5C02F813885223087
:10110000310571F18F81988583309105E9F1CAC06D
:10111000AAE3B0E0EAE3F0E08081482F8B81282F3A
:1011200030E081E090E0022E02C0880F991F0A94FF
:10113000E2F7842B8C93B6C0A7E3B0E0E7E3F0E0DE
:101140008081482F8B81282F30E081E090E0022EB3
:1011500002C0880F991F0A94E2F7842B8C93A2C0D7
:10116000A4E3B0E0E4E3F0E08081482F8B81282FF6
:1011700030E081E090E0022E02C0880F991F0A94AF
:10118000E2F7842B8C938EC0A1E3B0E0E1E3F0E0C2
:101190008081482F8B81282F30E081E090E0022E63
:1011A00002C0880F991F0A94E2F7842B8C937AC0AF
:1011B0008C81882309F074C08A81282F30E03E8317
:1011C0002D838D819E818130910559F12D813E8144
:1011D000223031052CF48D819E81009769F062C028
:1011E0002D813E812230310589F18D819E818330B0
:1011F000910509F440C056C0AAE3B0E0EAE3F0E08C
:101200008081482F8B81282F30E081E090E0022EF2
:1012100002C0880F991F0A94E2F7809584238C936B
:1012200041C0A7E3B0E0E7E3F0E08081482F8B8185
:10123000282F30E081E090E0022E02C0880F991F35
:101240000A94E2F7809584238C932CC0A4E3B0E049
:10125000E4E3F0E08081482F8B81282F30E081E0AB
:1012600090E0022E02C0880F991F0A94E2F7809541
:1012700084238C9317C0A1E3B0E0E1E3F0E0808128
:10128000482F8B81282F30E081E090E0022E02C0B1
:10129000880F991F0A94E2F7809584238C9302C0EB
:1012A00081E08983898128960FB6F894DEBF0FBE4E
:1012B000CDBFCF91DF910895DF93CF93CDB7DEB748
:1012C00028970FB6F894DEBF0FBECDBF8A836B831D
:1012D0004C8319828C81813009F06FC08A81282F5C
:1012E00030E038872F838F8198858130910549F1CF
:1012F0002F813885223031052CF48F819885009715
:1013000061F0D5C02F8138852230310571F18F8190
:10131000988583309105E9F1CAC0ABE3B0E0EBE317
:10132000F0E08081482F8B81282F30E081E090E031
:10133000022E02C0880F991F0A94E2F7842B8C9327
:10134000B6C0A8E3B0E0E8E3F0E08081482F8B81ED
:10135000282F30E081E090E0022E02C0880F991F14
:101360000A94E2F7842B8C93A2C0A5E3B0E0E5E3F6
:10137000F0E08081482F8B81282F30E081E090E0E1
:10138000022E02C0880F991F0A94E2F7842B8C93D7
:101390008EC0A2E3B0E0E2E3F0E08081482F8B81D1
:1013A000282F30E081E090E0022E02C0880F991FC4
:1013B0000A94E2F7842B8C937AC08C81882309F0FD
:1013C00074C08A81282F30E03E832D838D819E81D9
:1013D0008130910559F12D813E81223031052CF467
:1013E0008D819E81009769F062C02D813E812230FF
:1013F000310589F18D819E818330910509F440C0CA
:1014000056C0ABE3B0E0EBE3F0E08081482F8B8186
:10141000282F30E081E090E0022E02C0880F991F53
:101420000A94E2F7809584238C9341C0A8E3B0E04E
:10143000E8E3F0E08081482F8B81282F30E081E0C5
:1014400090E0022E02C0880F991F0A94E2F780955F
:1014500084238C932CC0A5E3B0E0E5E3F0E0808129
:10146000482F8B81282F30E081E090E0022E02C0CF
:10147000880F991F0A94E2F7809584238C9317C0F4
:10148000A2E3B0E0E2E3F0E08081482F8B81282FD7
:1014900030E081E090E0022E02C0880F991F0A948C
:1014A000E2F7809584238C9302C081E0898389814F
:1014B00028960FB6F894DEBF0FBECDBFCF91DF9157
:1014C0000895DF93CF93CDB7DEB727970FB6F89483
:1014D000DEBF0FBECDBF8A836B835D834C831982D1
:1014E0008A81282F30E03F832E834E815F814130F7
:1014F000510559F18E819F818230910534F42E81FE
:101500003F812115310569F05BC04E815F8142301A
:10151000510579F18E819F818330910509F43DC099
:101520004FC0E9E3F0E08081282F30E08B81882FE5
:1015300090E0A90102C0559547958A95E2F7CA0146
:101540008170EC81FD8180833BC0E6E3F0E0808127
:10155000282F30E08B81882F90E0A90102C055959B
:1015600047958A95E2F7CA018170EC81FD818083FD
:1015700027C0E3E3F0E08081282F30E08B81882FC3
:1015800090E0A90102C0559547958A95E2F7CA01F6
:101590008170EC81FD81808313C0E0E3F0E0808105
:1015A000282F30E08B81882F90E0A90102C055954B
:1015B00047958A95E2F7CA018170EC81FD818083AD
:1015C000898127960FB6F894DEBF0FBECDBFCF91AD
:1015D000DF910895DF93CF93CDB7DEB760970FB655
:1015E000F894DEBF0FBECDBF188A8EC083E0688935
:1015F00041E00E945C0988898F5F8F8708C083E083
:101600006F8540E00E945C098F858F5F8F878F8593
:101610008430A8F380E090E0A0E0B0E48B879C8762
:10162000AD87BE876B857C858D859E8520E030E00B
:101630004AEF54E40E941F02DC01CB018F8398879C
:10164000A987BA876F81788589859A8520E030E0FF
:1016500040E85FE30E94250488232CF481E090E0B9
:101660009E838D833FC06F81788589859A8520E030
:101670003FEF4FE757E40E94C50318164CF56B8502
:101680007C858D859E8520E030E040E251E40E941B
:101690001F02DC01CB01BC01CD010E944900DC012D
:1016A000CB019E838D830FC088EC90E09C838B835D
:1016B0008B819C810197F1F79C838B838D819E8127
:1016C00001979E838D838D819E81009769F714C059
:1016D0006F81788589859A850E944900DC01CB015C
:1016E0009E838D838D819E819A83898389819A814E
:1016F0000197F1F79A83898383E0688940E00E942B
:101700005C0988898F5F888B8889843008F46ECF64
:1017100060960FB6F894DEBF0FBECDBFCF91DF91BC
:101720000895DF93CF93CDB7DEB760970FB6F894E7
:10173000DEBF0FBECDBF83E0888B91C0988983E068
:10174000692F41E00E945C09888981508F8709C018
:101750009F8583E0692F40E00E945C098F8581505E
:101760008F878F858823A4F780E090E0A0E0B0E425
:101770008B879C87AD87BE876B857C858D859E8595
:1017800020E030E04AEF54E40E941F02DC01CB016C
:101790008F839887A987BA876F81788589859A858D
:1017A00020E030E040E85FE30E94250488232CF429
:1017B00081E090E09E838D833FC06F81788589852D
:1017C0009A8520E03FEF4FE757E40E94C5031816C3
:1017D0004CF56B857C858D859E8520E030E040E270
:1017E00051E40E941F02DC01CB01BC01CD010E942B
:1017F0004900DC01CB019E838D830FC088EC90E013
:101800009C838B838B819C810197F1F79C838B83D5
:101810008D819E8101979E838D838D819E8100970E
:1018200069F714C06F81788589859A850E9449007F
:10183000DC01CB019E838D838D819E819A83898378
:1018400089819A810197F1F79A838983988983E046
:10185000692F40E00E945C0988898150888B8889C3
:1018600088230CF06BCF60960FB6F894DEBF0FBEE6
:10187000CDBFCF91DF9108950F931F93DF93CF9347
:10188000CDB7DEB7C256D0400FB6F894DEBF0FBE5C
:10189000CDBF83E060E041E00E945C0983E061E04D
:1018A00040E00E945C0983E062E040E00E945C0945
:1018B00083E063E040E00E945C09FE01E15AFF4FD3
:1018C00080E090E0A0E0B0E480839183A283B383C2
:1018D0008E01055A1F4FFE01E15AFF4F6081718151
:1018E0008281938120E030E04AEF54E40E941F029D
:1018F000DC01CB01F80180839183A283B383FE01D5
:10190000E55AFF4F608171818281938120E030E050
:1019100040E85FE30E942504882344F4FE01E75A6F
:10192000FF4F81E090E09183808364C0FE01E55A1F
:10193000FF4F608171818281938120E03FEF4FE70B
:1019400057E40E94C50318160CF043C0FE01E15A8B
:10195000FF4F608171818281938120E030E040E21D
:1019600051E40E941F02DC01CB018E01075A1F4F78
:10197000BC01CD010E944900DC01CB01F80191833B
:1019800080831FC0FE01E95AFF4F88EC90E09183ED
:101990008083FE01E95AFF4F808191810197F1F721
:1019A000FE01E95AFF4F91838083DE01A75ABF4FA2
:1019B000FE01E75AFF4F80819181019711969C9318
:1019C0008E93FE01E75AFF4F808191810097D1F6F7
:1019D00027C08E01075A1F4FFE01E55AFF4F608155
:1019E0007181828193810E944900DC01CB01F80161
:1019F00091838083DE01AB5ABF4FFE01E75AFF4F50
:101A0000808191818D939C93FE01EB5AFF4F8081E1
:101A100091810197F1F7FE01EB5AFF4F918380838B
:101A200083E060E041E00E945C0983E061E041E026
:101A30000E945C0983E062E040E00E945C0983E070
:101A400063E040E00E945C09FE01EF5AFF4F80E036
:101A500090E0A0E0B0E480839183A283B3838E0101
:101A6000035B1F4FFE01EF5AFF4F6081718182813E
:101A7000938120E030E04AEF54E40E941F02DC0131
:101A8000CB01F80180839183A283B383FE01E35BE2
:101A9000FF4F608171818281938120E030E040E8D6
:101AA0005FE30E942504882344F4FE01E55BFF4FB9
:101AB00081E090E09183808364C0FE01E35BFF4F8F
:101AC000608171818281938120E03FEF4FE757E48D
:101AD0000E94C50318160CF043C0FE01EF5AFF4FD9
:101AE000608171818281938120E030E040E251E4A5
:101AF0000E941F02DC01CB018E01055B1F4FBC0160
:101B0000CD010E944900DC01CB01F8019183808363
:101B10001FC0FE01E75BFF4F88EC90E0918380835C
:101B2000FE01E75BFF4F808191810197F1F7FE0194
:101B3000E75BFF4F91838083DE01A55BBF4FFE0112
:101B4000E55BFF4F80819181019711969C938E9365
:101B5000FE01E55BFF4F808191810097D1F627C0A0
:101B60008E01055B1F4FFE01E35BFF4F60817181BA
:101B7000828193810E944900DC01CB01F8019183AD
:101B80008083DE01A95BBF4FFE01E55BFF4F8081D3
:101B900091818D939C93FE01E95BFF4F8081918140
:101BA0000197F1F7FE01E95BFF4F9183808383E0AA
:101BB00060E040E00E945C0983E061E041E00E9457
:101BC0005C0983E062E040E00E945C0983E063E03E
:101BD00040E00E945C09FE01ED5BFF4F80E090E079
:101BE000A0E0B0E480839183A283B3838E01015C83
:101BF0001F4FFE01ED5BFF4F6081718182819381F8
:101C000020E030E04AEF54E40E941F02DC01CB01E7
:101C1000F80180839183A283B383FE01FF966081E4
:101C200071818281938120E030E040E85FE30E948F
:101C3000250488232CF481E090E09EAF8DAF46C050
:101C4000FE01FF96608171818281938120E03FEFE8
:101C50004FE757E40E94C503181664F5FE01ED5BDB
:101C6000FF4F608171818281938120E030E040E20A
:101C700051E40E941F02DC01CB01BC01CD010E9496
:101C80004900DC01CB019EAF8DAF0FC088EC90E026
:101C90009CAF8BAF8BAD9CAD0197F1F79CAF8BAF39
:101CA0008DAD9EAD01979EAF8DAF8DAD9EAD009772
:101CB00069F716C0FE01FF96608171818281938170
:101CC0000E944900DC01CB019EAF8DAF8DAD9EAD72
:101CD0009AAF89AF89AD9AAD0197F1F79AAF89AF05
:101CE00083E060E040E00E945C0983E061E041E065
:101CF0000E945C0983E062E041E00E945C0983E0AD
:101D000063E040E00E945C0980E090E0A0E0B0E485
:101D10008DAB9EABAFABB8AF6DA97EA98FA998ADC7
:101D200020E030E04AEF54E40E941F02DC01CB01C6
:101D300089AB9AABABABBCAB69A97AA98BA99CA9BF
:101D400020E030E040E85FE30E94250488232CF483
:101D500081E090E098AB8FA73FC069A97AA98BA9D1
:101D60009CA920E03FEF4FE757E40E94C5031816F7
:101D70004CF56DA97EA98FA998AD20E030E040E236
:101D800051E40E941F02DC01CB01BC01CD010E9485
:101D90004900DC01CB0198AB8FA70FC088EC90E025
:101DA0009EA78DA78DA59EA50197F1F79EA78DA74C
:101DB0008FA598A9019798AB8FA78FA598A9009791
:101DC00069F714C069A97AA98BA99CA90E94490046
:101DD000DC01CB0198AB8FA78FA598A99CA78BA7F7
:101DE0008BA59CA50197F1F79CA78BA783E060E0EA
:101DF00040E00E945C0983E061E040E00E945C09F1
:101E000083E062E041E00E945C0983E063E040E03F
:101E10000E945C0980E090E0A0E0B0E48FA398A766
:101E2000A9A7BAA76FA178A589A59AA520E030E057
:101E30004AEF54E40E941F02DC01CB018BA39CA358
:101E4000ADA3BEA36BA17CA18DA19EA120E030E03B
:101E500040E85FE30E94250488232CF481E090E0B1
:101E60009AA389A33FC06BA17CA18DA19EA120E074
:101E70003FEF4FE757E40E94C50318164CF56FA1DA
:101E800078A589A59AA520E030E040E251E40E94BF
:101E90001F02DC01CB01BC01CD010E944900DC0125
:101EA000CB019AA389A30FC088EC90E098A38F8FF1
:101EB0008F8D98A10197F1F798A38F8F89A19AA18F
:101EC00001979AA389A389A19AA1009769F714C0E1
:101ED0006BA17CA18DA19EA10E944900DC01CB01D8
:101EE0009AA389A389A19AA19E8F8D8F8D8D9E8D96
:101EF0000197F1F79E8F8D8F83E060E040E00E94B4
:101F00005C0983E061E040E00E945C0983E062E0FC
:101F100041E00E945C0983E063E041E00E945C09CB
:101F200080E090E0A0E0B0E4898F9A8FAB8FBC8F07
:101F3000698D7A8D8B8D9C8D20E030E04AEF54E4E2
:101F40000E941F02DC01CB018D8B9E8BAF8BB88F63
:101F50006D897E898F89988D20E030E040E85FE3CD
:101F60000E94250488232CF481E090E09C8B8B8BCD
:101F70003FC06D897E898F89988D20E03FEF4FE7C4
:101F800057E40E94C50318164CF5698D7A8D8B8D28
:101F90009C8D20E030E040E251E40E941F02DC0111
:101FA000CB01BC01CD010E944900DC01CB019C8B1F
:101FB0008B8B0FC088EC90E09A8B898B89899A89EA
:101FC0000197F1F79A8B898B8B899C8901979C8B60
:101FD0008B8B8B899C89009769F714C06D897E89EA
:101FE0008F89988D0E944900DC01CB019C8B8B8BE3
:101FF0008B899C89988B8F878F8598890197F1F7BA
:10200000988B8F8783E060E040E00E945C0983E06A
:1020100061E040E00E945C0983E062E040E00E94F1
:102020005C0983E063E041E00E945C0980E090E0AD
:10203000A0E0B0E48B879C87AD87BE876B857C85ED
:102040008D859E8520E030E04AEF54E40E941F0217
:10205000DC01CB018F839887A987BA876F81788548
:1020600089859A8520E030E040E85FE30E942504FE
:1020700088232CF481E090E09E838D833FC06F81A4
:10208000788589859A8520E03FEF4FE757E40E94E5
:10209000C50318164CF56B857C858D859E8520E0E3
:1020A00030E040E251E40E941F02DC01CB01BC01A0
:1020B000CD010E944900DC01CB019E838D830FC0BE
:1020C00088EC90E09C838B838B819C810197F1F756
:1020D0009C838B838D819E8101979E838D838D81CF
:1020E0009E81009769F714C06F81788589859A85EC
:1020F0000E944900DC01CB019E838D838D819E81EE
:102100009A83898389819A810197F1F79A838983D8
:1021100083E060E041E00E945C0983E061E040E030
:102120000E945C0983E062E040E00E945C0983E079
:1021300063E041E00E945C09CE59DF4F0FB6F8948E
:10214000DEBF0FBECDBFCF91DF911F910F910895DC
:102150000F931F93DF93CF93CDB7DEB7C256D04016
:102160000FB6F894DEBF0FBECDBF83E060E040E065
:102170000E945C0983E061E040E00E945C0983E02A
:1021800062E040E00E945C0983E063E041E00E947D
:102190005C09FE01E15AFF4F80E090E0A0E0B0E46E
:1021A00080839183A283B3838E01055A1F4FFE0162
:1021B000E15AFF4F608171818281938120E030E09C
:1021C0004AEF54E40E941F02DC01CB01F801808336
:1021D0009183A283B383FE01E55AFF4F6081718131
:1021E0008281938120E030E040E85FE30E94250493
:1021F000882344F4FE01E75AFF4F81E090E0918389
:10220000808364C0FE01E55AFF4F60817181828145
:10221000938120E03FEF4FE757E40E94C503181673
:102220000CF043C0FE01E15AFF4F60817181828151
:10223000938120E030E040E251E40E941F02DC0183
:10224000CB018E01075A1F4FBC01CD010E944900EE
:10225000DC01CB01F801918380831FC0FE01E95AA4
:10226000FF4F88EC90E091838083FE01E95AFF4F95
:10227000808191810197F1F7FE01E95AFF4F918327
:102280008083DE01A75ABF4FFE01E75AFF4F8081CE
:102290009181019711969C938E93FE01E75AFF4F0F
:1022A000808191810097D1F627C08E01075A1F4F78
:1022B000FE01E55AFF4F60817181828193810E9406
:1022C0004900DC01CB01F80191838083DE01AB5A28
:1022D000BF4FFE01E75AFF4F808191818D939C9300
:1022E000FE01EB5AFF4F808191810197F1F7FE01CA
:1022F000EB5AFF4F9183808383E060E040E00E94CF
:102300005C0983E061E040E00E945C0983E062E0F8
:1023100041E00E945C0983E063E041E00E945C09C7
:10232000FE01EF5AFF4F80E090E0A0E0B0E4808330
:102330009183A283B3838E01035B1F4FFE01EF5A8B
:10234000FF4F608171818281938120E030E04AEF0C
:1023500054E40E941F02DC01CB01F80180839183C9
:10236000A283B383FE01E35BFF4F608171818281B1
:10237000938120E030E040E85FE30E942504882359
:1023800044F4FE01E55BFF4F81E090E091838083A0
:1023900064C0FE01E35BFF4F6081718182819381A4
:1023A00020E03FEF4FE757E40E94C50318160CF0FA
:1023B00043C0FE01EF5AFF4F60817181828193819A
:1023C00020E030E040E251E40E941F02DC01CB013A
:1023D0008E01055B1F4FBC01CD010E944900DC014D
:1023E000CB01F801918380831FC0FE01E75BFF4FA3
:1023F00088EC90E091838083FE01E75BFF4F808152
:1024000091810197F1F7FE01E75BFF4F9183808394
:10241000DE01A55BBF4FFE01E55BFF4F808191812F
:10242000019711969C938E93FE01E55BFF4F80818F
:1024300091810097D1F627C08E01055B1F4FFE01E9
:10244000E35BFF4F60817181828193810E9449002B
:10245000DC01CB01F80191838083DE01A95BBF4FD2
:10246000FE01E55BFF4F808191818D939C93FE017E
:10247000E95BFF4F808191810197F1F7FE01E95BF4
:10248000FF4F9183808383E060E040E00E945C091D
:1024900083E061E040E00E945C0983E062E041E0AB
:1024A0000E945C0983E063E040E00E945C09FE0159
:1024B000ED5BFF4F80E090E0A0E0B0E4808391838B
:1024C000A283B3838E01015C1F4FFE01ED5BFF4FC2
:1024D000608171818281938120E030E04AEF54E491
:1024E0000E941F02DC01CB01F80180839183A2834B
:1024F000B383FE01FF96608171818281938120E028
:1025000030E040E85FE30E94250488232CF481E05A
:1025100090E09EAF8DAF46C0FE01FF966081718155
:102520008281938120E03FEF4FE757E40E94C5038B
:10253000181664F5FE01ED5BFF4F608171818281A9
:10254000938120E030E040E251E40E941F02DC0170
:10255000CB01BC01CD010E944900DC01CB019EAF43
:102560008DAF0FC088EC90E09CAF8BAF8BAD9CAD76
:102570000197F1F79CAF8BAF8DAD9EAD01979EAFEC
:102580008DAF8DAD9EAD009769F716C0FE01FF9629
:1025900060817181828193810E944900DC01CB01BD
:1025A0009EAF8DAF8DAD9EAD9AAF89AF89AD9AAD1F
:1025B0000197F1F79AAF89AF83E060E040E00E94B5
:1025C0005C0983E061E041E00E945C0983E062E035
:1025D00041E00E945C0983E063E040E00E945C0906
:1025E00080E090E0A0E0B0E48DAB9EABAFABB8AFC5
:1025F0006DA97EA98FA998AD20E030E04AEF54E4A0
:102600000E941F02DC01CB0189AB9AABABABBCAB28
:1026100069A97AA98BA99CA920E030E040E85FE392
:102620000E94250488232CF481E090E098AB8FA7CA
:102630003FC069A97AA98BA99CA920E03FEF4FE789
:1026400057E40E94C50318164CF56DA97EA98FA901
:1026500098AD20E030E040E251E40E941F02DC012E
:10266000CB01BC01CD010E944900DC01CB0198AB3C
:102670008FA70FC088EC90E09EA78DA78DA59EA583
:102680000197F1F79EA78DA78FA598A9019798AB01
:102690008FA78FA598A9009769F714C069A97AA98F
:1026A0008BA99CA90E944900DC01CB0198AB8FA7A4
:1026B0008FA598A99CA78BA78BA59CA50197F1F73F
:1026C0009CA78BA783E060E040E00E945C0983E068
:1026D00061E041E00E945C0983E062E040E00E942A
:1026E0005C0983E063E040E00E945C0980E090E0E8
:1026F000A0E0B0E48FA398A7A9A7BAA76FA178A577
:1027000089A59AA520E030E04AEF54E40E941F0218
:10271000DC01CB018BA39CA3ADA3BEA36BA17CA1C9
:102720008DA19EA120E030E040E85FE30E942504F7
:1027300088232CF481E090E09AA389A33FC06BA189
:102740007CA18DA19EA120E03FEF4FE757E40E94BE
:10275000C50318164CF56FA178A589A59AA520E0A8
:1027600030E040E251E40E941F02DC01CB01BC01D9
:10277000CD010E944900DC01CB019AA389A30FC0BF
:1027800088EC90E098A38F8F8F8D98A10197F1F737
:1027900098A38F8F89A19AA101979AA389A389A150
:1027A0009AA1009769F714C06BA17CA18DA19EA18D
:1027B0000E944900DC01CB019AA389A389A19AA1B7
:1027C0009E8F8D8F8D8D9E8D0197F1F79E8F8D8FB2
:1027D00083E060E041E00E945C0983E061E041E069
:1027E0000E945C0983E062E040E00E945C0983E0B3
:1027F00063E040E00E945C0980E090E0A0E0B0E48B
:10280000898F9A8FAB8FBC8F698D7A8D8B8D9C8DC4
:1028100020E030E04AEF54E40E941F02DC01CB01CB
:102820008D8B9E8BAF8BB88F6D897E898F89988DAC
:1028300020E030E040E85FE30E94250488232CF488
:1028400081E090E09C8B8B8B3FC06D897E898F8966
:10285000988D20E03FEF4FE757E40E94C50318161C
:102860004CF5698D7A8D8B8D9C8D20E030E040E2B7
:1028700051E40E941F02DC01CB01BC01CD010E948A
:102880004900DC01CB019C8B8B8B0FC088EC90E066
:102890009A8B898B89899A890197F1F79A8B898B11
:1028A0008B899C8901979C8B8B8B8B899C8900974A
:1028B00069F714C06D897E898F89988D0E944900BF
:1028C000DC01CB019C8B8B8B8B899C89988B8F87B0
:1028D0008F8598890197F1F7988B8F8783E060E067
:1028E00041E00E945C0983E061E040E00E945C09F5
:1028F00083E062E040E00E945C0983E063E040E046
:102900000E945C0980E090E0A0E0B0E48B879C87A7
:10291000AD87BE876B857C858D859E8520E030E008
:102920004AEF54E40E941F02DC01CB018F83988799
:10293000A987BA876F81788589859A8520E030E0FC
:1029400040E85FE30E94250488232CF481E090E0B6
:102950009E838D833FC06F81788589859A8520E02D
:102960003FEF4FE757E40E94C50318164CF56B85FF
:102970007C858D859E8520E030E040E251E40E9418
:102980001F02DC01CB01BC01CD010E944900DC012A
:10299000CB019E838D830FC088EC90E09C838B835A
:1029A0008B819C810197F1F79C838B838D819E8124
:1029B00001979E838D838D819E81009769F714C056
:1029C0006F81788589859A850E944900DC01CB0159
:1029D0009E838D838D819E819A83898389819A814B
:1029E0000197F1F79A83898383E060E041E00E94D8
:1029F0005C0983E061E040E00E945C0983E062E002
:102A000040E00E945C0983E063E041E00E945C09D1
:102A1000CE59DF4F0FB6F894DEBF0FBECDBFCF91BA
:102A2000DF911F910F910895DF93CF930F92CDB750
:102A3000DEB7198208C083E0698140E00E945C092A
:102A400089818F5F898389818430A8F30F90CF912A
:102A5000DF910895DF93CF9300D000D00F92CDB7D0
:102A6000DEB76A837B838C839D836A817B818C81C3
:102A70009D8123E333E343E35EE30E941903DC011A
:102A8000CB01BC01CD010E944900DC01CB0189834F
:102A90008981869586950F900F900F900F900F90DB
:102AA000CF91DF910895DF93CF93CDB7DEB7E7E302
:102AB000F0E080EB8083ADE2B0E0EDE2F0E0808119
:102AC00087638C93ADE2B0E0EDE2F0E0808180645A
:102AD0008C93CF91DF910895DF93CF93CDB7DEB77D
:102AE000E7E3F0E080E48083ADE2B0E0EDE2F0E027
:102AF0008081846A8C93ADE2B0E0EDE2F0E0808109
:102B000080648C93CF91DF910895DF93CF930F92E0
:102B1000CDB7DEB78983EFE2F0E089818083EEE212
:102B2000F0E080818823DCF70F90CF91DF9108954A
:102B3000DF93CF930F92CDB7DEB7EEE2F0E0808166
:102B40008823DCF7EFE2F0E08081898389810F90B0
:102B5000CF91DF910895DF93CF930F92CDB7DEB77A
:102B60008983EFE2F0E089818083EEE2F0E080810A
:102B70008823DCF7EFE2F0E080810F90CF91DF91C6
:102B80000895DF93CF93CDB7DEB70E9448070E9428
:102B9000AE06AFE5B0E0EFE5F0E0808180688C93B1
:102BA000809169008130E1F780916800813031F4D3
:102BB00080E060E041E00E945C0909C0809168000B
:102BC000882329F480E060E040E00E945C091092D4
:102BD0006900E6CF1F920F920FB60F9211248F93C8
:102BE000EF93FF93DF93CF93CDB7DEB7EFE2F0E043
:102BF00080818093680081E080936900CF91DF91AC
:102C0000FF91EF918F910F900FBE0F901F9018952D
:102C10002F923F924F925F926F927F928F929F92EC
:102C2000AF92BF92CF92DF92EF92FF920F931F93DA
:102C3000CF93DF93CDB7DEB7CA1BDB0B0FB6F8948B
:102C4000DEBF0FBECDBF09942A88398848885F84CB
:102C50006E847D848C849B84AA84B984C884DF803C
:102C6000EE80FD800C811B81AA81B981CE0FD11D20
:102C70000FB6F894DEBF0FBECDBFED010895F894F6
:022C8000FFCF84
:082C820000000000000000004A
:00000001FF
