:100000000C942A000C946E0F0C949B0F0C94C80F48
:100010000C941A0D0C94ED0C0C94FD1D0C94C00C5A
:100020000C94930C0C94660C0C94B21D0C94390C2B
:100030000C9447000C9447000C9447000C94470024
:100040000C9424150C9447000C9447000C94470022
:100050000C94470011241FBECFE5D8E0DEBFCDBF12
:1000600011E0A0E6B0E0E6EAFDE302C005900D92E3
:10007000A23AB107D9F711E0A2EAB1E001C01D929E
:10008000AB3CB107E1F70E94C21D0C94D11E0C9449
:100090000000EF92FF920F931F937B018C0120E0F1
:1000A00030E040E05FE40E94F50388238CF0C80153
:1000B000B70120E030E040E05FE40E94C1010E940F
:1000C00055049B01AC01205030404040504806C0D0
:1000D000C801B7010E9455049B01AC01B901CA01D6
:1000E0001F910F91FF90EF900895A0E0B0E0EBE733
:1000F000F0E00C949A1EDC012B01FA019C919230E5
:1001000008F439C1EB018881823008F433C194309E
:1001100069F4843009F02FC111969C91119789815F
:10012000981709F428C1A8E7B0E025C1843009F484
:1001300021C18230A9F4923009F01DC19A01AD01AC
:1001400088E0EA010990AE01E90109929E0181501F
:10015000C1F7E201898111969C918923818308C1AD
:10016000923009F407C112962D903C901397EB0141
:100170008A819B811496AD90BD90CD90DC901797AD
:10018000EC80FD800E811F819101281B390BB90184
:1001900037FF04C066277727621B730B6032710537
:1001A0000CF061C0121613066CF537014801062EDB
:1001B00004C096948794779467940A94D2F721E0C8
:1001C00030E040E050E004C0220F331F441F551FB1
:1001D0006A95D2F721503040404050402E213F21B7
:1001E00040235123211531054105510521F021E01E
:1001F00030E040E050E079018A01E628F72808293C
:1002000019293CC0232BD1F1260E371E350146019A
:10021000062E04C096948794779467940A94D2F734
:1002200021E030E040E050E004C0220F331F441FC3
:10023000551F6A95D2F721503040404050402A2146
:100240003B214C215D21211531054105510521F04E
:1002500021E030E040E050E059016A01A628B728CB
:10026000C828D9280BC0821593052CF01C01AA249C
:10027000BB24650103C0EE24FF24870111969C91E5
:10028000D20111968C91981709F445C0992339F041
:10029000A80197012A193B094C095D0906C0A6016E
:1002A00095012E193F09400B510B57FD08C01182D3
:1002B0003382228224833583468357831DC081E0A5
:1002C00081833382228288279927DC01821B930B4A
:1002D000A40BB50B84839583A683B7830DC0220F2F
:1002E000331F441F551F24833583468357838281E0
:1002F000938101979383828324813581468157813D
:10030000DA01C9010197A109B1098F5F9F4FAF4F72
:10031000BF4328F30BC0918333822282EA0CFB1C7B
:100320000C1D1D1DE482F5820683178383E0808304
:10033000248135814681578157FF1AC0C901AA27F8
:1003400097FDA095BA2F81709070A070B0705695EF
:10035000479537952795822B932BA42BB52B848318
:100360009583A683B7838281938101969383828349
:10037000DF0101C0D201CD01CDB7DEB7E2E10C94BF
:10038000B61EA0E2B0E0E7ECF1E00C94A61E698393
:100390007A838B839C832D833E834F835887E9E048
:1003A000EE2EF12CEC0EFD1ECE010196B7010E943F
:1003B00046068E010F5E1F4FCE010596B8010E94C2
:1003C00046068A8991E089278A8BC701B801AE0168
:1003D000475E5F4F0E9475000E947105A096E6E09F
:1003E0000C94C21EA0E2B0E0E8EFF1E00C94A61E6F
:1003F00069837A838B839C832D833E834F835887C5
:10040000F9E0EF2EF12CEC0EFD1ECE010196B701A6
:100410000E9446068E010F5E1F4FCE010596B80161
:100420000E944606C701B801AE01475E5F4F0E94B9
:1004300075000E947105A096E6E00C94C21EA0E231
:10044000B0E0E5E2F2E00C949A1E69837A838B8334
:100450009C832D833E834F835887CE010196BE0136
:10046000675F7F4F0E944606CE010596BE016F5E14
:100470007F4F0E9446069985923088F089898230A4
:10048000C8F0943019F4823051F404C0843029F457
:10049000923081F488E790E0C6C0923049F420E0C1
:1004A0009A858A89981321E02A87CE010996BBC0D4
:1004B000823049F420E09A858A89981321E02A8BBA
:1004C000CE014196B0C02D843E844F8458886D88FB
:1004D0007E888F88988CEE24FF248701AA24BB2471
:1004E000650140E050E060E070E0E0E0F0E0C10174
:1004F00081709070892BE9F0E60CF71C081D191D1E
:100500009A01AB012A0D3B1D4C1D5D1D80E090E062
:10051000A0E0B0E0E614F7040805190520F481E036
:1005200090E0A0E0B0E0BA01A901480F591F6A1F8E
:100530007B1FAA0CBB1CCC1CDD1C97FE08C081E0F5
:1005400090E0A0E0B0E0A82AB92ACA2ADB2A3196B6
:10055000E032F10549F0660C771C881C991C569412
:10056000479437942794C3CFFA85EA892B893C892D
:100570008B859C85280F391F2E5F3F4F17C0CA01FE
:1005800081709070892B61F016950795F794E79428
:1005900080E090E0A0E0B0E8E82AF92A0A2B1B2BC3
:1005A00076956795579547952F5F3F4F77FDE7CF36
:1005B0000CC0440F551F661F771F17FD4160EE0CDE
:1005C000FF1C001F111F21503040403090E05907A0
:1005D00090E0690790E4790760F32B8F3C8FDB0193
:1005E000CA018F779070A070B07080349105A1051A
:1005F000B10561F447FD0AC0E114F10401051105DC
:1006000029F0405C5F4F6F4F7F4F40781A8EFE1786
:1006100011F081E08A8F4D8F5E8F6F8F78A383E01A
:10062000898FCE0149960E947105A096E2E10C9453
:10063000B61EA8E1B0E0EFE1F3E00C94A21E6983DE
:100640007A838B839C832D833E834F835887B9E0C5
:10065000EB2EF12CEC0EFD1ECE010196B7010E948F
:1006600046068E010F5E1F4FCE010596B8010E940F
:1006700046062985223008F47EC03989323010F4CC
:10068000B8017CC08A859A8989278A87243011F02D
:10069000223031F4231709F06EC068E770E06EC0B5
:1006A000343039F41D861E861F86188A1C861B86E8
:1006B00004C0323021F484E08987B7015FC02B8504
:1006C0003C858B899C89281B390B3C872B87ED84C3
:1006D000FE840F851889AD88BE88CF88D88CEA142F
:1006E000FB040C051D0540F4EE0CFF1C001F111F40
:1006F000215030403C872B8720E030E040E050E044
:1007000080E090E0A0E0B0E460E070E0EA14FB0478
:100710000C051D0540F0282B392B4A2B5B2BEA18C2
:10072000FB080C091D09B695A79597958795EE0CC2
:10073000FF1C001F111F6F5F7F4F6F31710531F775
:10074000DA01C9018F779070A070B0708034910584
:10075000A105B10561F427FD0AC0E114F10401050A
:10076000110529F0205C3F4F4F4F5F4F20782D87B8
:100770003E874F87588BBE01675F7F4FCB010E943A
:1007800071056896EAE00C94BE1EA8E1B0E0EBECBF
:10079000F3E00C94A61E69837A838B839C832D835C
:1007A0003E834F83588789E0E82EF12CEC0EFD1E26
:1007B000CE010196B7010E9446068E010F5E1F4FC3
:1007C000CE010596B8010E9446068985823040F028
:1007D0008989823028F0C701B8010E94BE0601C095
:1007E0008FEF6896E6E00C94C21EA8E1B0E0EBEF54
:1007F000F3E00C94A61E69837A838B839C832D83FC
:100800003E834F83588789E0E82EF12CEC0EFD1EC5
:10081000CE010196B7010E9446068E010F5E1F4F62
:10082000CE010596B8010E9446068985823040F0C7
:100830008989823028F0C701B8010E94BE0601C034
:100840008FEF6896E6E00C94C21EA8E1B0E0EBE200
:10085000F4E00C94A61E69837A838B839C832D839A
:100860003E834F83588789E0E82EF12CEC0EFD1E65
:10087000CE010196B7010E9446068E010F5E1F4F02
:10088000CE010596B8010E9446068985823040F067
:100890008989823028F0C701B8010E94BE0601C0D4
:1008A00081E06896E6E00C94C21EACE0B0E0EBE5B7
:1008B000F4E00C94AA1E69837A838B839C83CE0117
:1008C0000196BE016B5F7F4F0E9446068D8182308C
:1008D00061F1823050F1843021F48E81882351F10E
:1008E0002EC02F81388537FD20C06E812F31310514
:1008F0001CF06623F9F023C08EE190E0821B930B7D
:1009000029853A854B855C8504C056954795379572
:1009100027958A95D2F76623B1F05095409530958A
:1009200021953F4F4F4F5F4F0EC020E030E040E039
:1009300050E009C02FEF3FEF4FEF5FE704C020E02A
:1009400030E040E050E8B901CA012C96E2E00C9496
:10095000C61EA8E0B0E0EFEAF4E00C94A21E7B0112
:100960008C01611571058105910519F482E0898377
:1009700060C083E089838EE1C82ED12CDC82CB82DB
:10098000ED82FE820F831887C801B7010E942205FD
:10099000FC013197F7FF3BC0222733272E1B3F0B6B
:1009A00057016801022E04C0D694C794B794A79447
:1009B0000A94D2F740E050E060E070E081E090E01F
:1009C000A0E0B0E004C0880F991FAA1FBB1F2A95A2
:1009D000D2F70197A109B1098E219F21A023B1234C
:1009E0000097A105B10521F041E050E060E070E022
:1009F0004A295B296C297D294D835E836F83788723
:100A00008EE190E08E1B9F0B9C838B8312C03097EE
:100A100081F00E2E04C0EE0CFF1C001F111F0A9463
:100A2000D2F7ED82FE820F831887CE1ADF0ADC82AE
:100A3000CB821A82CE0101960E9471052896EAE0C7
:100A40000C94BE1EEF92FF920F931F937B018C01BB
:100A500080E0E81680E0F80681E0080780E01807EB
:100A600088F48FEFE816F1040105110531F028F044
:100A700088E090E0A0E0B0E017C080E090E0A0E067
:100A8000B0E012C080E0E81680E0F80680E00807D9
:100A900081E0180728F088E190E0A0E0B0E004C011
:100AA00080E190E0A0E0B0E020E230E040E050E003
:100AB000281B390B4A0B5B0B04C016950795F7945E
:100AC000E7948A95D2F7F701E058FF4F8081281B01
:100AD000310941095109C9011F910F91FF90EF9010
:100AE0000895DF92EF92FF920F931F93FC01E48031
:100AF000F58006811781D1808081823048F480E0C2
:100B000090E0A0E1B0E0E82AF92A0A2B1B2BA5C04F
:100B1000843009F49FC0823021F4EE24FF24870141
:100B200005C0E114F1040105110519F4E0E0F0E05D
:100B300096C0628173819FEF623879070CF05BC0C9
:100B400022E83FEF261B370B2A3131052CF020E03D
:100B500030E040E050E02AC0B801A701022E04C0F6
:100B600076956795579547950A94D2F781E090E07E
:100B7000A0E0B0E004C0880F991FAA1FBB1F2A95F0
:100B8000D2F70197A109B1098E219F21A023B1239A
:100B90000097A105B10521F081E090E0A0E0B0E070
:100BA0009A01AB01282B392B4A2B5B2BDA01C901A7
:100BB0008F779070A070B07080349105A105B10559
:100BC00039F427FF09C0205C3F4F4F4F5F4F04C0EF
:100BD000215C3F4F4F4F5F4FE0E0F0E02030A0E05E
:100BE0003A07A0E04A07A0E45A0710F0E1E0F0E07D
:100BF00079018A0127C06038710564F5FB01E1586D
:100C0000FF4FD801C7018F779070A070B07080340B
:100C10009105A105B10539F4E7FE0DC080E490E02F
:100C2000A0E0B0E004C08FE390E0A0E0B0E0E80E08
:100C3000F91E0A1F1B1F17FF05C016950795F7948D
:100C4000E794319687E016950795F794E7948A958F
:100C5000D1F705C0EE24FF248701EFEFF0E06E2FFF
:100C6000679566276795902F9F77D794DD24D79453
:100C70008E2F8695492F462B582F5D29B701CA0123
:100C80001F910F91FF90EF90DF900895FC01DB0121
:100C9000408151812281622F6F7770E0221F2227CD
:100CA000221F9381892F880F822B282F30E0991FD4
:100CB0009927991F11969C93119721153105A9F534
:100CC000411551056105710511F482E037C082E8D4
:100CD0009FEF13969C938E9312979A01AB0167E056
:100CE000220F331F441F551F6A95D1F783E08C9361
:100CF0000DC0220F331F441F551F12968D919C91DA
:100D00001397019713969C938E931297203080E04F
:100D1000380780E0480780E4580758F314962D936D
:100D20003D934D935C93179708952F3F310579F4C8
:100D3000411551056105710519F484E08C930895FE
:100D400064FF03C081E08C9312C01C9210C02F5727
:100D5000304013963C932E93129783E08C9387E058
:100D6000440F551F661F771F8A95D1F7706414963C
:100D70004D935D936D937C93179708951F93DC01BA
:100D8000FB019C91923008F447C08081823008F4C6
:100D900043C0943051F411961C91843099F58181AF
:100DA000682F70E0611B71093FC0843021F09230E0
:100DB00031F48230B9F18181882389F12DC01196F7
:100DC0001C9111978230F1F081811817D9F4129695
:100DD0002D913C911397828193818217930794F010
:100DE00028173907BCF014968D919D910D90BC91F8
:100DF000A02D2481358146815781281739074A075C
:100E00005B0718F4112341F00AC082179307A40767
:100E1000B50740F4112319F061E070E005C06FEFF1
:100E20007FEF02C060E070E0CB011F910895DF9377
:100E3000CF93CDB7DEB7A3E5B0E0E3E5F0E0808186
:100E4000877B8C93A3E5B0E0E3E5F0E080818864E4
:100E50008C93A3E5B0E0E3E5F0E080818F7C8C9398
:100E6000A3E5B0E0E3E5F0E0808180628C93A9E542
:100E7000B0E0E9E5F0E080818D7F8C93A3E5B0E000
:100E8000E3E5F0E08081887F8C93A3E5B0E0E3E5C3
:100E9000F0E0808182608C93CF91DF910895DF93A1
:100EA000CF930F92CDB7DEB78983A3E5B0E0E3E53A
:100EB000F0E08081887F8C93A3E5B0E0E3E5F0E08B
:100EC00090818981892B8C930F90CF91DF91089528
:100ED000DF93CF93CDB7DEB7A3E5B0E0E3E5F0E075
:100EE0008081887F8C93E2E5F0E01082CF91DF91E2
:100EF0000895DF93CF93CDB7DEB7A3E5B0E0E3E588
:100F0000F0E08081887F8C93CF91DF910895DF930B
:100F1000CF930F92CDB7DEB78983ECE5F0E08981FE
:100F200080830F90CF91DF910895DF93CF930F923D
:100F3000CDB7DEB78983ECE5F0E0898180830F903F
:100F4000CF91DF910895DF93CF93CDB7DEB7A9E5B9
:100F5000B0E0E9E5F0E0808181608C93CF91DF9192
:100F60000895DF93CF93CDB7DEB7A9E5B0E0E9E50B
:100F7000F0E080818E7F8C93CF91DF910895DF9395
:100F8000CF93CDB7DEB7A9E5B0E0E9E5F0E0808129
:100F900082608C93CF91DF910895DF93CF93CDB78B
:100FA000DEB7A9E5B0E0E9E5F0E080818D7F8C93C4
:100FB000CF91DF910895DF93CF93CDB7DEB7E2E510
:100FC000F0E01082CF91DF910895DF93CF93CDB7FA
:100FD000DEB7AFE4B0E0EFE4F0E080818C7F8C938B
:100FE000AEE4B0E0EEE4F0E08081877E8C93AFE485
:100FF000B0E0EFE4F0E080818C93AEE4B0E0EEE4AA
:10100000F0E080818C93AFE4B0E0EFE4F0E0808129
:101010008F738C93AFE4B0E0EFE4F0E08081806800
:101020008C93AFE4B0E0EFE4F0E080818F7C8C93B0
:10103000AFE4B0E0EFE4F0E0808180628C93AEE456
:10104000B0E0EEE4F0E0808180648C93A9E5B0E04C
:10105000E9E5F0E080818B7F8C93A9E5B0E0E9E5DC
:10106000F0E080818F7E8C93A9E5B0E0E9E5F0E0C7
:101070008081877F8C93A9E5B0E0E9E5F0E080818D
:1010800080628C93AEE4B0E0EEE4F0E08081887F93
:101090008C93AEE4B0E0EEE4F0E0808182608C936B
:1010A000CF91DF910895DF93CF93CDB7DEB7AFE453
:1010B000B0E0EFE4F0E080818F738C93AFE4B0E0B8
:1010C000EFE4F0E0808180688C93AFE4B0E0EFE47F
:1010D000F0E080818F7C8C93AFE4B0E0EFE4F0E04F
:1010E000808180628C93CF91DF910895DF93CF93BD
:1010F0000F92CDB7DEB789838981882341F4AEE4AE
:10110000B0E0EEE4F0E080818F7B8C930AC08981AF
:10111000813039F4AEE4B0E0EEE4F0E08081806448
:101120008C930F90CF91DF910895DF93CF93CDB73C
:10113000DEB7AEE4B0E0EEE4F0E08081887F8C932F
:10114000AEE4B0E0EEE4F0E0808182608C93ECE409
:10115000F0E011821082CF91DF910895DF93CF9359
:10116000CDB7DEB7E6E4F0E080819181CF91DF91E9
:101170000895DF93CF9300D0CDB7DEB79A838983EC
:10118000E6E4F0E089819A81918380830F900F904B
:10119000CF91DF910895DF93CF930F92CDB7DEB754
:1011A0008983AEE4B0E0EEE4F0E08081887F8C9348
:1011B000AEE4B0E0EEE4F0E090818981892B8C937D
:1011C0000F90CF91DF910895DF93CF93CDB7DEB726
:1011D000ECE4F0E011821082CF91DF910895DF936B
:1011E000CF93CDB7DEB7AEE4B0E0EEE4F0E08081BF
:1011F000887F8C93CF91DF910895DF93CF9300D0B8
:10120000CDB7DEB79A838983EAE4F0E089819A81D9
:10121000918380830F900F90CF91DF910895DF939A
:10122000CF9300D0CDB7DEB79A838983E8E4F0E0AE
:1012300089819A81918380830F900F90CF91DF9164
:101240000895DF93CF9300D0CDB7DEB79A8389831B
:10125000E6E4F0E089819A81918380830F900F907A
:10126000CF91DF910895DF93CF93CDB7DEB7A9E596
:10127000B0E0E9E5F0E0808184608C93CF91DF916C
:101280000895DF93CF93CDB7DEB7A9E5B0E0E9E5E8
:10129000F0E080818B7F8C93CF91DF910895DF9375
:1012A000CF93CDB7DEB7A9E5B0E0E9E5F0E0808106
:1012B00080618C93CF91DF910895DF93CF93CDB769
:1012C000DEB7A9E5B0E0E9E5F0E080818F7E8C93A0
:1012D000CF91DF910895DF93CF93CDB7DEB7A9E526
:1012E000B0E0E9E5F0E0808188608C93CF91DF91F8
:1012F0000895DF93CF93CDB7DEB7A9E5B0E0E9E578
:10130000F0E08081877F8C93CF91DF910895DF9308
:10131000CF93CDB7DEB7A9E5B0E0E9E5F0E0808195
:1013200080628C93CF91DF910895DF93CF93CDB7F7
:10133000DEB7A9E5B0E0E9E5F0E080818F7D8C9330
:10134000CF91DF910895DF93CF9300D0CDB7DEB773
:101350009A838983ECE4F0E089819A819183808388
:101360000F900F90CF91DF910895DF93CF93CDB77A
:10137000DEB7ECE4F0E080819181CF91DF910895B8
:10138000DF93CF93CDB7DEB729970FB6F894DEBFC2
:101390000FBECDBF9D838C837F836E838C819D81A7
:1013A0009B838A838E819F81009729F441E050E0DE
:1013B0005987488720C081E0898311C02C813D81F5
:1013C0008A819B81AC01249FC001259F900D349F91
:1013D000900D11249D838C8389818F5F89838981FE
:1013E000282F30E08E819F812817390738F38C81B0
:1013F0009D81998788878885998529960FB6F89465
:10140000DEBF0FBECDBFCF91DF910895AF92BF92E7
:10141000CF92DF92EF92FF920F931F93DF93CF93C0
:10142000CDB7DEB767970FB6F894DEBF0FBECDBF5E
:101430008D877F876E87598B488B0A8B1B8B2C8BF4
:101440003D8B8D85282F30E082E090E0B9010E942D
:10145000C0099E838D838D819E81CC01A0E0B0E088
:10146000BC01CD010E94A9045B016C0188899989A6
:10147000CC01A0E0B0E0BC01CD010E94A9047B0139
:101480008C018E859F85CC01A0E0B0E0BC01CD0130
:101490000E94A9049B01AC01C801B7010E94190375
:1014A000DC01CB019C01AD01C601B5010E941F0208
:1014B000DC01CB0189839A83AB83BC836A897B89F6
:1014C0008C899D8929813A814B815C810E94C50369
:1014D00018160CF05CC06A897B898C899D892981EA
:1014E0003A814B815C810E941903DC01CB01898721
:1014F0009A87AB87BC878D819E81CC01A0E0B0E04C
:10150000BC01CD010E94A9047B018C0169857A850B
:101510008B859C850E944900DC01CB01CC01A0E0B9
:10152000B0E0BC01CD010E94A9049B01AC0169851A
:101530007A858B859C850E94C101DC01CB019C01D1
:10154000AD0160E070E080E89FE30E94C101DC0132
:10155000CB019C01AD01C801B7010E941F02DC0153
:10156000CB01BC01CD010E944900DC01CB01988771
:101570008F8369857A858B859C850E944900DC0173
:10158000CB019C012F5F3F4F3F8B2E8B64C06A893C
:101590007B898C899D8929813A814B815C810E945C
:1015A000250488230CF053C06A897B898C899D8926
:1015B00029813A814B815C810E941903DC01CB01B6
:1015C00089879A87AB87BC878D819E81CC01A0E0FB
:1015D000B0E0BC01CD010E94A9047B018C016985AA
:1015E0007A858B859C850E944900DC01CB01CC016A
:1015F000A0E0B0E0BC01CD010E94A9049B01AC01B8
:1016000069857A858B859C850E94C101DC01CB01AF
:101610009C01AD0160E070E080E89FE30E94C101A1
:10162000DC01CB019C01AD01C801B7010E941F0282
:10163000DC01CB01BC01CD010E944900DC01CB01E2
:1016400098878F8381E090E09F8B8E8B04C021E090
:1016500030E03F8B2E8B8E899F8967960FB6F8946A
:10166000DEBF0FBECDBFCF91DF911F910F91FF90D5
:10167000EF90DF90CF90BF90AF900895DF93CF931E
:10168000CDB7DEB7A5E4B0E0E5E4F0E08081877B8C
:101690008C93A5E4B0E0E5E4F0E0808188648C936D
:1016A000A5E4B0E0E5E4F0E080818F7C8C93A5E4D4
:1016B000B0E0E5E4F0E0808180628C93A9E5B0E0E1
:1016C000E9E5F0E080818F778C93A5E4B0E0E5E474
:1016D000F0E08081887F8C93A5E4B0E0E5E4F0E061
:1016E000808182608C93CF91DF910895DF93CF93B7
:1016F0000F92CDB7DEB78983A5E4B0E0E5E4F0E072
:101700008081887F8C93A5E4B0E0E5E4F0E09081EF
:101710008981892B8C930F90CF91DF910895DF936E
:10172000CF93CDB7DEB7A5E4B0E0E5E4F0E080818B
:10173000887F8C93E4E4F0E01082CF91DF910895EC
:10174000DF93CF93CDB7DEB7A5E4B0E0E5E4F0E0FA
:101750008081887F8C93CF91DF910895DF93CF9321
:101760000F92CDB7DEB78983E3E4F0E0898180830F
:101770000F90CF91DF910895DF93CF930F92CDB764
:10178000DEB78983E3E4F0E0898180830F90CF9115
:10179000DF910895DF93CF93CDB7DEB7A9E5B0E031
:1017A000E9E5F0E0808180648C93CF91DF9108952A
:1017B000DF93CF93CDB7DEB7A9E5B0E0E9E5F0E080
:1017C00080818F7B8C93CF91DF910895DF93CF93AE
:1017D000CDB7DEB7A9E5B0E0E9E5F0E0808180684B
:1017E0008C93CF91DF910895DF93CF93CDB7DEB780
:1017F000A9E5B0E0E9E5F0E080818F778C93CF91A7
:10180000DF910895DF93CF93CDB7DEB7E4E4F0E046
:101810001082CF91DF910895DF93CF9300D000D055
:10182000CDB7DEB79B838A836C8319828C81882F26
:1018300090E0880F991FFC01EE55FE4F8081918149
:10184000009769F08C81882F90E0880F991FFC0128
:10185000EE55FE4F8A819B819183808302C082E096
:10186000898389810F900F900F900F90CF91DF9116
:1018700008951F920F920FB60F9211242F933F934A
:101880004F935F936F937F938F939F93AF93BF9388
:10189000EF93FF93DF93CF93CDB7DEB7E091A20133
:1018A000F091A3010995CF91DF91FF91EF91BF9145
:1018B000AF919F918F917F916F915F914F913F91E8
:1018C0002F910F900FBE0F901F9018951F920F929F
:1018D0000FB60F9211242F933F934F935F936F9303
:1018E0007F938F939F93AF93BF93EF93FF93DF9378
:1018F000CF93CDB7DEB7E091A601F091A70109958E
:10190000CF91DF91FF91EF91BF91AF919F918F9117
:101910007F916F915F914F913F912F910F900FBEEB
:101920000F901F9018951F920F920FB60F921124CF
:101930002F933F934F935F936F937F938F939F93D7
:10194000AF93BF93EF93FF93DF93CF93CDB7DEB702
:10195000E091AA01F091AB010995CF91DF91FF9140
:10196000EF91BF91AF919F918F917F916F915F9117
:101970004F913F912F910F900FBE0F901F90189590
:101980001F920F920FB60F9211242F933F934F93F4
:101990005F936F937F938F939F93AF93BF93EF93D7
:1019A000FF93DF93CF93CDB7DEB7E091A801F0911D
:1019B000A9010995CF91DF91FF91EF91BF91AF916F
:1019C0009F918F917F916F915F914F913F912F9157
:1019D0000F900FBE0F901F9018951F920F920FB689
:1019E0000F9211242F933F934F935F936F937F93A5
:1019F0008F939F93AF93BF93EF93FF93DF93CF9317
:101A0000CDB7DEB7E091AE01F091AF010995CF916E
:101A1000DF91FF91EF91BF91AF919F918F917F9156
:101A20006F915F914F913F912F910F900FBE0F904B
:101A30001F9018951F920F920FB60F9211242F939B
:101A40003F934F935F936F937F938F939F93AF9346
:101A5000BF93EF93FF93DF93CF93CDB7DEB7E091C2
:101A6000B001F091B1010995CF91DF91FF91EF9114
:101A7000BF91AF919F918F917F916F915F914F91A6
:101A80003F912F910F900FBE0F901F901895DF93ED
:101A9000CF93CDB7DEB7EAE3F0E080EF8083E7E3F2
:101AA000F0E08FEF8083E4E3F0E08FEF8083E1E309
:101AB000F0E08BEB8083EBE3F0E081E08083E8E310
:101AC000F0E01082E5E3F0E01082E2E3F0E0108263
:101AD000CF91DF910895DF93CF930F92CDB7DEB70B
:101AE00089838981813041F4AFE5B0E0EFE5F0E032
:101AF000808180688C930AC08981882339F4AFE59E
:101B0000B0E0EFE5F0E080818F778C930F90CF917C
:101B1000DF910895DF93CF93CDB7DEB727970FB648
:101B2000F894DEBF0FBECDBF8A836B8319828B8191
:101B30008130A9F5AFE5B0E0EFE5F0E080818068A5
:101B40008C938A81282F30E03F832E838E819F8162
:101B50008130910589F02E813F8122303105A1F03D
:101B60008E819F810097C1F4ABE5B0E0EBE5F0E03A
:101B7000808180648C9346C0ABE5B0E0EBE5F0E09B
:101B8000808180688C933EC0ABE5B0E0EBE5F0E08F
:101B9000808180628C9336C081E0898333C08B81E1
:101BA000882371F58A81282F30E03D832C838C8136
:101BB0009D818130910589F02C813D812230310554
:101BC000A1F08C819D810097C1F4ABE5B0E0EBE51D
:101BD000F0E080818F7B8C9315C0ABE5B0E0EBE546
:101BE000F0E080818F778C930DC0ABE5B0E0EBE542
:101BF000F0E080818F7D8C9305C081E0898302C0F5
:101C000081E08983898127960FB6F894DEBF0FBEE5
:101C1000CDBFCF91DF910895DF93CF93CDB7DEB7DE
:101C2000AFE5B0E0EFE5F0E0808180688C93ABE554
:101C3000B0E0EBE5F0E0808180648C93ABE5B0E050
:101C4000EBE5F0E080818F778C93ABE5B0E0EBE5DE
:101C5000F0E080818F7D8C93CF91DF910895DF93A9
:101C6000CF93CDB7DEB72E970FB6F894DEBF0FBE79
:101C7000CDBF8B836C831A82E5E5F0E08081898398
:101C80008C81282F30E03E872D878D859E85813081
:101C90009105C9F12D853E85223031052CF48D85C5
:101CA0009E85009771F0BFC02D853E85223031059D
:101CB00009F451C08D859E858330910509F47FC05C
:101CC000B2C08B81282F30E03C872B878B859C8589
:101CD000009731F02B853C852130310549F010C04B
:101CE00089818C7F8983E5E5F0E0898180839DC0CF
:101CF0008981837F8983E5E5F0E08981808395C0D0
:101D000081E08A8392C08B81282F30E03A8729872F
:101D100089859A85009731F029853A8521303105EA
:101D200061F016C089818C7F898389818160898374
:101D3000E5E5F0E08981808378C08981837F8983AC
:101D4000898184608983E5E5F0E0898180836DC0C5
:101D500081E08A836AC08B81282F30E038872F8307
:101D60008F81988581309105A1F02F8138852230AF
:101D70003105D1F08F8198850097F1F489818C7FAE
:101D80008983898182608983E5E5F0E089818083A8
:101D90004CC08981837F8983898188608983E5E557
:101DA000F0E08981808341C0A4E5B0E0E4E5F0E0A3
:101DB00080818F7B8C9339C081E08A8336C08B8190
:101DC000282F30E03E832D838D819E8181309105C7
:101DD000A1F02D813E8122303105D1F08D819E818F
:101DE0000097F1F489818C7F89838981836089835D
:101DF000E5E5F0E08981808318C08981837F89834C
:101E000089818C608983E5E5F0E0898180830DC05C
:101E1000A4E5B0E0E4E5F0E0808180648C9305C047
:101E200081E08A8302C081E08A838A812E960FB680
:101E3000F894DEBF0FBECDBFCF91DF910895DF9341
:101E4000CF93CDB7DEB7A5E5B0E0E5E5F0E0808162
:101E50008C7F8C93A5E5B0E0E5E5F0E080818260C1
:101E60008C93A5E5B0E0E5E5F0E08081837F8C937D
:101E7000A5E5B0E0E5E5F0E080818C608C93A4E519
:101E8000B0E0E4E5F0E080818F7B8C93CF91DF912F
:101E90000895DF93CF9300D000D0CDB7DEB79B83FA
:101EA0008A836C8319828A819B81009769F08C8177
:101EB000882F90E0880F991FFC01EE54FE4F8A8115
:101EC0009B819183808302C082E0898389810F9006
:101ED0000F900F900F90CF91DF9108951F920F9266
:101EE0000FB60F9211242F933F934F935F936F93ED
:101EF0007F938F939F93AF93BF93EF93FF93DF9362
:101F0000CF93CDB7DEB7E091B201F091B30109955F
:101F1000CF91DF91FF91EF91BF91AF919F918F9101
:101F20007F916F915F914F913F912F910F900FBED5
:101F30000F901F9018951F920F920FB60F921124B9
:101F40002F933F934F935F936F937F938F939F93C1
:101F5000AF93BF93EF93FF93DF93CF93CDB7DEB7EC
:101F6000E091B401F091B5010995CF91DF91FF9116
:101F7000EF91BF91AF919F918F917F916F915F9101
:101F80004F913F912F910F900FBE0F901F9018957A
:101F90001F920F920FB60F9211242F933F934F93DE
:101FA0005F936F937F938F939F93AF93BF93EF93C1
:101FB000FF93DF93CF93CDB7DEB7E091B601F091F9
:101FC000B7010995CF91DF91FF91EF91BF91AF914B
:101FD0009F918F917F916F915F914F913F912F9141
:101FE0000F900FBE0F901F901895DF93CF9300D0E6
:101FF00000D00F92CDB7DEB78A836B8319828A81B6
:10200000843018F081E0898332C08A81282F30E043
:102010003D832C838C819D8181309105D1F02C8171
:102020003D81223031052CF48C819D81009761F037
:102030001EC02C813D812230310581F08C819D8133
:102040008330910581F013C0EAE3F0E08B81808357
:102050000EC0E7E3F0E08B81808309C0E4E3F0E0A9
:102060008B81808304C0E1E3F0E08B8180838981F0
:102070000F900F900F900F900F90CF91DF910895D8
:10208000DF93CF9300D000D00F92CDB7DEB78A8315
:102090006B8319828A81843018F081E0898332C091
:1020A0008A81282F30E03D832C838C819D81813073
:1020B0009105D1F02C813D81223031052CF48C81A9
:1020C0009D81009761F01EC02C813D812230310539
:1020D00081F08C819D818330910581F013C0EBE309
:1020E000F0E08B8180830EC0E8E3F0E08B81808399
:1020F00009C0E5E3F0E08B81808304C0E2E3F0E017
:102100008B81808389810F900F900F900F900F909B
:10211000CF91DF910895DF93CF9300D000D000D00E
:10212000CDB7DEB78A837C836B8319828A81843042
:1021300018F081E089833AC08A81282F30E03E83FD
:102140002D838D819E8181309105E1F02D813E812D
:10215000223031052CF48D819E81009761F026C0DC
:102160002D813E8122303105A1F08D819E81833009
:102170009105B1F01BC0E9E3F0E08081EB81FC81C7
:10218000808314C0E6E3F0E08081EB81FC818083F2
:102190000DC0E3E3F0E08081EB81FC81808306C029
:1021A000E0E3F0E08081EB81FC81808389812696E9
:1021B0000FB6F894DEBF0FBECDBFCF91DF9108956B
:1021C000DF93CF93CDB7DEB728970FB6F894DEBF75
:1021D0000FBECDBF8A836B834C8319828C81813083
:1021E00009F06FC08A81282F30E038872F838F81D4
:1021F00098858130910549F12F813885223031054C
:102200002CF48F819885009761F0D5C02F81388597
:102210002230310571F18F81988583309105E9F184
:10222000CAC0AAE3B0E0EAE3F0E08081482F8B81E6
:10223000282F30E081E090E0022E02C0880F991F25
:102240000A94E2F7842B8C93B6C0A7E3B0E0E7E3EF
:10225000F0E08081482F8B81282F30E081E090E0F2
:10226000022E02C0880F991F0A94E2F7842B8C93E8
:10227000A2C0A4E3B0E0E4E3F0E08081482F8B81CA
:10228000282F30E081E090E0022E02C0880F991FD5
:102290000A94E2F7842B8C938EC0A1E3B0E0E1E3D3
:1022A000F0E08081482F8B81282F30E081E090E0A2
:1022B000022E02C0880F991F0A94E2F7842B8C9398
:1022C0007AC08C81882309F074C08A81282F30E07D
:1022D0003E832D838D819E818130910559F12D8121
:1022E0003E81223031052CF48D819E81009769F06A
:1022F00062C02D813E812230310589F18D819E8120
:102300008330910509F440C056C0AAE3B0E0EAE387
:10231000F0E08081482F8B81282F30E081E090E031
:10232000022E02C0880F991F0A94E2F78095842339
:102330008C9341C0A7E3B0E0E7E3F0E08081482F51
:102340008B81282F30E081E090E0022E02C0880FC0
:10235000991F0A94E2F7809584238C932CC0A4E300
:10236000B0E0E4E3F0E08081482F8B81282F30E05B
:1023700081E090E0022E02C0880F991F0A94E2F7D4
:10238000809584238C9317C0A1E3B0E0E1E3F0E0F3
:102390008081482F8B81282F30E081E090E0022E51
:1023A00002C0880F991F0A94E2F7809584238C93CA
:1023B00002C081E08983898128960FB6F894DEBF38
:1023C0000FBECDBFCF91DF910895DF93CF93CDB7EF
:1023D000DEB728970FB6F894DEBF0FBECDBF8A8355
:1023E0006B834C8319828C81813009F06FC08A81A4
:1023F000282F30E038872F838F8198858130910591
:1024000049F12F813885223031052CF48F81988550
:10241000009761F0D5C02F8138852230310571F1E8
:102420008F81988583309105E9F1CAC0ABE3B0E0B4
:10243000EBE3F0E08081482F8B81282F30E081E0B2
:1024400090E0022E02C0880F991F0A94E2F7842BB5
:102450008C93B6C0A8E3B0E0E8E3F0E08081482FB9
:102460008B81282F30E081E090E0022E02C0880F9F
:10247000991F0A94E2F7842B8C93A2C0A5E3B0E0E5
:10248000E5E3F0E08081482F8B81282F30E081E068
:1024900090E0022E02C0880F991F0A94E2F7842B65
:1024A0008C938EC0A2E3B0E0E2E3F0E08081482F9D
:1024B0008B81282F30E081E090E0022E02C0880F4F
:1024C000991F0A94E2F7842B8C937AC08C8188231D
:1024D00009F074C08A81282F30E03E832D838D81DE
:1024E0009E818130910559F12D813E812230310547
:1024F0002CF48D819E81009769F062C02D813E8110
:102500002230310589F18D819E818330910509F456
:1025100040C056C0ABE3B0E0EBE3F0E08081482F71
:102520008B81282F30E081E090E0022E02C0880FDE
:10253000991F0A94E2F7809584238C9341C0A8E305
:10254000B0E0E8E3F0E08081482F8B81282F30E075
:1025500081E090E0022E02C0880F991F0A94E2F7F2
:10256000809584238C932CC0A5E3B0E0E5E3F0E0F4
:102570008081482F8B81282F30E081E090E0022E6F
:1025800002C0880F991F0A94E2F7809584238C93E8
:1025900017C0A2E3B0E0E2E3F0E08081482F8B8136
:1025A000282F30E081E090E0022E02C0880F991FB2
:1025B0000A94E2F7809584238C9302C081E089839A
:1025C000898128960FB6F894DEBF0FBECDBFCF919C
:1025D000DF910895DF93CF93CDB7DEB727970FB67E
:1025E000F894DEBF0FBECDBF8A836B835D834C83BF
:1025F00019828A81282F30E03F832E834E815F81AC
:102600004130510559F18E819F818230910534F41A
:102610002E813F812115310569F05BC04E815F81BC
:102620004230510579F18E819F818330910509F403
:102630003DC04FC0E9E3F0E08081282F30E08B817E
:10264000882F90E0A90102C0559547958A95E2F739
:10265000CA018170EC81FD8180833BC0E6E3F0E03C
:102660008081282F30E08B81882F90E0A90102C063
:10267000559547958A95E2F7CA018170EC81FD81F5
:10268000808327C0E3E3F0E08081282F30E08B8156
:10269000882F90E0A90102C0559547958A95E2F7E9
:1026A000CA018170EC81FD81808313C0E0E3F0E01A
:1026B0008081282F30E08B81882F90E0A90102C013
:1026C000559547958A95E2F7CA018170EC81FD81A5
:1026D0008083898127960FB6F894DEBF0FBECDBFE9
:1026E000CF91DF910895DF93CF93CDB7DEB7E7E2C7
:1026F000F0E080E48083E6E2F0E086E88083CF913A
:10270000DF910895DF93CF9300D0CDB7DEB78A83F2
:1027100019828A81813041F4A7E2B0E0E7E2F0E07B
:10272000808180628C930DC08A81882341F4A7E266
:10273000B0E0E7E2F0E080818F7D8C9302C081E021
:10274000898389810F900F90CF91DF910895DF9356
:10275000CF9300D0CDB7DEB78A83E7E2F0E0808187
:10276000898389818F73898399818A81892B898360
:10277000E7E2F0E0898180830F900F90CF91DF91A5
:102780000895DF93CF9300D0CDB7DEB78A83E6E21A
:10279000F0E0808189838981887F898399818A811A
:1027A000892B8983E6E2F0E0898180830F900F9086
:1027B000CF91DF910895DF93CF9300D0CDB7DEB7EF
:1027C0008A8319828A81813041F4A6E2B0E0E6E290
:1027D000F0E0808180688C930DC08A81882341F469
:1027E000A6E2B0E0E6E2F0E080818F778C9302C051
:1027F00081E0898389810F900F90CF91DF910895B7
:10280000DF93CF9300D000D0CDB7DEB78B836C833E
:102810001A828B818130B9F4A6E2B0E0E6E2F0E002
:10282000808180628C93E6E2F0E0808189838981F7
:102830008F71898399818C81892B8983E6E2F0E00D
:10284000898180830DC08B81882341F4A6E2B0E0AA
:10285000E6E2F0E080818F7D8C9302C081E08A8384
:102860008A810F900F900F900F90CF91DF91089574
:10287000DF93CF93CDB7DEB727970FB6F894DEBFBF
:102880000FBECDBF8D837F836E831C8280918001BC
:10289000813009F074C0109280011B821A82E7E235
:1028A000F0E0808189838981807E898399818D810F
:1028B000892B8983E7E2F0E089818083A6E2B0E09A
:1028C000E6E2F0E0808180648C93E6E2F0E08081D3
:1028D000869586958695882F90E0817090700097F8
:1028E00009F04FC0E6E2F0E0808182958F70882F7A
:1028F00090E081709070009731F48A819B810196FD
:102900009B838A83EFCFA6E2B0E0E6E2F0E080812D
:1029100080618C938E819F81009771F1E7E2F0E0F6
:102920008081829586958770882F90E08170907065
:10293000882351F0E5E2F0E08081882F90E0EE817D
:10294000FF819183808314C0E7E2F0E0808182956B
:1029500086958770882F90E081709070009741F481
:10296000E4E2F0E080819181EE81FF8191838083B8
:1029700081E08093800105C082E08C8302C083E007
:102980008C838C8127960FB6F894DEBF0FBECDBF27
:10299000CF91DF910895DF93CF93CDB7DEB728971E
:1029A0000FB6F894DEBF0FBECDBF8B837D836C83E3
:1029B0005F834E831A82809180018130C9F5E7E2FE
:1029C000F0E0808189838C819D81009721F48E8144
:1029D0009F81009741F1109280018981807E8983D7
:1029E00099818B81892B8983E7E2F0E0898180835B
:1029F0008E819F819093B9018093B8018C819D81D4
:102A00009093BB018093BA01A6E2B0E0E6E2F0E069
:102A1000808180648C93A6E2B0E0E6E2F0E0808101
:102A200088608C9302C082E08A838A81888702C092
:102A300083E08887888528960FB6F894DEBF0FBE9E
:102A4000CDBFCF91DF9108951F920F920FB60F92D5
:102A500011242F933F934F935F936F937F938F93A3
:102A60009F93AF93BF93EF93FF93DF93CF93CDB734
:102A7000DEB7E7E2F0E08081829586958770882F47
:102A800090E081709070882369F0A091BA01B091B4
:102A9000BB01E5E2F0E08081882F90E011969C93E5
:102AA0008E9316C0E7E2F0E080818295869587706C
:102AB000882F90E081709070009751F4E091BA01F6
:102AC000F091BB01A4E2B0E08D919C919183808351
:102AD00081E080938001E091B801F091B9010995FE
:102AE000A6E2B0E0E6E2F0E08081877F8C93CF91B0
:102AF000DF91FF91EF91BF91AF919F918F917F9166
:102B00006F915F914F913F912F910F900FBE0F905A
:102B10001F901895DF93CF93CDB7DEB70E94E507DE
:102B2000CF91DF910895DF93CF93CDB7DEB76F9745
:102B30000FB6F894DEBF0FBECDBF9E8F8D8F6F8F07
:102B40008F8D813009F079C0E8E4F0E08D8D9E8DA5
:102B50009183808380E090E0A0E2B2E4898F9A8F35
:102B6000AB8FBC8F698D7A8D8B8D9C8D20E030E092
:102B70004AEF54E40E941F02DC01CB018D8B9E8B37
:102B8000AF8BB88F6D897E898F89988D20E030E07A
:102B900040E85FE30E94250488232CF481E090E064
:102BA0009C8B8B8B3FC06D897E898F89988D20E0AF
:102BB0003FEF4FE757E40E94C50318164CF5698DA7
:102BC0007A8D8B8D9C8D20E030E040E251E40E94B4
:102BD0001F02DC01CB01BC01CD010E944900DC01D8
:102BE000CB019C8B8B8B0FC088EC90E09A8B898BF0
:102BF00089899A890197F1F79A8B898B8B899C89AE
:102C000001979C8B8B8B8B899C89009769F791C06E
:102C10006D897E898F89988D0E944900DC01CB01E6
:102C20009C8B8B8B8B899C89988B8F878F859889C0
:102C30000197F1F7988B8F877CC08F8D882309F0DF
:102C400078C0EAE4F0E08D8D9E8D9183808380E0F2
:102C500090E0A0E2B2E48B879C87AD87BE876B854E
:102C60007C858D859E8520E030E04AEF54E40E940B
:102C70001F02DC01CB018F839887A987BA876F81F8
:102C8000788589859A8520E030E040E85FE30E94FE
:102C9000250488232CF481E090E09E838D833FC03F
:102CA0006F81788589859A8520E03FEF4FE757E46B
:102CB0000E94C50318164CF56B857C858D859E8515
:102CC00020E030E040E251E40E941F02DC01CB0131
:102CD000BC01CD010E944900DC01CB019E838D83A4
:102CE0000FC088EC90E09C838B838B819C81019743
:102CF000F1F79C838B838D819E8101979E838D83C9
:102D00008D819E81009769F714C06F8178858985D0
:102D10009A850E944900DC01CB019E838D838D81C1
:102D20009E819A83898389819A810197F1F79A8399
:102D300089836F960FB6F894DEBF0FBECDBFCF91DB
:102D4000DF9108950F931F93DF93CF93CDB7DEB735
:102D50002E970FB6F894DEBF0FBECDBF9E838D8336
:102D600078876F835A8749873C872B871E870D8713
:102D700029853A858B859C85A901481B590B2D8196
:102D80003E818F819885281B390BCA01B9010E94A9
:102D9000871ECB019C838B832D853E858D819E81F3
:102DA000281B390B8B819C81A901489F9001499F69
:102DB000300D589F300D112489859A85820F931FFD
:102DC0009A83898389819A812E960FB6F894DEBF03
:102DD0000FBECDBFCF91DF911F910F910895DF936B
:102DE000CF93CDB7DEB70E947313CF91DF910895D3
:102DF000DF93CF93CDB7DEB72D970FB6F894DEBF34
:102E00000FBECDBF98878F8369878F819885CC014E
:102E1000A0E0B0E0BC01CD010E94A904DC01CB011F
:102E200020919D0130919E0140919F015091A00100
:102E3000BC01CD010E941F02DC01CB01BC01CD0110
:102E400020E030E040E251E40E941903DC01CB01B4
:102E50008B839C83AD83BE831A8219828985282F38
:102E600030E03D872C878C859D8581309105A9F0C8
:102E70002C853D852230310529F18C859D85009773
:102E800009F03FC06B817C818D819E810E94490049
:102E9000DC01CB019B878A873CC06B817C818D8163
:102EA0009E8123E333E948E853E40E94F201DC0108
:102EB000CB01BC01CD010E944900DC01CB019B8705
:102EC0008A8727C06B817C818D819E8126E636E6CC
:102ED00046EE5FE30E941F02DC01CB01BC01CD0185
:102EE00020E030E040E052E40E94F201DC01CB013E
:102EF000BC01CD010E944900DC01CB019B878A8780
:102F000008C081E090E09A83898329813A813B87D8
:102F10002A878A859B852D960FB6F894DEBF0FBE53
:102F2000CDBFCF91DF910895DF93CF93CDB7DEB7BB
:102F300028970FB6F894DEBF0FBECDBF8A836B8390
:102F40004C8319828B81883018F48A81843018F080
:102F500081E0898335C18C81813009F0BAC08A81D2
:102F6000282F30E038872F838F8198858130910515
:102F700009F43DC02F813885223031052CF48F8132
:102F80009885009771F01CC12F813885223031055A
:102F900009F453C08F8198858330910509F473C07B
:102FA0000FC1AAE3B0E0EAE3F0E08081482F8B8113
:102FB000282F30E081E090E002C0880F991F2A9509
:102FC000E2F7842B8C93ABE3B0E0EBE3F0E080819D
:102FD000482F8B81282F30E081E090E0022E02C044
:102FE000880F991F0A94E2F7842B8C93E9C0A7E31A
:102FF000B0E0E7E3F0E08081482F8B81282F30E0BC
:1030000081E090E002C0880F991F2A95E2F7842B97
:103010008C93A8E3B0E0E8E3F0E08081482F8B8157
:10302000282F30E081E090E0022E02C0880F991F27
:103030000A94E2F7842B8C93C3C0A4E3B0E0E4E3EA
:10304000F0E08081482F8B81282F30E081E090E0F4
:1030500002C0880F991F2A95E2F7842B8C93A5E371
:10306000B0E0E5E3F0E08081482F8B81282F30E04D
:1030700081E090E0022E02C0880F991F0A94E2F7C7
:10308000842B8C939DC0A1E3B0E0E1E3F0E080816C
:10309000482F8B81282F30E081E090E002C0880F1C
:1030A000991F2A95E2F7842B8C93A2E3B0E0E2E328
:1030B000F0E08081482F8B81282F30E081E090E084
:1030C000022E02C0880F991F0A94E2F7842B8C937A
:1030D00077C08C81882309F073C08A81282F30E063
:1030E0003E832D838D819E818130910559F12D8103
:1030F0003E81223031052CF48D819E81009769F04C
:103100005FC02D813E812230310589F18D819E8104
:103110008330910509F440C053C0ABE3B0E0EBE36A
:10312000F0E08081482F8B81282F30E081E090E013
:10313000022E02C0880F991F0A94E2F7809584231B
:103140008C933EC0A8E3B0E0E8E3F0E08081482F34
:103150008B81282F30E081E090E0022E02C0880FA2
:10316000991F0A94E2F7809584238C9329C0A5E3E4
:10317000B0E0E5E3F0E08081482F8B81282F30E03C
:1031800081E090E0022E02C0880F991F0A94E2F7B6
:10319000809584238C9314C0A2E3B0E0E2E3F0E0D6
:1031A0008081482F8B81282F30E081E090E0022E33
:1031B00002C0880F991F0A94E2F7809584238C93AC
:1031C000898128960FB6F894DEBF0FBECDBFCF9190
:1031D000DF910895DF93CF93CDB7DEB72F970FB66A
:1031E000F894DEBF0FBECDBF8F8783E067E040E07D
:1031F0000E94E51183E064E040E00E94E51182E076
:103200006F850E94401083E065E041E00E94E51177
:1032100080E090E0A0E0B0E48B879C87AD87BE871C
:103220006B857C858D859E8520E030E04AEF54E4F7
:103230000E941F02DC01CB018F839887A987BA8780
:103240006F81788589859A8520E030E040E85FE3EA
:103250000E94250488232CF481E090E09E838D83D6
:103260003FC06F81788589859A8520E03FEF4FE7E1
:1032700057E40E94C50318164CF56B857C858D8537
:103280009E8520E030E040E251E40E941F02DC0114
:10329000CB01BC01CD010E944900DC01CB019E8322
:1032A0008D830FC088EC90E09C838B838B819C8105
:1032B0000197F1F79C838B838D819E8101979E837B
:1032C0008D838D819E81009769F714C06F81788509
:1032D00089859A850E944900DC01CB019E838D83FC
:1032E0008D819E819A83898389819A810197F1F7E3
:1032F0009A83898383E065E040E00E94E5112F9680
:103300000FB6F894DEBF0FBECDBFCF91DF91089509
:10331000DF93CF93CDB7DEB72F970FB6F894DEBF0C
:103320000FBECDBF8F8783E067E041E00E94E511CB
:1033300083E064E040E00E94E51182E06F850E9436
:10334000401083E065E041E00E94E51180E090E0FC
:10335000A0E0B0E48B879C87AD87BE876B857C85BA
:103360008D859E8520E030E04AEF54E40E941F02E4
:10337000DC01CB018F839887A987BA876F81788515
:1033800089859A8520E030E040E85FE30E942504CB
:1033900088232CF481E090E09E838D833FC06F8171
:1033A000788589859A8520E03FEF4FE757E40E94B2
:1033B000C50318164CF56B857C858D859E8520E0B0
:1033C00030E040E251E40E941F02DC01CB01BC016D
:1033D000CD010E944900DC01CB019E838D830FC08B
:1033E00088EC90E09C838B838B819C810197F1F723
:1033F0009C838B838D819E8101979E838D838D819C
:103400009E81009769F714C06F81788589859A85B8
:103410000E944900DC01CB019E838D838D819E81BA
:103420009A83898389819A810197F1F79A838983A5
:1034300083E065E040E00E94E5112F960FB6F89416
:10344000DEBF0FBECDBFCF91DF910895DF93CF9345
:10345000CDB7DEB7A6970FB6F894DEBF0FBECDBFCF
:1034600080E090E0A0E2B2E48BA39CA3ADA3BEA356
:103470006BA17CA18DA19EA120E030E04AEF54E435
:103480000E941F02DC01CB018F8F98A3A9A3BAA3CE
:103490006F8D78A189A19AA120E030E040E85FE338
:1034A0000E94250488232CF481E090E09E8F8D8F6C
:1034B0003FC06F8D78A189A19AA120E03FEF4FE72F
:1034C00057E40E94C50318164CF56BA17CA18DA191
:1034D0009EA120E030E040E251E40E941F02DC01A6
:1034E000CB01BC01CD010E944900DC01CB019E8FC4
:1034F0008D8F0FC088EC90E09C8F8B8F8B8D9C8D77
:103500000197F1F79C8F8B8F8D8D9E8D01979E8FEC
:103510008D8F8D8D9E8D009769F714C06F8D78A16A
:1035200089A19AA10E944900DC01CB019E8F8D8F59
:103530008D8D9E8D9A8F898F898D9A8D0197F1F748
:103540009A8F898F88E30E94EA1880E090E0A8E4CF
:10355000B2E48D8B9E8BAF8BB88F6D897E898F89FE
:10356000988D2BEA3AEA4AE250E40E941F02DC01FD
:10357000CB01898B9A8BAB8BBC8B69897A898B89C0
:103580009C8920E030E040E85FE30E942504882326
:103590001CF481E0888B91C069897A898B899C8928
:1035A00020E030E04FE753E40E94C50318160CF00A
:1035B0007BC06D897E898F89988D20E030E04AE755
:1035C00054E40E941903DC01CB018C879D87AE87F0
:1035D000BF876C857D858E859F8520E030E04AEF32
:1035E00054E40E941F02DC01CB0188879987AA87D7
:1035F000BB87688579858A859B8520E030E040E837
:103600005FE30E94250488232CF481E090E09F83EF
:103610008E833FC0688579858A859B8520E03FEF52
:103620004FE757E40E94C50318164CF56C857D855D
:103630008E859F8520E030E040E251E40E941F0229
:10364000DC01CB01BC01CD010E944900DC01CB01B2
:103650009F838E830FC088EC90E09D838C838C8148
:103660009D810197F1F79D838C838E819F810197C6
:103670009F838E838E819F81009769F724C0688520
:1036800079858A859B850E944900DC01CB019F8357
:103690008E838E819F819B838A838A819B81019700
:1036A000F1F79B838A830FC069897A898B899C890A
:1036B0000E944900DC01CB01888B8889898389813C
:1036C0008A95F1F789838CE00E94EA1881E00E94D4
:1036D000EA18A6960FB6F894DEBF0FBECDBFCF9105
:1036E000DF910895DF93CF9300D00F92CDB7DEB76F
:1036F0008A836B8381E08093BF018A818093BD01BF
:103700008B818093BE018A81882319F48B81898300
:1037100006C08A81813019F48B81805C898389811C
:1037200080680E94EA180F900F900F90CF91DF9160
:103730000895DF93CF93CDB7DEB781E08093BC01CE
:1037400081E00E94EA18CF91DF910895DF93CF9333
:10375000CDB7DEB78EE00E94EA18CF91DF910895D1
:10376000DF93CF93CDB7DEB78CE00E94EA18CF91FC
:10377000DF910895DF93CF93CDB7DEB78FE00E943E
:10378000EA18CF91DF910895DF93CF93CDB7DEB7DD
:103790008CE00E94EA18CF91DF910895DF93CF93D8
:1037A000CDB7DEB788E00E94EA18CF91DF91089587
:1037B000DF93CF9300D000D0CDB7DEB78A836B8381
:1037C0004C8319828C8189830BC099818B81692FED
:1037D0000E94721B80E20E9488198981815089832E
:1037E0008981482F552747FD50958C81282F30E03F
:1037F0008A81882F90E0B901681B790BCB0184176F
:1038000095071CF30F900F900F900F90CF91DF91C1
:103810000895DF93CF9300D000D0CDB7DEB78A8371
:103820006B834C8319828C8189830AC08B81698167
:103830000E94721B80E20E94881989818F5F8983B0
:103840008981482F50E08C81282F30E08A81882F91
:1038500090E0820F931F4817590744F30F900F9081
:103860000F900F90CF91DF910895DF93CF93CDB755
:10387000DEB768970FB6F894DEBF0FBECDBF988F46
:103880008F8B8F89988D9E838D831C820DC08C8138
:103890008F5F8C838D819E812AE030E0B9010E9488
:1038A000731ECB019E838D838D819E81009779F756
:1038B0008F89988D9E838D831B821EC08B81E82FFC
:1038C000F0E08D819E812AE030E0B9010E94731EF4
:1038D000282F205DCE010796E80FF91F20838D81E8
:1038E0009E812AE030E0B9010E94731ECB019E83C5
:1038F0008D838B818F5F8B839B818C819817F0F2F6
:103900008C81882F90E001979A8389830FC0298149
:103910003A81CE010796FC01E20FF31F80810E94DD
:10392000881989819A8101979A83898389819A81EB
:1039300099236CF768960FB6F894DEBF0FBECDBF23
:10394000CF91DF910895DF93CF9300D00F92CDB741
:10395000DEB79B838A8319820EC08981282F30E0CD
:103960008A819B81FC01E20FF31F80810E948819EC
:1039700089818F5F89838981282F30E08A819B81AB
:10398000FC01E20FF31F8081882339F70F900F901D
:103990000F90CF91DF910895DF93CF93CDB7DEB72E
:1039A00027970FB6F894DEBF0FBECDBF9C838B83E5
:1039B0006D834E832F838D81882F90E0880F991F10
:1039C000880F991F880F991F8A8319828A818064C2
:1039D0000E94EA1819820EC08981282F30E08B815D
:1039E0009C81FC01E20FF31F80810E94881989816C
:1039F0008F5F89838981883078F38E816F810E94FF
:103A0000721B8D810E94881927960FB6F894DEBF2D
:103A10000FBECDBFCF91DF910895DF93CF9300D03C
:103A200000D0CDB7DEB78FEF8B831A8219821A824E
:103A30005AC08A81882F90E0FC01EB57FE4F90819D
:103A400083E0692F40E00E94E51119823AC0898124
:103A5000882F90E0FC01EF57FE4F90819E012C5F74
:103A60003F4F83E0692FA9010E94EA128C818823CD
:103A700011F58981482F50E08A81282F30E0CA0152
:103A8000880F991F880F991F820F931FFC01E7571A
:103A9000FE4F80818B830FC08981882F90E0FC01CD
:103AA000EF57FE4F90819E012C5F3F4F83E0692FBF
:103AB000A9010E94EA128C81882371F389818F5FAA
:103AC00089838981843018F28A81882F90E0FC01F3
:103AD000EB57FE4F908183E0692F41E00E94E51192
:103AE0008A818F5F8A838A81843008F4A2CF8B8198
:103AF0000F900F900F900F90CF91DF910895DF936B
:103B0000CF93CDB7DEB780E067E040E00E94E511DB
:103B100080E064E041E00E94E511CF91DF910895DB
:103B2000DF93CF93CDB7DEB780E064E040E00E9442
:103B3000E51180E067E041E00E94E511CF91DF915F
:103B40000895DF93CF93CDB7DEB780E064E040E027
:103B50000E94E51180E067E040E00E94E511CF910E
:103B6000DF9108951F920F920FB60F921124DF93E9
:103B7000CF93CDB7DEB7CF91DF910F900FBE0F90EF
:103B80001F901895DF93CF93CDB7DEB70E94470DF6
:103B90000E94261A81E00E946B0D0E94170780E4A4
:103BA0000E9495070E94E5078091C2019091C30190
:103BB000009731F48091C0019091C1010097A1F369
:103BC00080E060E00E94721B80E690E00E94A31CEF
:103BD0008091C2019091C3010E94351C81E060E098
:103BE0000E94721B8AE690E00E94A31C8091C00193
:103BF0009091C1010E94351CD7CF1F920F920FB632
:103C00000F9211242F933F934F935F936F937F9362
:103C10008F939F93AF93BF93EF93FF93DF93CF93D4
:103C2000CDB7DEB78091C401882369F40E94AE0845
:103C30009093CA018093C90180E00E94760881E0D8
:103C40008093C4013DC08091C4018130E9F40E9499
:103C5000AE089093C8018093C7012091C7013091AD
:103C6000C8018091C9019091CA01A901481B590B53
:103C7000CA019093C3018093C20181E00E9476083B
:103C800082E08093C4011CC08091C4018230C1F4E1
:103C90000E94AE089093C6018093C5012091C50192
:103CA0003091C6018091C9019091CA01A901481BB8
:103CB000590BCA019093C1018093C0011092C401B5
:103CC000CF91DF91FF91EF91BF91AF919F918F9134
:103CD0007F916F915F914F913F912F910F900FBE08
:103CE0000F901F901895AA1BBB1B51E107C0AA1F7C
:103CF000BB1FA617B70710F0A61BB70B881F991F8D
:103D00005A95A9F780959095BC01CD01089597FB30
:103D1000092E07260AD077FD04D0E5DF06D0002063
:103D20001AF4709561957F4F0895F6F790958195F7
:103D30009F4F08952F923F924F925F926F927F9282
:103D40008F929F92AF92BF92CF92DF92EF92FF92AB
:103D50000F931F93CF93DF93CDB7DEB7CA1BDB0B57
:103D60000FB6F894DEBF0FBECDBF09942A883988FC
:103D700048885F846E847D848C849B84AA84B98403
:103D8000C884DF80EE80FD800C811B81AA81B9810F
:103D9000CE0FD11D0FB6F894DEBF0FBECDBFED0123
:063DA0000895F894FFCF26
:103DA6004F4E5F54696D65203D00506572696F64C2
:103DB6005F74696D65203D00000000000000000092
:103DC60000010202030303030404040404040404BC
:103DD600050505050505050505050505050505058D
:103DE600060606060606060606060606060606066D
:103DF600060606060606060606060606060606065D
:103E0600070707070707070707070707070707073C
:103E1600070707070707070707070707070707072C
:103E2600070707070707070707070707070707071C
:103E3600070707070707070707070707070707070C
:103E460008080808080808080808080808080808EC
:103E560008080808080808080808080808080808DC
:103E660008080808080808080808080808080808CC
:103E760008080808080808080808080808080808BC
:103E860008080808080808080808080808080808AC
:103E9600080808080808080808080808080808089C
:103EA600080808080808080808080808080808088C
:103EB600080808080808080808080808080808087C
:103EC6000104050607000102033132333435363763
:103ED60038396964307230303000409C4000409C74
:023EE60040009A
:00000001FF
